{
    "contractName": "SlyDeFi",
    "abi": [
        {
            "inputs": [
                {
                    "internalType": "address",
                    "name": "_clETHUSD",
                    "type": "address"
                },
                {
                    "internalType": "uint256",
                    "name": "_minvalue",
                    "type": "uint256"
                }
            ],
            "stateMutability": "nonpayable",
            "type": "constructor"
        },
        {
            "inputs": [
                {
                    "internalType": "uint256",
                    "name": "thisblock",
                    "type": "uint256"
                },
                {
                    "internalType": "uint256",
                    "name": "lastblock",
                    "type": "uint256"
                }
            ],
            "name": "DoingUpkeepOrNoCheck",
            "type": "error"
        },
        {
            "inputs": [
                {
                    "internalType": "uint256",
                    "name": "requested",
                    "type": "uint256"
                },
                {
                    "internalType": "uint256",
                    "name": "required",
                    "type": "uint256"
                }
            ],
            "name": "SmallerThanMin",
            "type": "error"
        },
        {
            "inputs": [
                {
                    "internalType": "uint16",
                    "name": "endDay",
                    "type": "uint16"
                },
                {
                    "internalType": "address",
                    "name": "user",
                    "type": "address"
                }
            ],
            "name": "UserAlreadyHasPositionEndingOnThisDay",
            "type": "error"
        },
        {
            "anonymous": false,
            "inputs": [
                {
                    "indexed": true,
                    "internalType": "address",
                    "name": "owner",
                    "type": "address"
                },
                {
                    "indexed": true,
                    "internalType": "address",
                    "name": "approved",
                    "type": "address"
                },
                {
                    "indexed": true,
                    "internalType": "uint256",
                    "name": "tokenId",
                    "type": "uint256"
                }
            ],
            "name": "Approval",
            "type": "event"
        },
        {
            "anonymous": false,
            "inputs": [
                {
                    "indexed": true,
                    "internalType": "address",
                    "name": "owner",
                    "type": "address"
                },
                {
                    "indexed": true,
                    "internalType": "address",
                    "name": "operator",
                    "type": "address"
                },
                {
                    "indexed": false,
                    "internalType": "bool",
                    "name": "approved",
                    "type": "bool"
                }
            ],
            "name": "ApprovalForAll",
            "type": "event"
        },
        {
            "anonymous": false,
            "inputs": [
                {
                    "indexed": true,
                    "internalType": "address",
                    "name": "previousOwner",
                    "type": "address"
                },
                {
                    "indexed": true,
                    "internalType": "address",
                    "name": "newOwner",
                    "type": "address"
                }
            ],
            "name": "OwnershipTransferred",
            "type": "event"
        },
        {
            "anonymous": false,
            "inputs": [
                {
                    "indexed": false,
                    "internalType": "address",
                    "name": "account",
                    "type": "address"
                }
            ],
            "name": "Paused",
            "type": "event"
        },
        {
            "anonymous": false,
            "inputs": [
                {
                    "indexed": true,
                    "internalType": "address",
                    "name": "from",
                    "type": "address"
                },
                {
                    "indexed": true,
                    "internalType": "address",
                    "name": "to",
                    "type": "address"
                },
                {
                    "indexed": true,
                    "internalType": "uint256",
                    "name": "tokenId",
                    "type": "uint256"
                }
            ],
            "name": "Transfer",
            "type": "event"
        },
        {
            "anonymous": false,
            "inputs": [
                {
                    "indexed": false,
                    "internalType": "address",
                    "name": "account",
                    "type": "address"
                }
            ],
            "name": "Unpaused",
            "type": "event"
        },
        {
            "stateMutability": "nonpayable",
            "type": "fallback"
        },
        {
            "inputs": [],
            "name": "aToken",
            "outputs": [
                {
                    "internalType": "contract IaToken",
                    "name": "",
                    "type": "address"
                }
            ],
            "stateMutability": "view",
            "type": "function"
        },
        {
            "inputs": [],
            "name": "aaveLendingPool",
            "outputs": [
                {
                    "internalType": "contract IAaveLendingPool",
                    "name": "",
                    "type": "address"
                }
            ],
            "stateMutability": "view",
            "type": "function"
        },
        {
            "inputs": [
                {
                    "internalType": "address",
                    "name": "to",
                    "type": "address"
                },
                {
                    "internalType": "uint256",
                    "name": "tokenId",
                    "type": "uint256"
                }
            ],
            "name": "approve",
            "outputs": [],
            "stateMutability": "nonpayable",
            "type": "function"
        },
        {
            "inputs": [
                {
                    "internalType": "address",
                    "name": "owner",
                    "type": "address"
                }
            ],
            "name": "balanceOf",
            "outputs": [
                {
                    "internalType": "uint256",
                    "name": "",
                    "type": "uint256"
                }
            ],
            "stateMutability": "view",
            "type": "function"
        },
        {
            "inputs": [
                {
                    "internalType": "uint256",
                    "name": "tokenId",
                    "type": "uint256"
                }
            ],
            "name": "burn",
            "outputs": [],
            "stateMutability": "nonpayable",
            "type": "function"
        },
        {
            "inputs": [
                {
                    "internalType": "uint256",
                    "name": "_tokenIdtoBurn",
                    "type": "uint256"
                }
            ],
            "name": "burnToken",
            "outputs": [
                {
                    "internalType": "bool",
                    "name": "",
                    "type": "bool"
                }
            ],
            "stateMutability": "nonpayable",
            "type": "function"
        },
        {
            "inputs": [
                {
                    "internalType": "bytes",
                    "name": "",
                    "type": "bytes"
                }
            ],
            "name": "checkUpkeep",
            "outputs": [
                {
                    "internalType": "bool",
                    "name": "upkeepNeeded",
                    "type": "bool"
                },
                {
                    "internalType": "bytes",
                    "name": "upkeepData",
                    "type": "bytes"
                }
            ],
            "stateMutability": "view",
            "type": "function"
        },
        {
            "inputs": [],
            "name": "clETHUSD",
            "outputs": [
                {
                    "internalType": "address",
                    "name": "",
                    "type": "address"
                }
            ],
            "stateMutability": "view",
            "type": "function"
        },
        {
            "inputs": [],
            "name": "dai",
            "outputs": [
                {
                    "internalType": "contract IERC20",
                    "name": "",
                    "type": "address"
                }
            ],
            "stateMutability": "view",
            "type": "function"
        },
        {
            "inputs": [],
            "name": "day",
            "outputs": [
                {
                    "internalType": "uint16",
                    "name": "",
                    "type": "uint16"
                }
            ],
            "stateMutability": "view",
            "type": "function"
        },
        {
            "inputs": [
                {
                    "internalType": "uint16",
                    "name": "",
                    "type": "uint16"
                },
                {
                    "internalType": "uint32",
                    "name": "",
                    "type": "uint32"
                },
                {
                    "internalType": "uint256",
                    "name": "",
                    "type": "uint256"
                }
            ],
            "name": "dayPriceGetPositions",
            "outputs": [
                {
                    "internalType": "uint32",
                    "name": "",
                    "type": "uint32"
                }
            ],
            "stateMutability": "view",
            "type": "function"
        },
        {
            "inputs": [
                {
                    "internalType": "uint16",
                    "name": "",
                    "type": "uint16"
                },
                {
                    "internalType": "uint64",
                    "name": "",
                    "type": "uint64"
                }
            ],
            "name": "dayPriceTVL",
            "outputs": [
                {
                    "internalType": "uint128",
                    "name": "",
                    "type": "uint128"
                }
            ],
            "stateMutability": "view",
            "type": "function"
        },
        {
            "inputs": [
                {
                    "internalType": "uint256",
                    "name": "tokenId",
                    "type": "uint256"
                }
            ],
            "name": "getApproved",
            "outputs": [
                {
                    "internalType": "address",
                    "name": "",
                    "type": "address"
                }
            ],
            "stateMutability": "view",
            "type": "function"
        },
        {
            "inputs": [
                {
                    "internalType": "uint32",
                    "name": "",
                    "type": "uint32"
                }
            ],
            "name": "getPositionById",
            "outputs": [
                {
                    "internalType": "uint32",
                    "name": "id",
                    "type": "uint32"
                },
                {
                    "internalType": "address",
                    "name": "owner",
                    "type": "address"
                },
                {
                    "internalType": "uint16",
                    "name": "start",
                    "type": "uint16"
                },
                {
                    "internalType": "uint16",
                    "name": "end",
                    "type": "uint16"
                },
                {
                    "internalType": "uint16",
                    "name": "shares",
                    "type": "uint16"
                },
                {
                    "internalType": "uint128",
                    "name": "baseValue",
                    "type": "uint128"
                },
                {
                    "internalType": "string",
                    "name": "imghash",
                    "type": "string"
                }
            ],
            "stateMutability": "view",
            "type": "function"
        },
        {
            "inputs": [
                {
                    "internalType": "address",
                    "name": "",
                    "type": "address"
                }
            ],
            "name": "isActive",
            "outputs": [
                {
                    "internalType": "bool",
                    "name": "",
                    "type": "bool"
                }
            ],
            "stateMutability": "view",
            "type": "function"
        },
        {
            "inputs": [
                {
                    "internalType": "address",
                    "name": "owner",
                    "type": "address"
                },
                {
                    "internalType": "address",
                    "name": "operator",
                    "type": "address"
                }
            ],
            "name": "isApprovedForAll",
            "outputs": [
                {
                    "internalType": "bool",
                    "name": "",
                    "type": "bool"
                }
            ],
            "stateMutability": "view",
            "type": "function"
        },
        {
            "inputs": [
                {
                    "internalType": "uint32",
                    "name": "",
                    "type": "uint32"
                }
            ],
            "name": "isPositionInWinArray",
            "outputs": [
                {
                    "internalType": "bool",
                    "name": "",
                    "type": "bool"
                }
            ],
            "stateMutability": "view",
            "type": "function"
        },
        {
            "inputs": [
                {
                    "internalType": "address",
                    "name": "_who",
                    "type": "address"
                }
            ],
            "name": "isUserActive",
            "outputs": [
                {
                    "internalType": "bool",
                    "name": "",
                    "type": "bool"
                }
            ],
            "stateMutability": "view",
            "type": "function"
        },
        {
            "inputs": [],
            "name": "lastETHPrice",
            "outputs": [
                {
                    "internalType": "uint64",
                    "name": "",
                    "type": "uint64"
                }
            ],
            "stateMutability": "view",
            "type": "function"
        },
        {
            "inputs": [],
            "name": "name",
            "outputs": [
                {
                    "internalType": "string",
                    "name": "",
                    "type": "string"
                }
            ],
            "stateMutability": "view",
            "type": "function"
        },
        {
            "inputs": [],
            "name": "owner",
            "outputs": [
                {
                    "internalType": "address",
                    "name": "",
                    "type": "address"
                }
            ],
            "stateMutability": "view",
            "type": "function"
        },
        {
            "inputs": [
                {
                    "internalType": "uint256",
                    "name": "tokenId",
                    "type": "uint256"
                }
            ],
            "name": "ownerOf",
            "outputs": [
                {
                    "internalType": "address",
                    "name": "",
                    "type": "address"
                }
            ],
            "stateMutability": "view",
            "type": "function"
        },
        {
            "inputs": [],
            "name": "pause",
            "outputs": [],
            "stateMutability": "nonpayable",
            "type": "function"
        },
        {
            "inputs": [],
            "name": "paused",
            "outputs": [
                {
                    "internalType": "bool",
                    "name": "",
                    "type": "bool"
                }
            ],
            "stateMutability": "view",
            "type": "function"
        },
        {
            "inputs": [
                {
                    "internalType": "bytes",
                    "name": "",
                    "type": "bytes"
                }
            ],
            "name": "performUpkeep",
            "outputs": [],
            "stateMutability": "nonpayable",
            "type": "function"
        },
        {
            "inputs": [],
            "name": "posId",
            "outputs": [
                {
                    "internalType": "uint32",
                    "name": "",
                    "type": "uint32"
                }
            ],
            "stateMutability": "view",
            "type": "function"
        },
        {
            "inputs": [],
            "name": "renounceOwnership",
            "outputs": [],
            "stateMutability": "nonpayable",
            "type": "function"
        },
        {
            "inputs": [
                {
                    "internalType": "address",
                    "name": "from",
                    "type": "address"
                },
                {
                    "internalType": "address",
                    "name": "to",
                    "type": "address"
                },
                {
                    "internalType": "uint256",
                    "name": "tokenId",
                    "type": "uint256"
                }
            ],
            "name": "safeTransferFrom",
            "outputs": [],
            "stateMutability": "nonpayable",
            "type": "function"
        },
        {
            "inputs": [
                {
                    "internalType": "address",
                    "name": "from",
                    "type": "address"
                },
                {
                    "internalType": "address",
                    "name": "to",
                    "type": "address"
                },
                {
                    "internalType": "uint256",
                    "name": "tokenId",
                    "type": "uint256"
                },
                {
                    "internalType": "bytes",
                    "name": "_data",
                    "type": "bytes"
                }
            ],
            "name": "safeTransferFrom",
            "outputs": [],
            "stateMutability": "nonpayable",
            "type": "function"
        },
        {
            "inputs": [
                {
                    "internalType": "address",
                    "name": "operator",
                    "type": "address"
                },
                {
                    "internalType": "bool",
                    "name": "approved",
                    "type": "bool"
                }
            ],
            "name": "setApprovalForAll",
            "outputs": [],
            "stateMutability": "nonpayable",
            "type": "function"
        },
        {
            "inputs": [
                {
                    "internalType": "uint32[30]",
                    "name": "_graph",
                    "type": "uint32[30]"
                },
                {
                    "internalType": "uint128",
                    "name": "_value",
                    "type": "uint128"
                },
                {
                    "internalType": "uint16",
                    "name": "_end",
                    "type": "uint16"
                },
                {
                    "internalType": "string",
                    "name": "_imghash",
                    "type": "string"
                }
            ],
            "name": "submitPosition",
            "outputs": [
                {
                    "internalType": "bool",
                    "name": "",
                    "type": "bool"
                }
            ],
            "stateMutability": "payable",
            "type": "function"
        },
        {
            "inputs": [
                {
                    "internalType": "bytes4",
                    "name": "interfaceId",
                    "type": "bytes4"
                }
            ],
            "name": "supportsInterface",
            "outputs": [
                {
                    "internalType": "bool",
                    "name": "",
                    "type": "bool"
                }
            ],
            "stateMutability": "view",
            "type": "function"
        },
        {
            "inputs": [],
            "name": "symbol",
            "outputs": [
                {
                    "internalType": "string",
                    "name": "",
                    "type": "string"
                }
            ],
            "stateMutability": "view",
            "type": "function"
        },
        {
            "inputs": [
                {
                    "internalType": "uint256",
                    "name": "tokenId",
                    "type": "uint256"
                }
            ],
            "name": "tokenURI",
            "outputs": [
                {
                    "internalType": "string",
                    "name": "",
                    "type": "string"
                }
            ],
            "stateMutability": "view",
            "type": "function"
        },
        {
            "inputs": [],
            "name": "totalDepositedDai",
            "outputs": [
                {
                    "internalType": "uint128",
                    "name": "",
                    "type": "uint128"
                }
            ],
            "stateMutability": "view",
            "type": "function"
        },
        {
            "inputs": [
                {
                    "internalType": "address",
                    "name": "from",
                    "type": "address"
                },
                {
                    "internalType": "address",
                    "name": "to",
                    "type": "address"
                },
                {
                    "internalType": "uint256",
                    "name": "tokenId",
                    "type": "uint256"
                }
            ],
            "name": "transferFrom",
            "outputs": [],
            "stateMutability": "nonpayable",
            "type": "function"
        },
        {
            "inputs": [
                {
                    "internalType": "address",
                    "name": "newOwner",
                    "type": "address"
                }
            ],
            "name": "transferOwnership",
            "outputs": [],
            "stateMutability": "nonpayable",
            "type": "function"
        },
        {
            "inputs": [],
            "name": "unpause",
            "outputs": [],
            "stateMutability": "nonpayable",
            "type": "function"
        },
        {
            "inputs": [
                {
                    "internalType": "address",
                    "name": "",
                    "type": "address"
                }
            ],
            "name": "userDepositedDai",
            "outputs": [
                {
                    "internalType": "uint256",
                    "name": "",
                    "type": "uint256"
                }
            ],
            "stateMutability": "view",
            "type": "function"
        },
        {
            "inputs": [
                {
                    "internalType": "address",
                    "name": "",
                    "type": "address"
                },
                {
                    "internalType": "uint16",
                    "name": "",
                    "type": "uint16"
                }
            ],
            "name": "userHasTimeEndPosition",
            "outputs": [
                {
                    "internalType": "bool",
                    "name": "",
                    "type": "bool"
                }
            ],
            "stateMutability": "view",
            "type": "function"
        },
        {
            "inputs": [
                {
                    "internalType": "address",
                    "name": "",
                    "type": "address"
                },
                {
                    "internalType": "uint256",
                    "name": "",
                    "type": "uint256"
                }
            ],
            "name": "userPositions",
            "outputs": [
                {
                    "internalType": "uint32",
                    "name": "",
                    "type": "uint32"
                }
            ],
            "stateMutability": "view",
            "type": "function"
        },
        {
            "inputs": [
                {
                    "internalType": "address",
                    "name": "",
                    "type": "address"
                }
            ],
            "name": "userWinnings",
            "outputs": [
                {
                    "internalType": "uint256",
                    "name": "",
                    "type": "uint256"
                }
            ],
            "stateMutability": "view",
            "type": "function"
        },
        {
            "inputs": [
                {
                    "internalType": "address",
                    "name": "_beneficiary",
                    "type": "address"
                }
            ],
            "name": "withdraw",
            "outputs": [],
            "stateMutability": "nonpayable",
            "type": "function"
        },
        {
            "stateMutability": "payable",
            "type": "receive"
        }
    ],
    "bytecode": "60c0604052601880546001600160a01b0319908116721b3b4d0f3714ca98ba10f6042daebf0b1b7b6f1790915560198054821673639cb7b21ee2161df9c882483c9d55c90c20ca3e179055601a8054909116739198f13b08e299d85e096929fa9781a1e3d5d8271790553480156200007657600080fd5b5060405162003d0938038062003d09833981016040819052620000999162000333565b60405180604001604052806008815260200167536c7944652e466960c01b81525060405180604001604052806005815260200164534c59444560d81b815250620000f2620000ec6200023960201b60201c565b6200023d565b6001805581516200010b9060029060208501906200028d565b508051620001219060039060208401906200028d565b50506008805460ff1916905550600a805465ffffffffffff191662010001179055601380546001600160a01b0319166001600160a01b0384161790556200017181670de0b6b3a76400006200036f565b60805261167d60a052601480546001600160401b0319166001179055601854601a5460405163095ea7b360e01b81526001600160a01b039182166004820152600019602482015291169063095ea7b3906044016020604051808303816000875af1158015620001e4573d6000803e3d6000fd5b505050506040513d601f19601f820116820180604052508101906200020a91906200039d565b5050601780546001600160a01b031916730715a7794a1dc8e42615f059dd6e406a6594651a1790555062000405565b3390565b600080546001600160a01b038381166001600160a01b0319831681178455604051919092169283917f8be0079c531659141344cd1fd0a4f28419497f9722a3daafe3b4186f6b6457e09190a35050565b8280546200029b90620003c8565b90600052602060002090601f016020900481019282620002bf57600085556200030a565b82601f10620002da57805160ff19168380011785556200030a565b828001600101855582156200030a579182015b828111156200030a578251825591602001919060010190620002ed565b50620003189291506200031c565b5090565b5b808211156200031857600081556001016200031d565b600080604083850312156200034757600080fd5b82516001600160a01b03811681146200035f57600080fd5b6020939093015192949293505050565b60008160001904831182151516156200039857634e487b7160e01b600052601160045260246000fd5b500290565b600060208284031215620003b057600080fd5b81518015158114620003c157600080fd5b9392505050565b600181811c90821680620003dd57607f821691505b60208210811415620003ff57634e487b7160e01b600052602260045260246000fd5b50919050565b60805160a0516138d06200043960003960008181610cf5015261132701526000818161193d015261197901526138d06000f3fe6080604052600436106102605760003560e01c80638da5cb5b11610144578063d0c80566116100b6578063e985e9c51161007a578063e985e9c514610801578063e9d337b81461084a578063f2fde38b1461086a578063f4b9fa751461088a578063f5d13da0146108aa578063f9ebbb81146108cd57610267565b8063d0c8056614610716578063d1c22c3b14610755578063d32b74931461078d578063d81639f8146107ce578063e5790d72146107ee57610267565b8063a22cb46511610108578063a22cb4651461063c578063a815a4d41461065c578063aef94ae914610689578063b88d4fde146106a9578063bad9e092146106c9578063c87b56dd146106f657610267565b80638da5cb5b1461058057806395d89b411461059e5780639ee20b15146105b35780639f8a13d7146105ec578063a0c1f15e1461061c57610267565b806351cff8d9116101dd5780636e04ff0d116101a15780636e04ff0d146104ac57806370a08231146104da578063715018a6146105085780637b47ec1a1461051d5780637b76ac911461053d5780638456cb591461056b57610267565b806351cff8d9146103ef5780635c975abb1461040f5780635e1b4d99146104275780636059684b1461045c5780636352211e1461048c57610267565b80633f4ba83a116102245780633f4ba83a1461034757806342842e0e1461035c57806342966c681461037c5780634585e33b1461039c578063498f4dc1146103bc57610267565b806301ffc9a71461027657806306fdde03146102ab578063081812fc146102cd578063095ea7b31461030557806323b872dd1461032757610267565b3661026757005b34801561027357600080fd5b50005b34801561028257600080fd5b50610296610291366004612f23565b610908565b60405190151581526020015b60405180910390f35b3480156102b757600080fd5b506102c0610919565b6040516102a29190612f98565b3480156102d957600080fd5b506102ed6102e8366004612fab565b6109ab565b6040516001600160a01b0390911681526020016102a2565b34801561031157600080fd5b50610325610320366004612fe0565b610a38565b005b34801561033357600080fd5b5061032561034236600461300a565b610b4e565b34801561035357600080fd5b50610325610b80565b34801561036857600080fd5b5061032561037736600461300a565b610bb4565b34801561038857600080fd5b50610325610397366004612fab565b610bcf565b3480156103a857600080fd5b506103256103b7366004613087565b610c49565b3480156103c857600080fd5b506103dc6103d73660046130dc565b6110ac565b6040516102a297969594939291906130f7565b3480156103fb57600080fd5b5061032561040a36600461315d565b611199565b34801561041b57600080fd5b5060085460ff16610296565b34801561043357600080fd5b50610447610442366004612fe0565b61125c565b60405163ffffffff90911681526020016102a2565b34801561046857600080fd5b506102966104773660046130dc565b600d6020526000908152604090205460ff1681565b34801561049857600080fd5b506102ed6104a7366004612fab565b6112a5565b3480156104b857600080fd5b506104cc6104c7366004613087565b61131c565b6040516102a2929190613178565b3480156104e657600080fd5b506104fa6104f536600461315d565b611375565b6040519081526020016102a2565b34801561051457600080fd5b506103256113fc565b34801561052957600080fd5b50610296610538366004612fab565b611430565b34801561054957600080fd5b50600a546105589061ffff1681565b60405161ffff90911681526020016102a2565b34801561057757600080fd5b506103256116e9565b34801561058c57600080fd5b506000546001600160a01b03166102ed565b3480156105aa57600080fd5b506102c061171b565b3480156105bf57600080fd5b506102966105ce36600461315d565b6001600160a01b03166000908152600b602052604090205460ff1690565b3480156105f857600080fd5b5061029661060736600461315d565b600b6020526000908152604090205460ff1681565b34801561062857600080fd5b506019546102ed906001600160a01b031681565b34801561064857600080fd5b50610325610657366004613193565b61172a565b34801561066857600080fd5b506104fa61067736600461315d565b60126020526000908152604090205481565b34801561069557600080fd5b506104476106a43660046131e1565b6117ef565b3480156106b557600080fd5b506103256106c436600461327c565b611845565b3480156106d557600080fd5b506104fa6106e436600461315d565b60156020526000908152604090205481565b34801561070257600080fd5b506102c0610711366004612fab565b61187d565b34801561072257600080fd5b5060135461073d90600160a01b90046001600160401b031681565b6040516001600160401b0390911681526020016102a2565b34801561076157600080fd5b50601654610775906001600160801b031681565b6040516001600160801b0390911681526020016102a2565b34801561079957600080fd5b506107756107a836600461333b565b60116020908152600092835260408084209091529082529020546001600160801b031681565b3480156107da57600080fd5b506013546102ed906001600160a01b031681565b6102966107fc36600461338a565b611888565b34801561080d57600080fd5b5061029661081c366004613446565b6001600160a01b03918216600090815260076020908152604080832093909416825291909152205460ff1690565b34801561085657600080fd5b50601a546102ed906001600160a01b031681565b34801561087657600080fd5b5061032561088536600461315d565b612012565b34801561089657600080fd5b506018546102ed906001600160a01b031681565b3480156108b657600080fd5b50600a546104479062010000900463ffffffff1681565b3480156108d957600080fd5b506102966108e8366004613479565b600f60209081526000928352604080842090915290825290205460ff1681565b6000610913826120aa565b92915050565b606060028054610928906134a3565b80601f0160208091040260200160405190810160405280929190818152602001828054610954906134a3565b80156109a15780601f10610976576101008083540402835291602001916109a1565b820191906000526020600020905b81548152906001019060200180831161098457829003601f168201915b5050505050905090565b60006109b6826120fa565b610a1c5760405162461bcd60e51b815260206004820152602c60248201527f4552433732313a20617070726f76656420717565727920666f72206e6f6e657860448201526b34b9ba32b73a103a37b5b2b760a11b60648201526084015b60405180910390fd5b506000908152600660205260409020546001600160a01b031690565b6000610a43826112a5565b9050806001600160a01b0316836001600160a01b03161415610ab15760405162461bcd60e51b815260206004820152602160248201527f4552433732313a20617070726f76616c20746f2063757272656e74206f776e656044820152603960f91b6064820152608401610a13565b336001600160a01b0382161480610acd5750610acd813361081c565b610b3f5760405162461bcd60e51b815260206004820152603860248201527f4552433732313a20617070726f76652063616c6c6572206973206e6f74206f7760448201527f6e6572206e6f7220617070726f76656420666f7220616c6c00000000000000006064820152608401610a13565b610b498383612117565b505050565b610b59335b82612185565b610b755760405162461bcd60e51b8152600401610a13906134de565b610b4983838361226f565b6000546001600160a01b03163314610baa5760405162461bcd60e51b8152600401610a139061352f565b610bb261241a565b565b610b4983838360405180602001604052806000815250611845565b610bd833610b53565b610c3d5760405162461bcd60e51b815260206004820152603060248201527f4552433732314275726e61626c653a2063616c6c6572206973206e6f74206f7760448201526f1b995c881b9bdc88185c1c1c9bdd995960821b6064820152608401610a13565b610c46816124ad565b50565b600080601760009054906101000a90046001600160a01b03166001600160a01b031663feaf968c6040518163ffffffff1660e01b815260040160a060405180830381865afa158015610c9f573d6000803e3d6000fd5b505050506040513d601f19601f82011682018060405250810190610cc3919061357e565b5050601454929450909250829169ffffffffffffffffffff808616600160401b9092041614905080610d2a57506014547f000000000000000000000000000000000000000000000000000000000000000090610d28906001600160401b0316436135e4565b105b15610d5d576014546040516321a9cb0560e01b81524360048201526001600160401b039091166024820152604401610a13565b6014805467ffffffffffffffff1916436001600160401b0316179055610d876305f5e10082613611565b6013805467ffffffffffffffff60a01b1916600160a01b6001600160401b039390931683021790819055600a5461ffff166000908152600c602090815260408083209490930463ffffffff16825292835281812080548351818602810186019094528084529193909190830182828015610e4c57602002820191906000526020600020906000905b82829054906101000a900463ffffffff1663ffffffff1681526020019060040190602082600301049283019260010382029150808411610e0f5790505b5050505050905060005b815181101561104c576000600e6000848481518110610e7757610e77613637565b60209081029190910181015163ffffffff1682528181019290925260409081016000908120600a5461ffff16825260118452828220601354600160a01b90046001600160401b03168352909352205460058201549192506001600160801b0390811691610eee91600160301b90910416606461364d565b610ef8919061367c565b610f03906001613696565b60058201805461ffff92909216600160201b0265ffff0000000019909216919091179055805463ffffffff166000908152600d6020526040808220805460ff1916600117905560165460195491516370a0823160e01b8152306004820152601f926001600160801b03909216916001600160a01b0316906370a0823190602401602060405180830381865afa158015610fa0573d6000803e3d6000fd5b505050506040513d601f19601f82011682018060405250810190610fc491906136c1565b610fce91906135e4565b610fd891906136da565b6005830154909150600160201b900461ffff16610ff66064836136da565b61100091906136ee565b8254600160201b90046001600160a01b03166000908152601260205260408120805490919061103090849061370d565b925050819055505050808061104490613725565b915050610e56565b506014805471ffffffffffffffffffff00000000000000001916600160401b69ffffffffffffffffffff871602179055600a5461108e9061ffff166001613740565b600a805461ffff191661ffff92909216919091179055505050505050565b600e6020526000908152604090208054600582015460068301805463ffffffff841694600160201b948590046001600160a01b03169461ffff8086169562010000810482169592810490911693600160301b9091046001600160801b0316929190611116906134a3565b80601f0160208091040260200160405190810160405280929190818152602001828054611142906134a3565b801561118f5780601f106111645761010080835404028352916020019161118f565b820191906000526020600020905b81548152906001019060200180831161117257829003601f168201915b5050505050905087565b6000546001600160a01b031633146111c35760405162461bcd60e51b8152600401610a139061352f565b6000816001600160a01b03164760405160006040518083038185875af1925050503d8060008114611210576040519150601f19603f3d011682016040523d82523d6000602084013e611215565b606091505b50509050806112585760405162461bcd60e51b815260206004820152600f60248201526e1d1c985b9cd9995c8819985a5b1959608a1b6044820152606401610a13565b5050565b6010602052816000526040600020818154811061127857600080fd5b9060005260206000209060089182820401919006600402915091509054906101000a900463ffffffff1681565b6000818152600460205260408120546001600160a01b0316806109135760405162461bcd60e51b815260206004820152602960248201527f4552433732313a206f776e657220717565727920666f72206e6f6e657869737460448201526832b73a103a37b5b2b760b91b6064820152608401610a13565b6014546000906060907f00000000000000000000000000000000000000000000000000000000000000009061135a906001600160401b0316436135e4565b1115611369576001915061136e565b600091505b9250929050565b60006001600160a01b0382166113e05760405162461bcd60e51b815260206004820152602a60248201527f4552433732313a2062616c616e636520717565727920666f7220746865207a65604482015269726f206164647265737360b01b6064820152608401610a13565b506001600160a01b031660009081526005602052604090205490565b6000546001600160a01b031633146114265760405162461bcd60e51b8152600401610a139061352f565b610bb260006124b6565b63ffffffff8181166000908152600e6020908152604080832081516101008101835281549586168152600160201b9095046001600160a01b03169285019290925280516103c0810180835293948594909392840191906001840190601e908288855b82829054906101000a900463ffffffff1663ffffffff168152602001906004019060208260030104928301926001038202915080841161149257505050928452505050600582015461ffff808216602084015262010000820481166040840152600160201b8204166060830152600160301b90046001600160801b0316608082015260068201805460a090920191611529906134a3565b80601f0160208091040260200160405190810160405280929190818152602001828054611555906134a3565b80156115a25780601f10611577576101008083540402835291602001916115a2565b820191906000526020600020905b81548152906001019060200180831161158557829003601f168201915b50505050508152505090506115b683610bcf565b601a5460185460c0830151604051631a4ca37b60e21b81526001600160a01b0392831660048201526001600160801b0390911660248201523360448201529116906369328dec90606401600060405180830381600087803b15801561161a57600080fd5b505af115801561162e573d6000803e3d6000fd5b5050336000908152601060205260409020546001141591506116ab905057336000908152600b60209081526040808320805460ff191690556010909152902080548061167c5761167c61375d565b600082815260209020600860001990920191820401805463ffffffff600460078516026101000a021916905590555b60c081015133600090815260156020526040812080546001600160801b03909316929091906116db9084906135e4565b909155506001949350505050565b6000546001600160a01b031633146117135760405162461bcd60e51b8152600401610a139061352f565b610bb2612506565b606060038054610928906134a3565b6001600160a01b0382163314156117835760405162461bcd60e51b815260206004820152601960248201527f4552433732313a20617070726f766520746f2063616c6c6572000000000000006044820152606401610a13565b3360008181526007602090815260408083206001600160a01b03871680855290835292819020805460ff191686151590811790915590519081529192917f17307eab39ab6107e8899845ad3d59bd9653f200f220920489ca2b5937696c31910160405180910390a35050565b600c602052826000526040600020602052816000526040600020818154811061181757600080fd5b906000526020600020906008918282040191900660040292509250509054906101000a900463ffffffff1681565b61184f3383612185565b61186b5760405162461bcd60e51b8152600401610a13906134de565b61187784848484612581565b50505050565b6060610913826125b4565b6000600260015414156118dd5760405162461bcd60e51b815260206004820152601f60248201527f5265656e7472616e637947756172643a207265656e7472616e742063616c6c006044820152606401610a13565b6002600155336000908152600f6020908152604080832061ffff88168452909152902054849060ff1680156119315760405163414e6ae560e11b815261ffff83166004820152336024820152604401610a13565b866001600160801b03167f00000000000000000000000000000000000000000000000000000000000000008110156119a5576040516382897b4160e01b8152600481018290527f00000000000000000000000000000000000000000000000000000000000000006024820152604401610a13565b6119ad612d44565b600a546000906119c29061ffff166001613740565b6040805161010081018252600a5462010000900463ffffffff1681523360208201529081018d905261ffff8216606082015290915060808101611a058b84613740565b61ffff168152602001600061ffff1681526020018b6001600160801b0316815260200189898080601f01602080910402602001604051908101604052809392919081815260200183838082843760009201829052509390945250506018546040516370a0823160e01b815230600482015293955090926001600160a01b0390911691506370a0823190602401602060405180830381865afa158015611aae573d6000803e3d6000fd5b505050506040513d601f19601f82011682018060405250810190611ad291906136c1565b90508260c001516001600160801b0316811015611aee57600080fd5b601a5460185460c085015160405163e8eda9df60e01b81526001600160a01b0392831660048201526001600160801b0390911660248201523060448201526000606482015291169063e8eda9df90608401600060405180830381600087803b158015611b5957600080fd5b505af1158015611b6d573d6000803e3d6000fd5b505033600090815260106020908152604080832088518154600181810184559286528486206008820401805463ffffffff93841660046007909416939093026101000a9283029284021916919091179055895181168552600e84529382902089518154948b01516001600160a01b0316600160201b026001600160c01b0319909516951694909417929092178355870151879450919250611c139190830190601e612d8f565b506060820151600582018054608085015160a086015160c08701516001600160801b0316600160301b0275ffffffffffffffffffffffffffffffff0000000000001961ffff928316600160201b021675ffffffffffffffffffffffffffffffffffff0000000019938316620100000263ffffffff19909516929096169190911792909217169290921791909117905560e08201518051611cbd916006840191602090910190612e2b565b5050336000818152600f60209081526040808320608089015161ffff1684528252808320805460ff19166001179055928252600b9052205460ff169050611d1957336000908152600b60205260409020805460ff191660011790555b60005b601e61ffff82161015611e9757600c6000828660600151611d3d9190613740565b61ffff1661ffff168152602001908152602001600020600085604001518361ffff16601e8110611d6f57611d6f613637565b6020908102919091015163ffffffff90811683528282019390935260409091016000908120600a5481546001810183559183529282206008820401805460079092166004026101000a8086021990921662010000909404909416029190911790915560c085015160608601519091601191611deb908590613740565b61ffff1661ffff168152602001908152602001600020600086604001518461ffff16601e8110611e1d57611e1d613637565b602002015163ffffffff166001600160401b0316815260200190815260200160002060008282829054906101000a90046001600160801b0316611e609190613696565b92506101000a8154816001600160801b0302191690836001600160801b031602179055508080611e8f90613773565b915050611d1c565b5060c083015160168054600090611eb89084906001600160801b0316613696565b92506101000a8154816001600160801b0302191690836001600160801b031602179055508260c001516001600160801b031660156000336001600160a01b03166001600160a01b031681526020019081526020016000206000828254611f1e919061370d565b9091555050600a54611f3d90339062010000900463ffffffff16612723565b600a5460e0840151611f5b9162010000900463ffffffff169061272d565b600a543390611f759062010000900463ffffffff166112a5565b6001600160a01b031614611fc05760405162461bcd60e51b8152602060048201526012602482015271135a5b9d08155b9b9cdd58d8d95cdcd99d5b60721b6044820152606401610a13565b600a54611fda9062010000900463ffffffff166001613795565b600a805463ffffffff92909216620100000265ffffffff000019909216919091179055505060018080559a9950505050505050505050565b6000546001600160a01b0316331461203c5760405162461bcd60e51b8152600401610a139061352f565b6001600160a01b0381166120a15760405162461bcd60e51b815260206004820152602660248201527f4f776e61626c653a206e6577206f776e657220697320746865207a65726f206160448201526564647265737360d01b6064820152608401610a13565b610c46816124b6565b60006001600160e01b031982166380ac58cd60e01b14806120db57506001600160e01b03198216635b5e139f60e01b145b8061091357506301ffc9a760e01b6001600160e01b0319831614610913565b6000908152600460205260409020546001600160a01b0316151590565b600081815260066020526040902080546001600160a01b0319166001600160a01b038416908117909155819061214c826112a5565b6001600160a01b03167f8c5be1e5ebec7d5bd14f71427d1e84f3dd0314c0f7b2291e5b200ac8c7c3b92560405160405180910390a45050565b6000612190826120fa565b6121f15760405162461bcd60e51b815260206004820152602c60248201527f4552433732313a206f70657261746f7220717565727920666f72206e6f6e657860448201526b34b9ba32b73a103a37b5b2b760a11b6064820152608401610a13565b60006121fc836112a5565b9050806001600160a01b0316846001600160a01b031614806122375750836001600160a01b031661222c846109ab565b6001600160a01b0316145b8061226757506001600160a01b0380821660009081526007602090815260408083209388168352929052205460ff165b949350505050565b826001600160a01b0316612282826112a5565b6001600160a01b0316146122ea5760405162461bcd60e51b815260206004820152602960248201527f4552433732313a207472616e73666572206f6620746f6b656e2074686174206960448201526839903737ba1037bbb760b91b6064820152608401610a13565b6001600160a01b03821661234c5760405162461bcd60e51b8152602060048201526024808201527f4552433732313a207472616e7366657220746f20746865207a65726f206164646044820152637265737360e01b6064820152608401610a13565b6123578383836127b8565b612362600082612117565b6001600160a01b038316600090815260056020526040812080546001929061238b9084906135e4565b90915550506001600160a01b03821660009081526005602052604081208054600192906123b990849061370d565b909155505060008181526004602052604080822080546001600160a01b0319166001600160a01b0386811691821790925591518493918716917fddf252ad1be2c89b69c2b068fc378daa952ba7f163c4a11628f55a4df523b3ef91a4505050565b60085460ff166124635760405162461bcd60e51b815260206004820152601460248201527314185d5cd8589b194e881b9bdd081c185d5cd95960621b6044820152606401610a13565b6008805460ff191690557f5db9ee0a495bf2e6ff9c91a7834c1ba4fdd244a5e8aa4e537bd38aeae4b073aa335b6040516001600160a01b03909116815260200160405180910390a1565b610c46816127fe565b600080546001600160a01b038381166001600160a01b0319831681178455604051919092169283917f8be0079c531659141344cd1fd0a4f28419497f9722a3daafe3b4186f6b6457e09190a35050565b60085460ff161561254c5760405162461bcd60e51b815260206004820152601060248201526f14185d5cd8589b194e881c185d5cd95960821b6044820152606401610a13565b6008805460ff191660011790557f62e78cea01bee320cd4e420270b5ea74000d11b0c9f74754ebdbfc544b05a2586124903390565b61258c84848461226f565b6125988484848461283e565b6118775760405162461bcd60e51b8152600401610a13906137b4565b60606125bf826120fa565b6126255760405162461bcd60e51b815260206004820152603160248201527f45524337323155524953746f726167653a2055524920717565727920666f72206044820152703737b732bc34b9ba32b73a103a37b5b2b760791b6064820152608401610a13565b6000828152600960205260408120805461263e906134a3565b80601f016020809104026020016040519081016040528092919081815260200182805461266a906134a3565b80156126b75780601f1061268c576101008083540402835291602001916126b7565b820191906000526020600020905b81548152906001019060200180831161269a57829003601f168201915b5050505050905060006126d560408051602081019091526000815290565b90508051600014156126e8575092915050565b81511561271a578082604051602001612702929190613806565b60405160208183030381529060405292505050919050565b6122678461293c565b6112588282612a14565b612736826120fa565b6127995760405162461bcd60e51b815260206004820152602e60248201527f45524337323155524953746f726167653a2055524920736574206f66206e6f6e60448201526d32bc34b9ba32b73a103a37b5b2b760911b6064820152608401610a13565b60008281526009602090815260409091208251610b4992840190612e2b565b60085460ff1615610b495760405162461bcd60e51b815260206004820152601060248201526f14185d5cd8589b194e881c185d5cd95960821b6044820152606401610a13565b61280781612a2e565b60008181526009602052604090208054612820906134a3565b159050610c46576000818152600960205260408120610c4691612e9f565b60006001600160a01b0384163b1561293157604051630a85bd0160e11b81526001600160a01b0385169063150b7a029061288290339089908890889060040161382c565b6020604051808303816000875af19250505080156128bd575060408051601f3d908101601f191682019092526128ba91810190613869565b60015b612917573d8080156128eb576040519150601f19603f3d011682016040523d82523d6000602084013e6128f0565b606091505b50805161290f5760405162461bcd60e51b8152600401610a13906137b4565b805181602001fd5b6001600160e01b031916630a85bd0160e11b149050612267565b506001949350505050565b6060612947826120fa565b6129ab5760405162461bcd60e51b815260206004820152602f60248201527f4552433732314d657461646174613a2055524920717565727920666f72206e6f60448201526e3732bc34b9ba32b73a103a37b5b2b760891b6064820152608401610a13565b60006129c260408051602081019091526000815290565b905060008151116129e25760405180602001604052806000815250612a0d565b806129ec84612ad5565b6040516020016129fd929190613806565b6040516020818303038152906040525b9392505050565b611258828260405180602001604052806000815250612bd2565b6000612a39826112a5565b9050612a47816000846127b8565b612a52600083612117565b6001600160a01b0381166000908152600560205260408120805460019290612a7b9084906135e4565b909155505060008281526004602052604080822080546001600160a01b0319169055518391906001600160a01b038416907fddf252ad1be2c89b69c2b068fc378daa952ba7f163c4a11628f55a4df523b3ef908390a45050565b606081612af95750506040805180820190915260018152600360fc1b602082015290565b8160005b8115612b235780612b0d81613725565b9150612b1c9050600a836136da565b9150612afd565b6000816001600160401b03811115612b3d57612b3d61320d565b6040519080825280601f01601f191660200182016040528015612b67576020820181803683370190505b5090505b841561226757612b7c6001836135e4565b9150612b89600a86613886565b612b9490603061370d565b60f81b818381518110612ba957612ba9613637565b60200101906001600160f81b031916908160001a905350612bcb600a866136da565b9450612b6b565b612bdc8383612c05565b612be9600084848461283e565b610b495760405162461bcd60e51b8152600401610a13906137b4565b6001600160a01b038216612c5b5760405162461bcd60e51b815260206004820181905260248201527f4552433732313a206d696e7420746f20746865207a65726f20616464726573736044820152606401610a13565b612c64816120fa565b15612cb15760405162461bcd60e51b815260206004820152601c60248201527f4552433732313a20746f6b656e20616c7265616479206d696e746564000000006044820152606401610a13565b612cbd600083836127b8565b6001600160a01b0382166000908152600560205260408120805460019290612ce690849061370d565b909155505060008181526004602052604080822080546001600160a01b0319166001600160a01b03861690811790915590518392907fddf252ad1be2c89b69c2b068fc378daa952ba7f163c4a11628f55a4df523b3ef908290a45050565b604080516101008101825260008082526020820152908101612d64612ed9565b8152600060208201819052604082018190526060808301829052608083019190915260a09091015290565b600483019183908215612e1b5791602002820160005b83821115612de957835183826101000a81548163ffffffff021916908363ffffffff1602179055509260200192600401602081600301049283019260010302612da5565b8015612e195782816101000a81549063ffffffff0219169055600401602081600301049283019260010302612de9565b505b50612e27929150612ef8565b5090565b828054612e37906134a3565b90600052602060002090601f016020900481019282612e595760008555612e1b565b82601f10612e7257805160ff1916838001178555612e1b565b82800160010185558215612e1b579182015b82811115612e1b578251825591602001919060010190612e84565b508054612eab906134a3565b6000825580601f10612ebb575050565b601f016020900490600052602060002090810190610c469190612ef8565b604051806103c00160405280601e906020820280368337509192915050565b5b80821115612e275760008155600101612ef9565b6001600160e01b031981168114610c4657600080fd5b600060208284031215612f3557600080fd5b8135612a0d81612f0d565b60005b83811015612f5b578181015183820152602001612f43565b838111156118775750506000910152565b60008151808452612f84816020860160208601612f40565b601f01601f19169290920160200192915050565b602081526000612a0d6020830184612f6c565b600060208284031215612fbd57600080fd5b5035919050565b80356001600160a01b0381168114612fdb57600080fd5b919050565b60008060408385031215612ff357600080fd5b612ffc83612fc4565b946020939093013593505050565b60008060006060848603121561301f57600080fd5b61302884612fc4565b925061303660208501612fc4565b9150604084013590509250925092565b60008083601f84011261305857600080fd5b5081356001600160401b0381111561306f57600080fd5b60208301915083602082850101111561136e57600080fd5b6000806020838503121561309a57600080fd5b82356001600160401b038111156130b057600080fd5b6130bc85828601613046565b90969095509350505050565b803563ffffffff81168114612fdb57600080fd5b6000602082840312156130ee57600080fd5b612a0d826130c8565b63ffffffff881681526001600160a01b038716602082015261ffff86811660408301528581166060830152841660808201526001600160801b03831660a082015260e060c0820181905260009061315090830184612f6c565b9998505050505050505050565b60006020828403121561316f57600080fd5b612a0d82612fc4565b82151581526040602082015260006122676040830184612f6c565b600080604083850312156131a657600080fd5b6131af83612fc4565b9150602083013580151581146131c457600080fd5b809150509250929050565b803561ffff81168114612fdb57600080fd5b6000806000606084860312156131f657600080fd5b6131ff846131cf565b9250613036602085016130c8565b634e487b7160e01b600052604160045260246000fd5b6040516103c081016001600160401b03811182821017156132465761324661320d565b60405290565b604051601f8201601f191681016001600160401b03811182821017156132745761327461320d565b604052919050565b6000806000806080858703121561329257600080fd5b61329b85612fc4565b935060206132aa818701612fc4565b93506040860135925060608601356001600160401b03808211156132cd57600080fd5b818801915088601f8301126132e157600080fd5b8135818111156132f3576132f361320d565b613305601f8201601f1916850161324c565b9150808252898482850101111561331b57600080fd5b808484018584013760008482840101525080935050505092959194509250565b6000806040838503121561334e57600080fd5b613357836131cf565b915060208301356001600160401b03811681146131c457600080fd5b80356001600160801b0381168114612fdb57600080fd5b600080600080600061042086880312156133a357600080fd5b86601f8701126133b257600080fd5b6133ba613223565b806103c08801898111156133cd57600080fd5b885b818110156133ee576133e0816130c8565b8452602093840193016133cf565b508197506133fb81613373565b965050505061340d6103e087016131cf565b92506104008601356001600160401b0381111561342957600080fd5b61343588828901613046565b969995985093965092949392505050565b6000806040838503121561345957600080fd5b61346283612fc4565b915061347060208401612fc4565b90509250929050565b6000806040838503121561348c57600080fd5b61349583612fc4565b9150613470602084016131cf565b600181811c908216806134b757607f821691505b602082108114156134d857634e487b7160e01b600052602260045260246000fd5b50919050565b60208082526031908201527f4552433732313a207472616e736665722063616c6c6572206973206e6f74206f6040820152701ddb995c881b9bdc88185c1c1c9bdd9959607a1b606082015260800190565b6020808252818101527f4f776e61626c653a2063616c6c6572206973206e6f7420746865206f776e6572604082015260600190565b805169ffffffffffffffffffff81168114612fdb57600080fd5b600080600080600060a0868803121561359657600080fd5b61359f86613564565b94506020860151935060408601519250606086015191506135c260808701613564565b90509295509295909350565b634e487b7160e01b600052601160045260246000fd5b6000828210156135f6576135f66135ce565b500390565b634e487b7160e01b600052601260045260246000fd5b60006001600160401b038084168061362b5761362b6135fb565b92169190910492915050565b634e487b7160e01b600052603260045260246000fd5b60006001600160801b0380831681851681830481118215151615613673576136736135ce565b02949350505050565b60006001600160801b038084168061362b5761362b6135fb565b60006001600160801b038083168185168083038211156136b8576136b86135ce565b01949350505050565b6000602082840312156136d357600080fd5b5051919050565b6000826136e9576136e96135fb565b500490565b6000816000190483118215151615613708576137086135ce565b500290565b60008219821115613720576137206135ce565b500190565b6000600019821415613739576137396135ce565b5060010190565b600061ffff8083168185168083038211156136b8576136b86135ce565b634e487b7160e01b600052603160045260246000fd5b600061ffff8083168181141561378b5761378b6135ce565b6001019392505050565b600063ffffffff8083168185168083038211156136b8576136b86135ce565b60208082526032908201527f4552433732313a207472616e7366657220746f206e6f6e20455243373231526560408201527131b2b4bb32b91034b6b83632b6b2b73a32b960711b606082015260800190565b60008351613818818460208801612f40565b8351908301906136b8818360208801612f40565b6001600160a01b038581168252841660208201526040810183905260806060820181905260009061385f90830184612f6c565b9695505050505050565b60006020828403121561387b57600080fd5b8151612a0d81612f0d565b600082613895576138956135fb565b50069056fea26469706673582212206e3182bf598d5e491b08046cf4618b29315bf8851d02bc0c5910c69b3a4d887464736f6c634300080a0033",
    "sourcePath": "/home/pbdesk2/Desktop/github/slyDeFi_truffle/contracts/SlyDeFi.sol",
    "compiler": {
        "name": "solc",
        "version": "0.8.10+commit.fc410830"
    },
    "functionHashes": {
        "aToken()": "a0c1f15e",
        "aaveLendingPool()": "e9d337b8",
        "approve(address,uint256)": "095ea7b3",
        "balanceOf(address)": "70a08231",
        "burn(uint256)": "42966c68",
        "burnToken(uint256)": "7b47ec1a",
        "checkUpkeep(bytes)": "6e04ff0d",
        "clETHUSD()": "d81639f8",
        "dai()": "f4b9fa75",
        "day()": "7b76ac91",
        "dayPriceGetPositions(uint16,uint32,uint256)": "aef94ae9",
        "dayPriceTVL(uint16,uint64)": "d32b7493",
        "getApproved(uint256)": "081812fc",
        "getPositionById(uint32)": "498f4dc1",
        "isActive(address)": "9f8a13d7",
        "isApprovedForAll(address,address)": "e985e9c5",
        "isPositionInWinArray(uint32)": "6059684b",
        "isUserActive(address)": "9ee20b15",
        "lastETHPrice()": "d0c80566",
        "name()": "06fdde03",
        "owner()": "8da5cb5b",
        "ownerOf(uint256)": "6352211e",
        "pause()": "8456cb59",
        "paused()": "5c975abb",
        "performUpkeep(bytes)": "4585e33b",
        "posId()": "f5d13da0",
        "renounceOwnership()": "715018a6",
        "safeTransferFrom(address,address,uint256)": "42842e0e",
        "safeTransferFrom(address,address,uint256,bytes)": "b88d4fde",
        "setApprovalForAll(address,bool)": "a22cb465",
        "submitPosition(uint32[30],uint128,uint16,string)": "e5790d72",
        "supportsInterface(bytes4)": "01ffc9a7",
        "symbol()": "95d89b41",
        "tokenURI(uint256)": "c87b56dd",
        "totalDepositedDai()": "d1c22c3b",
        "transferFrom(address,address,uint256)": "23b872dd",
        "transferOwnership(address)": "f2fde38b",
        "unpause()": "3f4ba83a",
        "userDepositedDai(address)": "bad9e092",
        "userHasTimeEndPosition(address,uint16)": "f9ebbb81",
        "userPositions(address,uint256)": "5e1b4d99",
        "userWinnings(address)": "a815a4d4",
        "withdraw(address)": "51cff8d9"
    },
    "gasEstimates": {
        "creation": {
            "codeDepositCost": "2908800",
            "executionCost": "infinite",
            "totalCost": "infinite"
        },
        "external": {
            "": "269",
            "aToken()": "2471",
            "aaveLendingPool()": "2403",
            "approve(address,uint256)": "infinite",
            "balanceOf(address)": "2656",
            "burn(uint256)": "infinite",
            "burnToken(uint256)": "infinite",
            "checkUpkeep(bytes)": "infinite",
            "clETHUSD()": "2448",
            "dai()": "2447",
            "day()": "2446",
            "dayPriceGetPositions(uint16,uint32,uint256)": "infinite",
            "dayPriceTVL(uint16,uint64)": "2779",
            "getApproved(uint256)": "4822",
            "getPositionById(uint32)": "infinite",
            "isActive(address)": "2632",
            "isApprovedForAll(address,address)": "infinite",
            "isPositionInWinArray(uint32)": "2620",
            "isUserActive(address)": "2628",
            "lastETHPrice()": "2399",
            "name()": "infinite",
            "owner()": "2377",
            "ownerOf(uint256)": "2690",
            "pause()": "29905",
            "paused()": "2361",
            "performUpkeep(bytes)": "infinite",
            "posId()": "2456",
            "renounceOwnership()": "28203",
            "safeTransferFrom(address,address,uint256)": "infinite",
            "safeTransferFrom(address,address,uint256,bytes)": "infinite",
            "setApprovalForAll(address,bool)": "26673",
            "submitPosition(uint32[30],uint128,uint16,string)": "infinite",
            "supportsInterface(bytes4)": "infinite",
            "symbol()": "infinite",
            "tokenURI(uint256)": "infinite",
            "totalDepositedDai()": "2404",
            "transferFrom(address,address,uint256)": "infinite",
            "transferOwnership(address)": "28397",
            "unpause()": "29773",
            "userDepositedDai(address)": "2652",
            "userHasTimeEndPosition(address,uint16)": "infinite",
            "userPositions(address,uint256)": "6510",
            "userWinnings(address)": "2586",
            "withdraw(address)": "infinite"
        },
        "internal": {
            "_beforeTokenTransfer(address,address,uint256)": "infinite",
            "_burn(uint256)": "infinite",
            "safeMint(address,uint256)": "infinite"
        }
    }
}