{
  "contractName": "SlyDeFi",
  "abi": [
    {
      "inputs": [
        {
          "internalType": "address",
          "name": "_clETHUSD",
          "type": "address"
        },
        {
          "internalType": "uint256",
          "name": "_minvalue",
          "type": "uint256"
        }
      ],
      "stateMutability": "nonpayable",
      "type": "constructor"
    },
    {
      "anonymous": false,
      "inputs": [
        {
          "indexed": true,
          "internalType": "address",
          "name": "owner",
          "type": "address"
        },
        {
          "indexed": true,
          "internalType": "address",
          "name": "approved",
          "type": "address"
        },
        {
          "indexed": true,
          "internalType": "uint256",
          "name": "tokenId",
          "type": "uint256"
        }
      ],
      "name": "Approval",
      "type": "event"
    },
    {
      "anonymous": false,
      "inputs": [
        {
          "indexed": true,
          "internalType": "address",
          "name": "owner",
          "type": "address"
        },
        {
          "indexed": true,
          "internalType": "address",
          "name": "operator",
          "type": "address"
        },
        {
          "indexed": false,
          "internalType": "bool",
          "name": "approved",
          "type": "bool"
        }
      ],
      "name": "ApprovalForAll",
      "type": "event"
    },
    {
      "anonymous": false,
      "inputs": [
        {
          "indexed": true,
          "internalType": "address",
          "name": "previousOwner",
          "type": "address"
        },
        {
          "indexed": true,
          "internalType": "address",
          "name": "newOwner",
          "type": "address"
        }
      ],
      "name": "OwnershipTransferred",
      "type": "event"
    },
    {
      "anonymous": false,
      "inputs": [
        {
          "indexed": false,
          "internalType": "address",
          "name": "account",
          "type": "address"
        }
      ],
      "name": "Paused",
      "type": "event"
    },
    {
      "anonymous": false,
      "inputs": [
        {
          "indexed": true,
          "internalType": "address",
          "name": "from",
          "type": "address"
        },
        {
          "indexed": true,
          "internalType": "address",
          "name": "to",
          "type": "address"
        },
        {
          "indexed": true,
          "internalType": "uint256",
          "name": "tokenId",
          "type": "uint256"
        }
      ],
      "name": "Transfer",
      "type": "event"
    },
    {
      "anonymous": false,
      "inputs": [
        {
          "indexed": false,
          "internalType": "address",
          "name": "account",
          "type": "address"
        }
      ],
      "name": "Unpaused",
      "type": "event"
    },
    {
      "stateMutability": "nonpayable",
      "type": "fallback"
    },
    {
      "inputs": [],
      "name": "MINVALUE",
      "outputs": [
        {
          "internalType": "uint256",
          "name": "",
          "type": "uint256"
        }
      ],
      "stateMutability": "view",
      "type": "function",
      "constant": true
    },
    {
      "inputs": [],
      "name": "aToken",
      "outputs": [
        {
          "internalType": "contract IaToken",
          "name": "",
          "type": "address"
        }
      ],
      "stateMutability": "view",
      "type": "function",
      "constant": true
    },
    {
      "inputs": [],
      "name": "aaveLendingPool",
      "outputs": [
        {
          "internalType": "contract IAaveLendingPool",
          "name": "",
          "type": "address"
        }
      ],
      "stateMutability": "view",
      "type": "function",
      "constant": true
    },
    {
      "inputs": [
        {
          "internalType": "address",
          "name": "to",
          "type": "address"
        },
        {
          "internalType": "uint256",
          "name": "tokenId",
          "type": "uint256"
        }
      ],
      "name": "approve",
      "outputs": [],
      "stateMutability": "nonpayable",
      "type": "function"
    },
    {
      "inputs": [
        {
          "internalType": "address",
          "name": "owner",
          "type": "address"
        }
      ],
      "name": "balanceOf",
      "outputs": [
        {
          "internalType": "uint256",
          "name": "",
          "type": "uint256"
        }
      ],
      "stateMutability": "view",
      "type": "function",
      "constant": true
    },
    {
      "inputs": [
        {
          "internalType": "uint256",
          "name": "tokenId",
          "type": "uint256"
        }
      ],
      "name": "burn",
      "outputs": [],
      "stateMutability": "nonpayable",
      "type": "function"
    },
    {
      "inputs": [],
      "name": "clETHUSD",
      "outputs": [
        {
          "internalType": "address",
          "name": "",
          "type": "address"
        }
      ],
      "stateMutability": "view",
      "type": "function",
      "constant": true
    },
    {
      "inputs": [],
      "name": "dai",
      "outputs": [
        {
          "internalType": "contract IERC20",
          "name": "",
          "type": "address"
        }
      ],
      "stateMutability": "view",
      "type": "function",
      "constant": true
    },
    {
      "inputs": [],
      "name": "day",
      "outputs": [
        {
          "internalType": "uint16",
          "name": "",
          "type": "uint16"
        }
      ],
      "stateMutability": "view",
      "type": "function",
      "constant": true
    },
    {
      "inputs": [
        {
          "internalType": "uint16",
          "name": "",
          "type": "uint16"
        },
        {
          "internalType": "uint32",
          "name": "",
          "type": "uint32"
        },
        {
          "internalType": "uint256",
          "name": "",
          "type": "uint256"
        }
      ],
      "name": "dayPriceGetPositions",
      "outputs": [
        {
          "internalType": "uint32",
          "name": "",
          "type": "uint32"
        }
      ],
      "stateMutability": "view",
      "type": "function",
      "constant": true
    },
    {
      "inputs": [
        {
          "internalType": "uint16",
          "name": "",
          "type": "uint16"
        },
        {
          "internalType": "uint64",
          "name": "",
          "type": "uint64"
        }
      ],
      "name": "dayPriceTVL",
      "outputs": [
        {
          "internalType": "uint128",
          "name": "",
          "type": "uint128"
        }
      ],
      "stateMutability": "view",
      "type": "function",
      "constant": true
    },
    {
      "inputs": [
        {
          "internalType": "uint256",
          "name": "tokenId",
          "type": "uint256"
        }
      ],
      "name": "getApproved",
      "outputs": [
        {
          "internalType": "address",
          "name": "",
          "type": "address"
        }
      ],
      "stateMutability": "view",
      "type": "function",
      "constant": true
    },
    {
      "inputs": [
        {
          "internalType": "uint32",
          "name": "",
          "type": "uint32"
        }
      ],
      "name": "getPositionById",
      "outputs": [
        {
          "internalType": "uint32",
          "name": "id",
          "type": "uint32"
        },
        {
          "internalType": "address",
          "name": "owner",
          "type": "address"
        },
        {
          "internalType": "uint16",
          "name": "start",
          "type": "uint16"
        },
        {
          "internalType": "uint16",
          "name": "end",
          "type": "uint16"
        },
        {
          "internalType": "uint16",
          "name": "shares",
          "type": "uint16"
        },
        {
          "internalType": "bool",
          "name": "isMinted",
          "type": "bool"
        },
        {
          "internalType": "uint128",
          "name": "baseValue",
          "type": "uint128"
        },
        {
          "internalType": "string",
          "name": "imghash",
          "type": "string"
        }
      ],
      "stateMutability": "view",
      "type": "function",
      "constant": true
    },
    {
      "inputs": [
        {
          "internalType": "address",
          "name": "",
          "type": "address"
        }
      ],
      "name": "isActive",
      "outputs": [
        {
          "internalType": "bool",
          "name": "",
          "type": "bool"
        }
      ],
      "stateMutability": "view",
      "type": "function",
      "constant": true
    },
    {
      "inputs": [
        {
          "internalType": "address",
          "name": "owner",
          "type": "address"
        },
        {
          "internalType": "address",
          "name": "operator",
          "type": "address"
        }
      ],
      "name": "isApprovedForAll",
      "outputs": [
        {
          "internalType": "bool",
          "name": "",
          "type": "bool"
        }
      ],
      "stateMutability": "view",
      "type": "function",
      "constant": true
    },
    {
      "inputs": [
        {
          "internalType": "uint32",
          "name": "",
          "type": "uint32"
        }
      ],
      "name": "isPositionInWinArray",
      "outputs": [
        {
          "internalType": "bool",
          "name": "",
          "type": "bool"
        }
      ],
      "stateMutability": "view",
      "type": "function",
      "constant": true
    },
    {
      "inputs": [],
      "name": "lastETHPrice",
      "outputs": [
        {
          "internalType": "uint64",
          "name": "",
          "type": "uint64"
        }
      ],
      "stateMutability": "view",
      "type": "function",
      "constant": true
    },
    {
      "inputs": [],
      "name": "name",
      "outputs": [
        {
          "internalType": "string",
          "name": "",
          "type": "string"
        }
      ],
      "stateMutability": "view",
      "type": "function",
      "constant": true
    },
    {
      "inputs": [
        {
          "internalType": "address",
          "name": "",
          "type": "address"
        }
      ],
      "name": "orphanPosition",
      "outputs": [
        {
          "internalType": "uint32",
          "name": "id",
          "type": "uint32"
        },
        {
          "internalType": "address",
          "name": "owner",
          "type": "address"
        },
        {
          "internalType": "uint16",
          "name": "start",
          "type": "uint16"
        },
        {
          "internalType": "uint16",
          "name": "end",
          "type": "uint16"
        },
        {
          "internalType": "uint16",
          "name": "shares",
          "type": "uint16"
        },
        {
          "internalType": "bool",
          "name": "isMinted",
          "type": "bool"
        },
        {
          "internalType": "uint128",
          "name": "baseValue",
          "type": "uint128"
        },
        {
          "internalType": "string",
          "name": "imghash",
          "type": "string"
        }
      ],
      "stateMutability": "view",
      "type": "function",
      "constant": true
    },
    {
      "inputs": [],
      "name": "owner",
      "outputs": [
        {
          "internalType": "address",
          "name": "",
          "type": "address"
        }
      ],
      "stateMutability": "view",
      "type": "function",
      "constant": true
    },
    {
      "inputs": [
        {
          "internalType": "uint256",
          "name": "tokenId",
          "type": "uint256"
        }
      ],
      "name": "ownerOf",
      "outputs": [
        {
          "internalType": "address",
          "name": "",
          "type": "address"
        }
      ],
      "stateMutability": "view",
      "type": "function",
      "constant": true
    },
    {
      "inputs": [],
      "name": "paused",
      "outputs": [
        {
          "internalType": "bool",
          "name": "",
          "type": "bool"
        }
      ],
      "stateMutability": "view",
      "type": "function",
      "constant": true
    },
    {
      "inputs": [],
      "name": "posId",
      "outputs": [
        {
          "internalType": "uint32",
          "name": "",
          "type": "uint32"
        }
      ],
      "stateMutability": "view",
      "type": "function",
      "constant": true
    },
    {
      "inputs": [],
      "name": "renounceOwnership",
      "outputs": [],
      "stateMutability": "nonpayable",
      "type": "function"
    },
    {
      "inputs": [
        {
          "internalType": "address",
          "name": "from",
          "type": "address"
        },
        {
          "internalType": "address",
          "name": "to",
          "type": "address"
        },
        {
          "internalType": "uint256",
          "name": "tokenId",
          "type": "uint256"
        }
      ],
      "name": "safeTransferFrom",
      "outputs": [],
      "stateMutability": "nonpayable",
      "type": "function"
    },
    {
      "inputs": [
        {
          "internalType": "address",
          "name": "from",
          "type": "address"
        },
        {
          "internalType": "address",
          "name": "to",
          "type": "address"
        },
        {
          "internalType": "uint256",
          "name": "tokenId",
          "type": "uint256"
        },
        {
          "internalType": "bytes",
          "name": "_data",
          "type": "bytes"
        }
      ],
      "name": "safeTransferFrom",
      "outputs": [],
      "stateMutability": "nonpayable",
      "type": "function"
    },
    {
      "inputs": [
        {
          "internalType": "address",
          "name": "operator",
          "type": "address"
        },
        {
          "internalType": "bool",
          "name": "approved",
          "type": "bool"
        }
      ],
      "name": "setApprovalForAll",
      "outputs": [],
      "stateMutability": "nonpayable",
      "type": "function"
    },
    {
      "inputs": [],
      "name": "symbol",
      "outputs": [
        {
          "internalType": "string",
          "name": "",
          "type": "string"
        }
      ],
      "stateMutability": "view",
      "type": "function",
      "constant": true
    },
    {
      "inputs": [],
      "name": "totalDepositedDai",
      "outputs": [
        {
          "internalType": "uint128",
          "name": "",
          "type": "uint128"
        }
      ],
      "stateMutability": "view",
      "type": "function",
      "constant": true
    },
    {
      "inputs": [
        {
          "internalType": "address",
          "name": "from",
          "type": "address"
        },
        {
          "internalType": "address",
          "name": "to",
          "type": "address"
        },
        {
          "internalType": "uint256",
          "name": "tokenId",
          "type": "uint256"
        }
      ],
      "name": "transferFrom",
      "outputs": [],
      "stateMutability": "nonpayable",
      "type": "function"
    },
    {
      "inputs": [
        {
          "internalType": "address",
          "name": "newOwner",
          "type": "address"
        }
      ],
      "name": "transferOwnership",
      "outputs": [],
      "stateMutability": "nonpayable",
      "type": "function"
    },
    {
      "inputs": [
        {
          "internalType": "address",
          "name": "",
          "type": "address"
        }
      ],
      "name": "userDepositedDai",
      "outputs": [
        {
          "internalType": "uint256",
          "name": "",
          "type": "uint256"
        }
      ],
      "stateMutability": "view",
      "type": "function",
      "constant": true
    },
    {
      "inputs": [
        {
          "internalType": "address",
          "name": "",
          "type": "address"
        },
        {
          "internalType": "uint16",
          "name": "",
          "type": "uint16"
        }
      ],
      "name": "userHasTimeEndPosition",
      "outputs": [
        {
          "internalType": "bool",
          "name": "",
          "type": "bool"
        }
      ],
      "stateMutability": "view",
      "type": "function",
      "constant": true
    },
    {
      "inputs": [
        {
          "internalType": "address",
          "name": "",
          "type": "address"
        },
        {
          "internalType": "uint256",
          "name": "",
          "type": "uint256"
        }
      ],
      "name": "userPositions",
      "outputs": [
        {
          "internalType": "uint32",
          "name": "",
          "type": "uint32"
        }
      ],
      "stateMutability": "view",
      "type": "function",
      "constant": true
    },
    {
      "inputs": [
        {
          "internalType": "address",
          "name": "",
          "type": "address"
        }
      ],
      "name": "userWinnings",
      "outputs": [
        {
          "internalType": "uint256",
          "name": "",
          "type": "uint256"
        }
      ],
      "stateMutability": "view",
      "type": "function",
      "constant": true
    },
    {
      "stateMutability": "payable",
      "type": "receive",
      "payable": true
    },
    {
      "inputs": [
        {
          "internalType": "uint32[30]",
          "name": "_graph",
          "type": "uint32[30]"
        },
        {
          "internalType": "uint128",
          "name": "_value",
          "type": "uint128"
        },
        {
          "internalType": "uint16",
          "name": "_end",
          "type": "uint16"
        },
        {
          "internalType": "string",
          "name": "_imghash",
          "type": "string"
        }
      ],
      "name": "submitPosition",
      "outputs": [
        {
          "internalType": "bool",
          "name": "",
          "type": "bool"
        }
      ],
      "stateMutability": "payable",
      "type": "function",
      "payable": true
    },
    {
      "inputs": [
        {
          "internalType": "uint256",
          "name": "_amountInDai",
          "type": "uint256"
        }
      ],
      "name": "userWithdrawDai",
      "outputs": [],
      "stateMutability": "nonpayable",
      "type": "function"
    },
    {
      "inputs": [
        {
          "internalType": "address",
          "name": "_beneficiary",
          "type": "address"
        }
      ],
      "name": "withdraw",
      "outputs": [],
      "stateMutability": "nonpayable",
      "type": "function"
    },
    {
      "inputs": [],
      "name": "pokeOfTheDay",
      "outputs": [],
      "stateMutability": "nonpayable",
      "type": "function"
    },
    {
      "inputs": [],
      "name": "pause",
      "outputs": [],
      "stateMutability": "nonpayable",
      "type": "function"
    },
    {
      "inputs": [],
      "name": "unpause",
      "outputs": [],
      "stateMutability": "nonpayable",
      "type": "function"
    },
    {
      "inputs": [
        {
          "internalType": "bytes4",
          "name": "interfaceId",
          "type": "bytes4"
        }
      ],
      "name": "supportsInterface",
      "outputs": [
        {
          "internalType": "bool",
          "name": "",
          "type": "bool"
        }
      ],
      "stateMutability": "view",
      "type": "function",
      "constant": true
    },
    {
      "inputs": [
        {
          "internalType": "uint256",
          "name": "tokenId",
          "type": "uint256"
        }
      ],
      "name": "tokenURI",
      "outputs": [
        {
          "internalType": "string",
          "name": "",
          "type": "string"
        }
      ],
      "stateMutability": "view",
      "type": "function",
      "constant": true
    },
    {
      "inputs": [
        {
          "internalType": "address",
          "name": "_who",
          "type": "address"
        }
      ],
      "name": "isUserActive",
      "outputs": [
        {
          "internalType": "bool",
          "name": "",
          "type": "bool"
        }
      ],
      "stateMutability": "view",
      "type": "function",
      "constant": true
    }
  ],
  "bytecode": "0x60806040526014805467ffffffffffffffff1916611770179055601a8054600160a060020a0319908116721b3b4d0f3714ca98ba10f6042daebf0b1b7b6f17909155601b8054821673639cb7b21ee2161df9c882483c9d55c90c20ca3e179055601c8054909116739198f13b08e299d85e096929fa9781a1e3d5d8271790553480156200008b57600080fd5b5060405162003fe938038062003fe9833981016040819052620000ae9162000387565b6040518060400160405280600881526020017f536c7944652e46690000000000000000000000000000000000000000000000008152506040518060400160405280600581526020017f534c59444500000000000000000000000000000000000000000000000000000081525062000146620001376200028d640100000000026401000000009004565b64010000000062000291810204565b6001805581516200015f906002906020850190620002e1565b50805162000175906003906020840190620002e1565b50506008805460ff1916905550600a805465ffffffffffff19166201000117905560138054600160a060020a031916600160a060020a038416179055620001c581670de0b6b3a7640000620003c3565b601555601a54601c546040517f095ea7b3000000000000000000000000000000000000000000000000000000008152600160a060020a039182166004820152600019602482015291169063095ea7b3906044016020604051808303816000875af115801562000238573d6000803e3d6000fd5b505050506040513d601f19601f820116820180604052508101906200025e91906200040a565b505060198054600160a060020a031916730715a7794a1dc8e42615f059dd6e406a6594651a179055506200048b565b3390565b60008054600160a060020a03838116600160a060020a0319831681178455604051919092169283917f8be0079c531659141344cd1fd0a4f28419497f9722a3daafe3b4186f6b6457e09190a35050565b828054620002ef9062000435565b90600052602060002090601f0160209004810192826200031357600085556200035e565b82601f106200032e57805160ff19168380011785556200035e565b828001600101855582156200035e579182015b828111156200035e57825182559160200191906001019062000341565b506200036c92915062000370565b5090565b5b808211156200036c576000815560010162000371565b600080604083850312156200039b57600080fd5b8251600160a060020a0381168114620003b357600080fd5b6020939093015192949293505050565b600081600019048311821515161562000405577f4e487b7100000000000000000000000000000000000000000000000000000000600052601160045260246000fd5b500290565b6000602082840312156200041d57600080fd5b815180151581146200042e57600080fd5b9392505050565b6002810460018216806200044a57607f821691505b6020821081141562000485577f4e487b7100000000000000000000000000000000000000000000000000000000600052602260045260246000fd5b50919050565b613b4e806200049b6000396000f3fe608060405260043610610288576000357c01000000000000000000000000000000000000000000000000000000009004806395d89b4111610161578063d1c22c3b116100d3578063e9d337b811610097578063e9d337b81461086e578063f2fde38b1461088e578063f4b9fa75146108ae578063f5d13da0146108ce578063f7be026c146108f1578063f9ebbb81146109065761028f565b8063d1c22c3b14610779578063d32b7493146107b1578063d81639f8146107f2578063e5790d7214610812578063e985e9c5146108255761028f565b8063a815a4d411610125578063a815a4d41461066d578063aef94ae91461069a578063b88d4fde146106ba578063bad9e092146106da578063c87b56dd14610707578063d0c80566146107275761028f565b806395d89b41146105af5780639ee20b15146105c45780639f8a13d7146105fd578063a0c1f15e1461062d578063a22cb4651461064d5761028f565b80635a47bb3f116101fa5780636352211e116101be5780636352211e146104f957806370a0823114610519578063715018a6146105395780637b76ac911461054e5780638456cb591461057c5780638da5cb5b146105915761028f565b80635a47bb3f1461043c5780635c975abb1461045c5780635e1b4d99146104745780636059684b146104a957806362bb784f146104d95761028f565b806323b872dd1161024c57806323b872dd146103735780633f4ba83a1461039357806342842e0e146103a857806342966c68146103c8578063498f4dc1146103e857806351cff8d91461041c5761028f565b806301ffc9a71461029e57806306fdde03146102d357806307e2774d146102f5578063081812fc14610319578063095ea7b3146103515761028f565b3661028f57005b34801561029b57600080fd5b50005b3480156102aa57600080fd5b506102be6102b93660046131af565b610941565b60405190151581526020015b60405180910390f35b3480156102df57600080fd5b506102e8610952565b6040516102ca9190613224565b34801561030157600080fd5b5061030b60155481565b6040519081526020016102ca565b34801561032557600080fd5b50610339610334366004613237565b6109e4565b604051600160a060020a0390911681526020016102ca565b34801561035d57600080fd5b5061037161036c36600461326c565b610a85565b005b34801561037f57600080fd5b5061037161038e366004613296565b610bbd565b34801561039f57600080fd5b50610371610bf2565b3480156103b457600080fd5b506103716103c3366004613296565b610c29565b3480156103d457600080fd5b506103716103e3366004613237565b610c44565b3480156103f457600080fd5b506104086104033660046132e6565b610cce565b6040516102ca989796959493929190613301565b34801561042857600080fd5b50610371610437366004613372565b610dcd565b34801561044857600080fd5b50610371610457366004613237565b610ea3565b34801561046857600080fd5b5060085460ff166102be565b34801561048057600080fd5b5061049461048f36600461326c565b6110e2565b60405163ffffffff90911681526020016102ca565b3480156104b557600080fd5b506102be6104c43660046132e6565b600d6020526000908152604090205460ff1681565b3480156104e557600080fd5b506104086104f4366004613372565b61112b565b34801561050557600080fd5b50610339610514366004613237565b6111a7565b34801561052557600080fd5b5061030b610534366004613372565b611235565b34801561054557600080fd5b506103716112d2565b34801561055a57600080fd5b50600a546105699061ffff1681565b60405161ffff90911681526020016102ca565b34801561058857600080fd5b50610371611309565b34801561059d57600080fd5b50600054600160a060020a0316610339565b3480156105bb57600080fd5b506102e861133e565b3480156105d057600080fd5b506102be6105df366004613372565b600160a060020a03166000908152600b602052604090205460ff1690565b34801561060957600080fd5b506102be610618366004613372565b600b6020526000908152604090205460ff1681565b34801561063957600080fd5b50601b5461033990600160a060020a031681565b34801561065957600080fd5b5061037161066836600461339b565b61134d565b34801561067957600080fd5b5061030b610688366004613372565b60126020526000908152604090205481565b3480156106a657600080fd5b506104946106b53660046133e4565b611415565b3480156106c657600080fd5b506103716106d5366004613484565b61146b565b3480156106e657600080fd5b5061030b6106f5366004613372565b60176020526000908152604090205481565b34801561071357600080fd5b506102e8610722366004613237565b6114a6565b34801561073357600080fd5b506013546107609074010000000000000000000000000000000000000000900467ffffffffffffffff1681565b60405167ffffffffffffffff90911681526020016102ca565b34801561078557600080fd5b50601854610799906001608060020a031681565b6040516001608060020a0390911681526020016102ca565b3480156107bd57600080fd5b506107996107cc366004613544565b60116020908152600092835260408084209091529082529020546001608060020a031681565b3480156107fe57600080fd5b5060135461033990600160a060020a031681565b6102be6108203660046135dd565b6114b1565b34801561083157600080fd5b506102be61084036600461369a565b600160a060020a03918216600090815260076020908152604080832093909416825291909152205460ff1690565b34801561087a57600080fd5b50601c5461033990600160a060020a031681565b34801561089a57600080fd5b506103716108a9366004613372565b611c92565b3480156108ba57600080fd5b50601a5461033990600160a060020a031681565b3480156108da57600080fd5b50600a546104949062010000900463ffffffff1681565b3480156108fd57600080fd5b50610371611d47565b34801561091257600080fd5b506102be6109213660046136cd565b600f60209081526000928352604080842090915290825290205460ff1681565b600061094c82612169565b92915050565b606060028054610961906136f7565b80601f016020809104026020016040519081016040528092919081815260200182805461098d906136f7565b80156109da5780601f106109af576101008083540402835291602001916109da565b820191906000526020600020905b8154815290600101906020018083116109bd57829003601f168201915b5050505050905090565b60006109ef82612204565b610a695760405160e560020a62461bcd02815260206004820152602c60248201527f4552433732313a20617070726f76656420717565727920666f72206e6f6e657860448201527f697374656e7420746f6b656e000000000000000000000000000000000000000060648201526084015b60405180910390fd5b50600090815260066020526040902054600160a060020a031690565b6000610a90826111a7565b905080600160a060020a031683600160a060020a03161415610b1d5760405160e560020a62461bcd02815260206004820152602160248201527f4552433732313a20617070726f76616c20746f2063757272656e74206f776e6560448201527f72000000000000000000000000000000000000000000000000000000000000006064820152608401610a60565b33600160a060020a0382161480610b395750610b398133610840565b610bae5760405160e560020a62461bcd02815260206004820152603860248201527f4552433732313a20617070726f76652063616c6c6572206973206e6f74206f7760448201527f6e6572206e6f7220617070726f76656420666f7220616c6c00000000000000006064820152608401610a60565b610bb88383612221565b505050565b610bc8335b8261229c565b610be75760405160e560020a62461bcd028152600401610a6090613735565b610bb883838361239a565b600054600160a060020a03163314610c1f5760405160e560020a62461bcd028152600401610a6090613792565b610c27612585565b565b610bb88383836040518060200160405280600081525061146b565b610c4d33610bc2565b610cc25760405160e560020a62461bcd02815260206004820152603060248201527f4552433732314275726e61626c653a2063616c6c6572206973206e6f74206f7760448201527f6e6572206e6f7220617070726f766564000000000000000000000000000000006064820152608401610a60565b610ccb81612624565b50565b600e6020526000908152604090208054600582015460068301805463ffffffff84169464010000000094859004600160a060020a03169461ffff80861695620100008104821695928104909116936601000000000000820460ff16936701000000000000009092046001608060020a03169290610d4a906136f7565b80601f0160208091040260200160405190810160405280929190818152602001828054610d76906136f7565b8015610dc35780601f10610d9857610100808354040283529160200191610dc3565b820191906000526020600020905b815481529060010190602001808311610da657829003601f168201915b5050505050905088565b600054600160a060020a03163314610dfa5760405160e560020a62461bcd028152600401610a6090613792565b604051600090600160a060020a038316903031908381818185875af1925050503d8060008114610e46576040519150601f19603f3d011682016040523d82523d6000602084013e610e4b565b606091505b5050905080610e9f5760405160e560020a62461bcd02815260206004820152600f60248201527f7472616e73666572206661696c656400000000000000000000000000000000006044820152606401610a60565b5050565b33600090815260176020526040902054811115610f2b5760405160e560020a62461bcd02815260206004820152602860248201527f596f752063616e6e6f74207769746864726177206d6f7265207468616e20646560448201527f706f7369746564210000000000000000000000000000000000000000000000006064820152608401610a60565b33600090815260176020526040902054610f469082906137e0565b336000908152601760205260409081902091909155601b5490517fdb006a7500000000000000000000000000000000000000000000000000000000815260048101839052600160a060020a039091169063db006a7590602401600060405180830381600087803b158015610fb957600080fd5b505af1158015610fcd573d6000803e3d6000fd5b5050601a546040517f23b872dd00000000000000000000000000000000000000000000000000000000815230600482015233602482015260448101859052600160a060020a0390911692506323b872dd91506064016020604051808303816000875af1158015611041573d6000803e3d6000fd5b505050506040513d601f19601f8201168201806040525081019061106591906137f7565b6110b45760405160e560020a62461bcd02815260206004820152601460248201527f444149205472616e73666572206661696c6564210000000000000000000000006044820152606401610a60565b336000908152601760205260409020546110cf9082906137e0565b3360009081526017602052604090205550565b601060205281600052604060002081815481106110fe57600080fd5b9060005260206000209060089182820401919006600402915091509054906101000a900463ffffffff1681565b60166020526000908152604090208054600582015460068301805463ffffffff84169464010000000094859004600160a060020a03169461ffff80861695620100008104821695928104909116936601000000000000820460ff16936701000000000000009092046001608060020a03169290610d4a906136f7565b600081815260046020526040812054600160a060020a03168061094c5760405160e560020a62461bcd02815260206004820152602960248201527f4552433732313a206f776e657220717565727920666f72206e6f6e657869737460448201527f656e7420746f6b656e00000000000000000000000000000000000000000000006064820152608401610a60565b6000600160a060020a0382166112b65760405160e560020a62461bcd02815260206004820152602a60248201527f4552433732313a2062616c616e636520717565727920666f7220746865207a6560448201527f726f2061646472657373000000000000000000000000000000000000000000006064820152608401610a60565b50600160a060020a031660009081526005602052604090205490565b600054600160a060020a031633146112ff5760405160e560020a62461bcd028152600401610a6090613792565b610c27600061262d565b600054600160a060020a031633146113365760405160e560020a62461bcd028152600401610a6090613792565b610c2761268a565b606060038054610961906136f7565b600160a060020a0382163314156113a95760405160e560020a62461bcd02815260206004820152601960248201527f4552433732313a20617070726f766520746f2063616c6c6572000000000000006044820152606401610a60565b336000818152600760209081526040808320600160a060020a03871680855290835292819020805460ff191686151590811790915590519081529192917f17307eab39ab6107e8899845ad3d59bd9653f200f220920489ca2b5937696c31910160405180910390a35050565b600c602052826000526040600020602052816000526040600020818154811061143d57600080fd5b906000526020600020906008918282040191900660040292509250509054906101000a900463ffffffff1681565b611475338361229c565b6114945760405160e560020a62461bcd028152600401610a6090613735565b6114a084848484612715565b50505050565b606061094c8261274b565b6000600260015414156115095760405160e560020a62461bcd02815260206004820152601f60248201527f5265656e7472616e637947756172643a207265656e7472616e742063616c6c006044820152606401610a60565b6002600155600a54336000908152600f6020908152604080832061ffff8981168552925290912054911690859060ff16158061158a5760405160e560020a62461bcd02815260206004820152601260248201527f506f736974696f6e536c6f74206572726f7200000000000000000000000000006044820152606401610a60565b876001608060020a03166015548110156115e95760405160e560020a62461bcd02815260206004820152601a60248201527f53746174656456616c756520536d616c6c65727468616e4d494e0000000000006044820152606401610a60565b6115f1612fc9565b600a546000906116069061ffff166001613814565b6040805161012081018252600a5462010000900463ffffffff1681523360208201529081018e905261ffff82166060820152909150608081016116498c84613814565b61ffff168152602001600061ffff1681526020016000151581526020018c6001608060020a031681526020018a8a8080601f0160208091040260200160405190810160405280939291908181526020018383808284376000920182905250939094525050601a546040517f70a082310000000000000000000000000000000000000000000000000000000081523060048201529395509092600160a060020a0390911691506370a0823190602401602060405180830381865afa158015611714573d6000803e3d6000fd5b505050506040513d601f19601f82011682018060405250810190611738919061383a565b90508260e001516001608060020a031681101561175457600080fd5b601c54601a5460e08501516040517fe8eda9df000000000000000000000000000000000000000000000000000000008152600160a060020a0392831660048201526001608060020a0390911660248201523060448201526000606482015291169063e8eda9df90608401600060405180830381600087803b1580156117d857600080fd5b505af11580156117ec573d6000803e3d6000fd5b505033600090815260106020908152604080832088518154600181810184559286528486206008820401805463ffffffff93841660046007909416939093026101000a9283029284021916919091179055895181168552600e84529382902089518154948b0151600160a060020a03166401000000000277ffffffffffffffffffffffffffffffffffffffffffffffff199095169516949094179290921783558701518794509192506118a49190830190601e61301b565b506060820151600582018054608085015160a086015160c087015160e08801516001608060020a03166701000000000000000276ffffffffffffffffffffffffffffffff000000000000001991151566010000000000000266ff0000000000001961ffff948516640100000000021666ffffff0000000019958516620100000263ffffffff1990971694909816939093179490941792909216949094179390931792909216919091179055610100820151805161196b9160068401916020909101906130b7565b5050336000818152600f60209081526040808320608089015161ffff1684528252808320805460ff19166001179055928252600b9052205460ff1690506119c757336000908152600b60205260409020805460ff191660011790555b60005b601e61ffff82161015611b4657600c60008286606001516119eb9190613814565b61ffff1661ffff168152602001908152602001600020600085604001518361ffff16601e8110611a1d57611a1d613853565b6020908102919091015163ffffffff90811683528282019390935260409091016000908120600a5481546001810183559183529282206008820401805460079092166004026101000a8086021990921662010000909404909416029190911790915560e085015160608601519091601191611a99908590613814565b61ffff1661ffff168152602001908152602001600020600086604001518461ffff16601e8110611acb57611acb613853565b602002015163ffffffff1667ffffffffffffffff16815260200190815260200160002060008282829054906101000a90046001608060020a0316611b0f919061386c565b92506101000a8154816001608060020a0302191690836001608060020a031602179055508080611b3e9061388e565b9150506119ca565b5060e083015160188054600090611b679084906001608060020a031661386c565b92506101000a8154816001608060020a0302191690836001608060020a03160217905550611bad33600a60029054906101000a900463ffffffff1663ffffffff166128c9565b600a54610100840151611bcc9162010000900463ffffffff16906128d3565b600a543390611be69062010000900463ffffffff166111a7565b600160a060020a031614611c3f5760405160e560020a62461bcd02815260206004820152601260248201527f4d696e7420556e6e7375636365737366756c00000000000000000000000000006044820152606401610a60565b600a54611c599062010000900463ffffffff1660016138b0565b600a805463ffffffff92909216620100000265ffffffff000019909216919091179055505060018080559b9a5050505050505050505050565b600054600160a060020a03163314611cbf5760405160e560020a62461bcd028152600401610a6090613792565b600160a060020a038116611d3e5760405160e560020a62461bcd02815260206004820152602660248201527f4f776e61626c653a206e6577206f776e657220697320746865207a65726f206160448201527f64647265737300000000000000000000000000000000000000000000000000006064820152608401610a60565b610ccb8161262d565b600080600080601960009054906101000a9004600160a060020a0316600160a060020a031663feaf968c6040518163ffffffff167c010000000000000000000000000000000000000000000000000000000002815260040160a060405180830381865afa158015611dbc573d6000803e3d6000fd5b505050506040513d601f19601f82011682018060405250810190611de091906138e9565b50600a5493975091955093509150839069ffffffffffffffffffff861661ffff90911610611e0d57600080fd5b611e1b6305f5e10082613952565b601380547fffffffff0000000000000000ffffffffffffffffffffffffffffffffffffffff167401000000000000000000000000000000000000000067ffffffffffffffff9390931683021790819055600a5461ffff166000908152600c602090815260408083209490930463ffffffff16825292835281812080548351818602810186019094528084529193909190830182828015611f0657602002820191906000526020600020906000905b82829054906101000a900463ffffffff1663ffffffff1681526020019060040190602082600301049283019260010382029150808411611ec95790505b5050505050905060005b8151811015612138576000600e6000848481518110611f3157611f31613853565b60209081029190910181015163ffffffff1682528181019290925260409081016000908120600a5461ffff1682526011845282822060135474010000000000000000000000000000000000000000900467ffffffffffffffff168352909352205460058201549192506001608060020a0390811691611fbe91670100000000000000909104166064613979565b611fc891906139a8565b611fd390600161386c565b60058201805461ffff929092166401000000000265ffff0000000019909216919091179055805463ffffffff166000908152600d6020526040808220805460ff19166001179055601854601b5491517f70a08231000000000000000000000000000000000000000000000000000000008152306004820152601f926001608060020a0390921691600160a060020a0316906370a0823190602401602060405180830381865afa15801561208a573d6000803e3d6000fd5b505050506040513d601f19601f820116820180604052508101906120ae919061383a565b6120b891906137e0565b6120c291906139c2565b6005830154909150640100000000900461ffff166120e16064836139c2565b6120eb91906139d6565b82546401000000009004600160a060020a03166000908152601260205260408120805490919061211c9084906139f5565b925050819055505050808061213090613a0d565b915050611f10565b50600a5461214b9061ffff166001613814565b600a805461ffff191661ffff92909216919091179055505050505050565b6000600160e060020a031982167f80ac58cd0000000000000000000000000000000000000000000000000000000014806121cc5750600160e060020a031982167f5b5e139f00000000000000000000000000000000000000000000000000000000145b8061094c57507f01ffc9a700000000000000000000000000000000000000000000000000000000600160e060020a031983161461094c565b600090815260046020526040902054600160a060020a0316151590565b6000818152600660205260409020805473ffffffffffffffffffffffffffffffffffffffff1916600160a060020a0384169081179091558190612263826111a7565b600160a060020a03167f8c5be1e5ebec7d5bd14f71427d1e84f3dd0314c0f7b2291e5b200ac8c7c3b92560405160405180910390a45050565b60006122a782612204565b61231c5760405160e560020a62461bcd02815260206004820152602c60248201527f4552433732313a206f70657261746f7220717565727920666f72206e6f6e657860448201527f697374656e7420746f6b656e00000000000000000000000000000000000000006064820152608401610a60565b6000612327836111a7565b905080600160a060020a031684600160a060020a03161480612362575083600160a060020a0316612357846109e4565b600160a060020a0316145b806123925750600160a060020a0380821660009081526007602090815260408083209388168352929052205460ff165b949350505050565b82600160a060020a03166123ad826111a7565b600160a060020a03161461242c5760405160e560020a62461bcd02815260206004820152602960248201527f4552433732313a207472616e73666572206f6620746f6b656e2074686174206960448201527f73206e6f74206f776e00000000000000000000000000000000000000000000006064820152608401610a60565b600160a060020a0382166124aa5760405160e560020a62461bcd028152602060048201526024808201527f4552433732313a207472616e7366657220746f20746865207a65726f2061646460448201527f72657373000000000000000000000000000000000000000000000000000000006064820152608401610a60565b6124b5838383612970565b6124c0600082612221565b600160a060020a03831660009081526005602052604081208054600192906124e99084906137e0565b9091555050600160a060020a03821660009081526005602052604081208054600192906125179084906139f5565b9091555050600081815260046020526040808220805473ffffffffffffffffffffffffffffffffffffffff1916600160a060020a0386811691821790925591518493918716917fddf252ad1be2c89b69c2b068fc378daa952ba7f163c4a11628f55a4df523b3ef91a4505050565b60085460ff166125da5760405160e560020a62461bcd02815260206004820152601460248201527f5061757361626c653a206e6f74207061757365640000000000000000000000006044820152606401610a60565b6008805460ff191690557f5db9ee0a495bf2e6ff9c91a7834c1ba4fdd244a5e8aa4e537bd38aeae4b073aa335b604051600160a060020a03909116815260200160405180910390a1565b610ccb816129c6565b60008054600160a060020a0383811673ffffffffffffffffffffffffffffffffffffffff19831681178455604051919092169283917f8be0079c531659141344cd1fd0a4f28419497f9722a3daafe3b4186f6b6457e09190a35050565b60085460ff16156126e05760405160e560020a62461bcd02815260206004820152601060248201527f5061757361626c653a20706175736564000000000000000000000000000000006044820152606401610a60565b6008805460ff191660011790557f62e78cea01bee320cd4e420270b5ea74000d11b0c9f74754ebdbfc544b05a2586126073390565b61272084848461239a565b61272c84848484612a06565b6114a05760405160e560020a62461bcd028152600401610a6090613a28565b606061275682612204565b6127cb5760405160e560020a62461bcd02815260206004820152603160248201527f45524337323155524953746f726167653a2055524920717565727920666f722060448201527f6e6f6e6578697374656e7420746f6b656e0000000000000000000000000000006064820152608401610a60565b600082815260096020526040812080546127e4906136f7565b80601f0160208091040260200160405190810160405280929190818152602001828054612810906136f7565b801561285d5780601f106128325761010080835404028352916020019161285d565b820191906000526020600020905b81548152906001019060200180831161284057829003601f168201915b50505050509050600061287b60408051602081019091526000815290565b905080516000141561288e575092915050565b8151156128c05780826040516020016128a8929190613a85565b60405160208183030381529060405292505050919050565b61239284612b39565b610e9f8282612c22565b6128dc82612204565b6129515760405160e560020a62461bcd02815260206004820152602e60248201527f45524337323155524953746f726167653a2055524920736574206f66206e6f6e60448201527f6578697374656e7420746f6b656e0000000000000000000000000000000000006064820152608401610a60565b60008281526009602090815260409091208251610bb8928401906130b7565b60085460ff1615610bb85760405160e560020a62461bcd02815260206004820152601060248201527f5061757361626c653a20706175736564000000000000000000000000000000006044820152606401610a60565b6129cf81612c3c565b600081815260096020526040902080546129e8906136f7565b159050610ccb576000818152600960205260408120610ccb9161312b565b6000600160a060020a0384163b15612b2e576040517f150b7a02000000000000000000000000000000000000000000000000000000008152600160a060020a0385169063150b7a0290612a63903390899088908890600401613aab565b6020604051808303816000875af1925050508015612a9e575060408051601f3d908101601f19168201909252612a9b91810190613ae7565b60015b612afb573d808015612acc576040519150601f19603f3d011682016040523d82523d6000602084013e612ad1565b606091505b508051612af35760405160e560020a62461bcd028152600401610a6090613a28565b805181602001fd5b600160e060020a0319167f150b7a0200000000000000000000000000000000000000000000000000000000149050612392565b506001949350505050565b6060612b4482612204565b612bb95760405160e560020a62461bcd02815260206004820152602f60248201527f4552433732314d657461646174613a2055524920717565727920666f72206e6f60448201527f6e6578697374656e7420746f6b656e00000000000000000000000000000000006064820152608401610a60565b6000612bd060408051602081019091526000815290565b90506000815111612bf05760405180602001604052806000815250612c1b565b80612bfa84612cf0565b604051602001612c0b929190613a85565b6040516020818303038152906040525b9392505050565b610e9f828260405180602001604052806000815250612e41565b6000612c47826111a7565b9050612c5581600084612970565b612c60600083612221565b600160a060020a0381166000908152600560205260408120805460019290612c899084906137e0565b9091555050600082815260046020526040808220805473ffffffffffffffffffffffffffffffffffffffff1916905551839190600160a060020a038416907fddf252ad1be2c89b69c2b068fc378daa952ba7f163c4a11628f55a4df523b3ef908390a45050565b606081612d3057505060408051808201909152600181527f3000000000000000000000000000000000000000000000000000000000000000602082015290565b8160005b8115612d5a5780612d4481613a0d565b9150612d539050600a836139c2565b9150612d34565b60008167ffffffffffffffff811115612d7557612d75613410565b6040519080825280601f01601f191660200182016040528015612d9f576020820181803683370190505b5090505b841561239257612db46001836137e0565b9150612dc1600a86613b04565b612dcc9060306139f5565b7f010000000000000000000000000000000000000000000000000000000000000002818381518110612e0057612e00613853565b60200101907effffffffffffffffffffffffffffffffffffffffffffffffffffffffffffff1916908160001a905350612e3a600a866139c2565b9450612da3565b612e4b8383612e77565b612e586000848484612a06565b610bb85760405160e560020a62461bcd028152600401610a6090613a28565b600160a060020a038216612ed05760405160e560020a62461bcd02815260206004820181905260248201527f4552433732313a206d696e7420746f20746865207a65726f20616464726573736044820152606401610a60565b612ed981612204565b15612f295760405160e560020a62461bcd02815260206004820152601c60248201527f4552433732313a20746f6b656e20616c7265616479206d696e746564000000006044820152606401610a60565b612f3560008383612970565b600160a060020a0382166000908152600560205260408120805460019290612f5e9084906139f5565b9091555050600081815260046020526040808220805473ffffffffffffffffffffffffffffffffffffffff1916600160a060020a03861690811790915590518392907fddf252ad1be2c89b69c2b068fc378daa952ba7f163c4a11628f55a4df523b3ef908290a45050565b604080516101208101825260008082526020820152908101612fe9613165565b81526000602082018190526040820181905260608083018290526080830182905260a083019190915260c09091015290565b6004830191839082156130a75791602002820160005b8382111561307557835183826101000a81548163ffffffff021916908363ffffffff1602179055509260200192600401602081600301049283019260010302613031565b80156130a55782816101000a81549063ffffffff0219169055600401602081600301049283019260010302613075565b505b506130b3929150613184565b5090565b8280546130c3906136f7565b90600052602060002090601f0160209004810192826130e557600085556130a7565b82601f106130fe57805160ff19168380011785556130a7565b828001600101855582156130a7579182015b828111156130a7578251825591602001919060010190613110565b508054613137906136f7565b6000825580601f10613147575050565b601f016020900490600052602060002090810190610ccb9190613184565b604051806103c00160405280601e906020820280368337509192915050565b5b808211156130b35760008155600101613185565b600160e060020a031981168114610ccb57600080fd5b6000602082840312156131c157600080fd5b8135612c1b81613199565b60005b838110156131e75781810151838201526020016131cf565b838111156114a05750506000910152565b600081518084526132108160208601602086016131cc565b601f01601f19169290920160200192915050565b602081526000612c1b60208301846131f8565b60006020828403121561324957600080fd5b5035919050565b8035600160a060020a038116811461326757600080fd5b919050565b6000806040838503121561327f57600080fd5b61328883613250565b946020939093013593505050565b6000806000606084860312156132ab57600080fd5b6132b484613250565b92506132c260208501613250565b9150604084013590509250925092565b803563ffffffff8116811461326757600080fd5b6000602082840312156132f857600080fd5b612c1b826132d2565b600061010063ffffffff8b168352600160a060020a038a16602084015261ffff808a166040850152808916606085015280881660808501525085151560a08401526001608060020a03851660c08401528060e0840152613363818401856131f8565b9b9a5050505050505050505050565b60006020828403121561338457600080fd5b612c1b82613250565b8015158114610ccb57600080fd5b600080604083850312156133ae57600080fd5b6133b783613250565b915060208301356133c78161338d565b809150509250929050565b803561ffff8116811461326757600080fd5b6000806000606084860312156133f957600080fd5b613402846133d2565b92506132c2602085016132d2565b60e060020a634e487b7102600052604160045260246000fd5b6040516103c0810167ffffffffffffffff8111828210171561344d5761344d613410565b60405290565b604051601f8201601f1916810167ffffffffffffffff8111828210171561347c5761347c613410565b604052919050565b6000806000806080858703121561349a57600080fd5b6134a385613250565b935060206134b2818701613250565b935060408601359250606086013567ffffffffffffffff808211156134d657600080fd5b818801915088601f8301126134ea57600080fd5b8135818111156134fc576134fc613410565b61350e601f8201601f19168501613453565b9150808252898482850101111561352457600080fd5b808484018584013760008482840101525080935050505092959194509250565b6000806040838503121561355757600080fd5b613560836133d2565b9150602083013567ffffffffffffffff811681146133c757600080fd5b80356001608060020a038116811461326757600080fd5b60008083601f8401126135a657600080fd5b50813567ffffffffffffffff8111156135be57600080fd5b6020830191508360208285010111156135d657600080fd5b9250929050565b600080600080600061042086880312156135f657600080fd5b86601f87011261360557600080fd5b61360d613429565b806103c088018981111561362057600080fd5b885b8181101561364157613633816132d2565b845260209384019301613622565b5081975061364e8161357d565b96505050506136606103e087016133d2565b925061040086013567ffffffffffffffff81111561367d57600080fd5b61368988828901613594565b969995985093965092949392505050565b600080604083850312156136ad57600080fd5b6136b683613250565b91506136c460208401613250565b90509250929050565b600080604083850312156136e057600080fd5b6136e983613250565b91506136c4602084016133d2565b60028104600182168061370b57607f821691505b6020821081141561372f5760e060020a634e487b7102600052602260045260246000fd5b50919050565b60208082526031908201527f4552433732313a207472616e736665722063616c6c6572206973206e6f74206f60408201527f776e6572206e6f7220617070726f766564000000000000000000000000000000606082015260800190565b6020808252818101527f4f776e61626c653a2063616c6c6572206973206e6f7420746865206f776e6572604082015260600190565b60e060020a634e487b7102600052601160045260246000fd5b6000828210156137f2576137f26137c7565b500390565b60006020828403121561380957600080fd5b8151612c1b8161338d565b600061ffff808316818516808303821115613831576138316137c7565b01949350505050565b60006020828403121561384c57600080fd5b5051919050565b60e060020a634e487b7102600052603260045260246000fd5b60006001608060020a03808316818516808303821115613831576138316137c7565b600061ffff808316818114156138a6576138a66137c7565b6001019392505050565b600063ffffffff808316818516808303821115613831576138316137c7565b805169ffffffffffffffffffff8116811461326757600080fd5b600080600080600060a0868803121561390157600080fd5b61390a866138cf565b945060208601519350604086015192506060860151915061392d608087016138cf565b90509295509295909350565b60e060020a634e487b7102600052601260045260246000fd5b600067ffffffffffffffff8084168061396d5761396d613939565b92169190910492915050565b60006001608060020a038083168185168183048111821515161561399f5761399f6137c7565b02949350505050565b60006001608060020a038084168061396d5761396d613939565b6000826139d1576139d1613939565b500490565b60008160001904831182151516156139f0576139f06137c7565b500290565b60008219821115613a0857613a086137c7565b500190565b6000600019821415613a2157613a216137c7565b5060010190565b60208082526032908201527f4552433732313a207472616e7366657220746f206e6f6e20455243373231526560408201527f63656976657220696d706c656d656e7465720000000000000000000000000000606082015260800190565b60008351613a978184602088016131cc565b8351908301906138318183602088016131cc565b6000600160a060020a03808716835280861660208401525083604083015260806060830152613add60808301846131f8565b9695505050505050565b600060208284031215613af957600080fd5b8151612c1b81613199565b600082613b1357613b13613939565b50069056fea26469706673582212203d3ae3d8428bcf086a43e2aec3b24b9666f1741aee11b6ae73a66a4a7395098764736f6c634300080a0033",
  "immutableReferences": {},
  "source": "// SPDX-License-Identifier: MIT\npragma solidity ^0.8.0;\n\nimport \"@openzeppelin/contracts/token/ERC20/IERC20.sol\";\nimport \"@openzeppelin/contracts/access/Ownable.sol\";\nimport \"@openzeppelin/contracts/security/ReentrancyGuard.sol\";\nimport \"@openzeppelin/contracts/token/ERC721/ERC721.sol\";\n//import \"@openzeppelin/contracts/token/ERC721/extensions/ERC721Enumerable.sol\";\nimport \"@openzeppelin/contracts/token/ERC721/extensions/ERC721URIStorage.sol\";\nimport \"@openzeppelin/contracts/security/Pausable.sol\";\nimport \"@openzeppelin/contracts/token/ERC721/extensions/ERC721Burnable.sol\";\nimport \"@chainlink/contracts/src/v0.8/interfaces/AggregatorV3Interface.sol\";\n//import { IConstantFlowAgreementV1 } from \"@superfluid-finance/ethereum-contracts/contracts/interfaces/agreements/IConstantFlowAgreementV1.sol\";\n//import { ISuperTokenFactory } from \"@superfluid-finance/ethereum-contracts/contracts/interfaces/superfluid/ISuperTokenFactory.sol\";\n//import { ISuperfluidToken } from \"@superfluid-finance/ethereum-contracts/contracts/interfaces/superfluid/ISuperfluidToken.sol\";\n//import { SuperTokenFactory } from \"@superfluid-finance/ethereum-contracts/contracts/superfluid/SuperTokenFactory.sol\";\n//import { SuperfluidToken } from \"@superfluid-finance/ethereum-contracts/contracts/superfluid/SuperfluidToken.sol\";\n\n//@author:parseb \n//@title SlyDe.Fi - a preditction game on pooled yeld farming\n//@custom: security-contact @parseb \n\n\n    /* =========== Interfaces ============= */\n\ninterface IaToken {\n    function balanceOf(address _user) external view returns (uint256);\n    function redeem(uint256 _amount) external;\n}\n\n\ninterface IAaveLendingPool {\n\n    function deposit(address asset, uint256 amount, address onBehalfOf, uint16 referralCode) external;\n\n    function withdraw(address asset, uint256 amount, address to) external;\n\n    function getReservesList() external view returns (address[] memory);\n}\n\n    /* =========== SlyDeFi Contract Start ============= */\n\ncontract SlyDeFi is Ownable, ReentrancyGuard, ERC721, Pausable, ERC721Burnable, ERC721URIStorage{\n    //@notice day: incremented daily by keeper, number of days since start\n    ///@dev day: used as position selector range narrower\n    uint16 public day;\n    //@notice posId: position ID incremented on position creation\n    uint32 public posId;\n    //@notice isActive: used for fast checking return scope for dApp render\n    mapping(address => bool) public isActive;\n    //@notice dayPricePositions: used to add and retrieve position ID in price-day matrix\n    mapping(uint16 => mapping(uint32 => uint32[])) public dayPriceGetPositions;\n    //@notice endDateWinners: used to collect possitions that will get rewarded at the end of cycle\n    ///@dev refactoring will be lots of 'fun'\n    //mapping(uint16 => uint32[]) public endDateWinners;\n    //@notice isPositionInWinArray: to avoid duplicate entry of PositionID in endDateWinners[enddate] uint32[]\n    mapping(uint32 => bool) public isPositionInWinArray;\n    //@notice getPositionById\n    mapping(uint32 => Position) public getPositionById;\n    //@notice check if user has position for submitted timeframe: userHasTimeEndPosition[msg.sender][_enddate]\n    ///@dev temporary limitation, reasses\n    mapping(address=>mapping(uint16=>bool)) public userHasTimeEndPosition;\n\n    //@notice userPositions: get all positions of msg.sender    \n    mapping(address => uint32[]) public userPositions;\n\n    //@notice the total value positionwise, used to determine share of winnings\n    mapping(uint16 => mapping(uint64 => uint128)) public dayPriceTVL;\n    \n    //mapping(uint16 => uint32) public endDayBudget;\n\n    mapping(address => uint) public userWinnings;\n\n    address public clETHUSD;\n    uint64 public lastETHPrice;\n    uint64 minAvgBlocksDay= 6000;\n    uint public MINVALUE;\n    //address SLYDE;\n    //@notice orphanPositions: position defined but not executed (approved,!transfer)\n    mapping(address => Position) public orphanPosition;\n        \n    mapping(address => uint256) public userDepositedDai;\n    //@notice totalDepositedDai: sent from protocol to ppp;\n    uint128 public totalDepositedDai;\n\n    AggregatorV3Interface internal priceFeed;\n\n    struct Position {\n        uint32 id;\n        address owner;\n        uint32[30] graph;   \n        uint16 start;\n        uint16 end;\n        uint16 shares;\n        bool isMinted;\n        uint128 baseValue;\n        string imghash;\n    }\n    \n    /* =========== AaveSly State ============= */\n    \n    ///@dev replace hardcoded with contract address provider interface\n    IERC20 public dai = IERC20(0x001B3B4d0F3714Ca98ba10F6042DaEbF0B1B7b6F);\n    IaToken public aToken = IaToken(0x639cB7b21ee2161DF9c882483C9D55c90c20Ca3e);\n    IAaveLendingPool public aaveLendingPool = IAaveLendingPool(0x9198F13B08E299d85E096929fA9781A1E3d5d827);\n    //ISuperTokenFactory public superTokenFactory = ISuperTokenFactory(0x200657E2f123761662567A1744f9ACAe50dF47E6);\n    //ISuperfluidToken aTokenX;\n    \n    // supertokenfactory mumbai 0x200657E2f123761662567A1744f9ACAe50dF47E6\n    // aave pool mumbai -  0x9198F13B08E299d85E096929fA9781A1E3d5d827\n    // aave stable interest: 0x10dec6dF64d0ebD271c8AdD492Af4F5594358919\n    // aave variable interest: 0x6D29322ba6549B95e98E9B08033F5ffb857f19c5\n    // polygon contracts: https://docs.aave.com/developers/deployed-contracts/matic-polygon-market\n    \n \n    \n \n\n    \n   /* ============ Initialize ============ */\n    // function initialize() private {\n    // }\n\n\n  //@notice owner set by msg.sender on create \n  /////@param _clETHUSD   ChainLink Mumbai ETHUSD - 0x0715A7794a1dc8e42615F059dD6e406A6594651A \n  constructor(address _clETHUSD, uint _minvalue) ERC721(\"SlyDe.Fi\", \"SLYDE\")  {\n    \n    day = 1;\n    posId= 1;\n    clETHUSD = payable(_clETHUSD);\n    ///@dev the oracle price uses 8 decimals\n    MINVALUE = _minvalue*10**18;\n\n    //@notice EXTERNAL CALLS\n    dai.approve(address(aaveLendingPool), type(uint256).max);\n    priceFeed = AggregatorV3Interface(0x0715A7794a1dc8e42615F059dD6e406A6594651A);\n    \n    //ISuperTokenFactory superTokenFactory = ISuperTokenFactory(0x200657E2f123761662567A1744f9ACAe50dF47E6);\n    //aTokenX= superTokenFactory.createERC20Wrapper(aToken, 18, ISuperTokenFactory.Upgradability.NON_UPGRADABLE, \"FluidAaveMaticDAI\", \"XamDAI\");\n\n  }\n  \n  //*--- Fallback ---*//\n    receive() external payable {}\n    fallback() external  {}\n  \n  //*--- Errors ---*//\n\n\n  //*--- Modifiers ---*//\n    modifier ensureUniqueForEnd(uint16 _day, uint16 _endsOn) {\n\n    bool timeRangeEmpty = ! userHasTimeEndPosition[msg.sender][_endsOn];\n     require( timeRangeEmpty, \"PositionSlot error\"); \n      _;\n    }\n\n    //@notice deposits user's declared amount on this tab\n    //@notice updates  userDepositedDai[msg.sender]\n    /////@param _statedValue: provided in submitPosition() call by user as value of position\n    modifier ercMinVal(uint _statedValue) {\n      require(_statedValue >= MINVALUE, \"StatedValue SmallerthanMIN\" );\n      _;\n    }\n\n\n  //*--- External ---*//\n  //@notice submitPosition(): creates position, transfers dai, mints nft, changes state\n     ///#if_succeeds msg.sender != _to ==> old(X) == _balances[_to]; \n  function submitPosition(\n     uint32[30] memory _graph,\n     uint128 _value, \n     uint16 _end,\n     string calldata _imghash\n    ) \n    external payable  \n    nonReentrant \n    ensureUniqueForEnd(day, _end) \n    ercMinVal(_value) \n    returns(bool) {\n\n      Position memory currentPosition; \n      uint16 _start= day+1;\n\n      currentPosition = Position({\n        id: posId,\n        owner: msg.sender,\n        graph: _graph,\n        start: _start,\n        end: _start +_end,\n        //end: _start + uint16(_graph.length), // should be + 30 \n        shares: 0,\n        isMinted: false,\n        baseValue: _value,\n        imghash: _imghash\n      }); \n\n      \n\n      //Position memory currentPosition = orphanPosition[msg.sender];\n  \n      \n      //require(! currentPosition.isMinted && currentPosition.start != 0, \"Create first\");  \n      //require(currentPosition.start > day,\"timeframe mismatch.resubmit!\");\n      uint beforeDai= dai.balanceOf(address(this));\n      require(beforeDai >= currentPosition.baseValue);       \n      //require(dai.transferFrom(msg.sender, address(this), currentPosition.baseValue), \"DAI transf.fail\");\n      //require(dai.balanceOf(address(this)) >= beforeDai + currentPosition.baseValue, \"DAI Balance Error\");\n      //require(aToken.balanceOf(address(this)) >= beforeAve + _value, \"Aave Balance Error\");\n      //@dev aavelendingpool = no return value\n      //dai.approve(address(aaveLendingPool), _value);\n      aaveLendingPool.deposit(address(dai), currentPosition.baseValue, address(this), 0);\n      //require(aToken.balanceOf(address(this)) >= beforeAve + _value, \"Aave Balance Error\");\n      //address asset, uint256 amount, address onBehalfOf, uint16 referralCode\n      //memory to storage\n      userPositions[msg.sender].push(currentPosition.id);\n      getPositionById[currentPosition.id]= currentPosition;\n      //dayPresentCapital[end] += currentPosition.baseValue; \n      userHasTimeEndPosition[msg.sender][currentPosition.end]= true;\n      if (! isActive[msg.sender]) isActive[msg.sender] = true;\n\n\n      ///@dev is this safe? memory>struct>array\n      for (uint16 i = 0; i < currentPosition.graph.length; i++) { \n        dayPriceGetPositions[currentPosition.start+i][currentPosition.graph[i]].push(posId);\n        dayPriceTVL[currentPosition.start+i][currentPosition.graph[i]] += currentPosition.baseValue;\n      }\n      totalDepositedDai+= currentPosition.baseValue;\n\n\n      //bytes memory _ihash = bytes(_imghash);\n      safeMint(msg.sender, posId );\n    \n      _setTokenURI(posId, currentPosition.imghash);\n\n      require(ownerOf(posId) == msg.sender, 'Mint Unnsuccessful');\n      posId=posId+1;\n      return true;\n    }\n    \n    function userWithdrawDai(uint256 _amountInDai)  external {\n        require(userDepositedDai[msg.sender] >= _amountInDai, \"You cannot withdraw more than deposited!\");\n        userDepositedDai[msg.sender] = userDepositedDai[msg.sender] - _amountInDai;\n        aToken.redeem(_amountInDai);\n        require(dai.transferFrom(address(this), msg.sender, _amountInDai), \"DAI Transfer failed!\");\n        userDepositedDai[msg.sender] = userDepositedDai[msg.sender] - _amountInDai;\n    }\n\n    //@notice to be removed. no need to hold eth.\n    ///@dev revert on receive()\n    function withdraw(address _beneficiary) public onlyOwner {\n      (bool success, ) = payable(_beneficiary).call{value: address(this).balance}(\"\");\n      require(success, \"transfer failed\");\n    }\n\n    /////@param roundId: The round ID.\n    /////@param price: The price.\n    /////@param startedAt: Timestamp of when the round started.\n    /////@param timestamp: Timestamp of when the round was updated.\n    /////@param answeredInRound: The round ID of the round in which the answer was computed.\n    function pokeOfTheDay() external  {\n        ///@dev external chainlink call\n       \n        (\n            uint80 roundID, \n            int price,\n            uint startedAt,\n            uint timeStamp,\n        ) = priceFeed.latestRoundData();\n\n        \n        uint price2 = uint256(price);\n        require(day < roundID);\n        lastETHPrice = uint64(price2) / 100000000;\n        uint32[] memory winners = dayPriceGetPositions[day][uint32(lastETHPrice)];\n          \n        //@notice asignes shares per winning day position if any\n        for (uint i = 0; i < winners.length; i++) {\n            Position storage winner = getPositionById[winners[i]];\n            winner.shares = uint16( winner.baseValue * 100 / dayPriceTVL[day][lastETHPrice] + 1);\n            \n            isPositionInWinArray[winner.id] = true;\n\n            //redeamableEndShares[winner.end] += winner.shares;\n\n            uint budget = ( aToken.balanceOf(address(this)) - totalDepositedDai ) / 31;\n            userWinnings[winner.owner] += budget /100 * winner.shares;\n        //@notice skimming or financing a treasury or for vc: \n        //@notice charging a money walking service fee\n        ///uint budget= IAtoken.balanceOf(address(this)) / 31....\n        ///@dev streaming onWin. pro/cons to enday pull payout.\n        //@notice sets up 30 day stream of loot in... fmaave token?  \n        //endDateWinners[winner.end].push(uint32(winner.id));\n\n          }   \n\n\n        day= day + 1;\n    }\n\n  //*--- Public ---*//\n\n  function pause() public onlyOwner {\n        _pause();\n    }\n\n    function unpause() public onlyOwner {\n        _unpause();\n    }\n\n\n // The following functions are overrides required by Solidity.\n\n    function supportsInterface(bytes4 interfaceId)\n        public\n        view\n        override(ERC721)\n        returns (bool)\n    {\n        return super.supportsInterface(interfaceId);\n    }\n  //*--- Internal ---*//\n    // function _baseURI() internal pure override returns (string memory) {\n    //     return \"https://slyde.fi\";\n    // }\n\n        function safeMint(address to, uint256 tokenId) internal  {\n        _safeMint(to, tokenId);\n    }\n    \n\n    function _beforeTokenTransfer(address from, address to, uint256 tokenId)\n        internal\n        whenNotPaused\n        override(ERC721)\n    {\n        super._beforeTokenTransfer(from, to, tokenId);\n    }\n\n    /* --- override some more --- */\n      function _burn(uint256 tokenId) internal override(ERC721, ERC721URIStorage) {\n        super._burn(tokenId);\n    }\n\n    function tokenURI(uint256 tokenId)\n        public\n        view\n        override(ERC721, ERC721URIStorage)\n        returns (string memory)\n    {\n        return super.tokenURI(tokenId);\n    }\n     /* ===========   ============= */\n    \n    \n\n  //*--- Private ---*//\n\n\n  //*--- View ---*// \n\n  function isUserActive(address _who) public view returns (bool) {\n    return isActive[_who];\n    }\n\n  // function hasReceivables(address _who) public view virtual returns (bool); \n\n\n\n\n}\n",
  "sourcePath": "/home/pbdesk2/Desktop/github/slyDeFi_truffle/contracts/SlyDeFi.sol",
  "compiler": {
    "name": "solc",
    "version": "0.8.10+commit.fc410830.Emscripten.clang"
  },
  "schemaVersion": "3.4.3",
  "updatedAt": "2021-11-17T23:03:03.812Z",
  "networkType": "ethereum",
  "devdoc": {
    "kind": "dev",
    "methods": {
      "approve(address,uint256)": {
        "details": "See {IERC721-approve}."
      },
      "balanceOf(address)": {
        "details": "See {IERC721-balanceOf}."
      },
      "burn(uint256)": {
        "details": "Burns `tokenId`. See {ERC721-_burn}. Requirements: - The caller must own `tokenId` or be an approved operator."
      },
      "getApproved(uint256)": {
        "details": "See {IERC721-getApproved}."
      },
      "isApprovedForAll(address,address)": {
        "details": "See {IERC721-isApprovedForAll}."
      },
      "name()": {
        "details": "See {IERC721Metadata-name}."
      },
      "owner()": {
        "details": "Returns the address of the current owner."
      },
      "ownerOf(uint256)": {
        "details": "See {IERC721-ownerOf}."
      },
      "paused()": {
        "details": "Returns true if the contract is paused, and false otherwise."
      },
      "renounceOwnership()": {
        "details": "Leaves the contract without owner. It will not be possible to call `onlyOwner` functions anymore. Can only be called by the current owner. NOTE: Renouncing ownership will leave the contract without an owner, thereby removing any functionality that is only available to the owner."
      },
      "safeTransferFrom(address,address,uint256)": {
        "details": "See {IERC721-safeTransferFrom}."
      },
      "safeTransferFrom(address,address,uint256,bytes)": {
        "details": "See {IERC721-safeTransferFrom}."
      },
      "setApprovalForAll(address,bool)": {
        "details": "See {IERC721-setApprovalForAll}."
      },
      "supportsInterface(bytes4)": {
        "details": "See {IERC165-supportsInterface}."
      },
      "symbol()": {
        "details": "See {IERC721Metadata-symbol}."
      },
      "transferFrom(address,address,uint256)": {
        "details": "See {IERC721-transferFrom}."
      },
      "transferOwnership(address)": {
        "details": "Transfers ownership of the contract to a new account (`newOwner`). Can only be called by the current owner."
      },
      "withdraw(address)": {
        "details": "revert on receive()"
      }
    },
    "stateVariables": {
      "dai": {
        "details": "replace hardcoded with contract address provider interface"
      },
      "day": {
        "details": "day: used as position selector range narrower"
      },
      "isPositionInWinArray": {
        "details": "refactoring will be lots of 'fun'"
      },
      "userHasTimeEndPosition": {
        "details": "temporary limitation, reasses"
      }
    },
    "version": 1
  },
  "userdoc": {
    "kind": "user",
    "methods": {
      "submitPosition(uint32[30],uint128,uint16,string)": {
        "notice": "#if_succeeds msg.sender != _to ==> old(X) == _balances[_to]; "
      }
    },
    "version": 1
  }
}