{
  "contractName": "GameContract",
  "abi": [
    {
      "inputs": [],
      "payable": false,
      "stateMutability": "nonpayable",
      "type": "constructor"
    },
    {
      "anonymous": false,
      "inputs": [
        {
          "indexed": true,
          "internalType": "address",
          "name": "_playerOne",
          "type": "address"
        },
        {
          "indexed": true,
          "internalType": "uint24",
          "name": "_gameId",
          "type": "uint24"
        }
      ],
      "name": "newGameCreatedEvent",
      "type": "event"
    },
    {
      "constant": false,
      "inputs": [
        {
          "internalType": "address",
          "name": "_newOwner",
          "type": "address"
        }
      ],
      "name": "setNewOwner",
      "outputs": [],
      "payable": false,
      "stateMutability": "nonpayable",
      "type": "function"
    },
    {
      "constant": false,
      "inputs": [
        {
          "internalType": "address",
          "name": "_playerTwo",
          "type": "address"
        },
        {
          "internalType": "uint16",
          "name": "_startsAt",
          "type": "uint16"
        },
        {
          "internalType": "uint16",
          "name": "_totalTime",
          "type": "uint16"
        },
        {
          "internalType": "uint16",
          "name": "_timeoutTime",
          "type": "uint16"
        },
        {
          "internalType": "uint256",
          "name": "_wageSize",
          "type": "uint256"
        }
      ],
      "name": "initializeGame",
      "outputs": [
        {
          "internalType": "bool",
          "name": "",
          "type": "bool"
        }
      ],
      "payable": true,
      "stateMutability": "payable",
      "type": "function"
    },
    {
      "constant": true,
      "inputs": [],
      "name": "getLastGameId",
      "outputs": [
        {
          "internalType": "uint24",
          "name": "",
          "type": "uint24"
        }
      ],
      "payable": false,
      "stateMutability": "view",
      "type": "function"
    },
    {
      "constant": true,
      "inputs": [
        {
          "internalType": "uint24",
          "name": "gId",
          "type": "uint24"
        }
      ],
      "name": "getOpenGames",
      "outputs": [
        {
          "components": [
            {
              "internalType": "address",
              "name": "playerOne",
              "type": "address"
            },
            {
              "internalType": "address",
              "name": "playerTwo",
              "type": "address"
            },
            {
              "internalType": "enum GameContract.gameState",
              "name": "gState",
              "type": "uint8"
            },
            {
              "internalType": "bytes32",
              "name": "currentGameBoard",
              "type": "bytes32"
            },
            {
              "internalType": "address",
              "name": "lastMover",
              "type": "address"
            },
            {
              "components": [
                {
                  "internalType": "uint16",
                  "name": "startsAt",
                  "type": "uint16"
                },
                {
                  "internalType": "bool",
                  "name": "openInvite",
                  "type": "bool"
                },
                {
                  "internalType": "uint16",
                  "name": "totalTime",
                  "type": "uint16"
                },
                {
                  "internalType": "uint16",
                  "name": "timeoutTime",
                  "type": "uint16"
                },
                {
                  "internalType": "uint256",
                  "name": "wageSize",
                  "type": "uint256"
                }
              ],
              "internalType": "struct GameContract.gameSettings",
              "name": "settings",
              "type": "tuple"
            },
            {
              "internalType": "uint256",
              "name": "gameBalance",
              "type": "uint256"
            }
          ],
          "internalType": "struct GameContract.gameData",
          "name": "gameRetrieved",
          "type": "tuple"
        }
      ],
      "payable": false,
      "stateMutability": "view",
      "type": "function"
    }
  ],
  "bytecode": "0x608060405234801561001057600080fd5b5033600160006101000a81548173ffffffffffffffffffffffffffffffffffffffff021916908373ffffffffffffffffffffffffffffffffffffffff1602179055507349a3e9f02e8b0a6076f8568361926d54d17730cb600260006101000a81548173ffffffffffffffffffffffffffffffffffffffff021916908373ffffffffffffffffffffffffffffffffffffffff160217905550610ef0806100b66000396000f3fe60806040526004361061003f5760003560e01c8063817bfe76146100445780639d1f2cf814610074578063a35b6ec7146100b1578063f5a1f5b4146100dc575b600080fd5b61005e60048036036100599190810190610a57565b610105565b60405161006b9190610d0d565b60405180910390f35b34801561008057600080fd5b5061009b60048036036100969190810190610ace565b61050f565b6040516100a89190610d68565b60405180910390f35b3480156100bd57600080fd5b506100c661076f565b6040516100d39190610d84565b60405180910390f35b3480156100e857600080fd5b5061010360048036036100fe9190810190610a2e565b610788565b005b60003482101561014a576040517f08c379a000000000000000000000000000000000000000000000000000000000815260040161014190610d48565b60405180910390fd5b61015261090a565b60008073ffffffffffffffffffffffffffffffffffffffff168873ffffffffffffffffffffffffffffffffffffffff16141561018d57600190505b6040518060a001604052808861ffff16815260200182151581526020018761ffff1681526020018661ffff168152602001858152508260a0018190525033826000019073ffffffffffffffffffffffffffffffffffffffff16908173ffffffffffffffffffffffffffffffffffffffff168152505087826020019073ffffffffffffffffffffffffffffffffffffffff16908173ffffffffffffffffffffffffffffffffffffffff168152505080156102685760008260400190600481111561025257fe5b9081600481111561025f57fe5b8152505061028c565b60038260400190600481111561027a57fe5b9081600481111561028757fe5b815250505b8160036000600260149054906101000a900462ffffff1662ffffff1662ffffff16815260200190815260200160002060008201518160000160006101000a81548173ffffffffffffffffffffffffffffffffffffffff021916908373ffffffffffffffffffffffffffffffffffffffff16021790555060208201518160010160006101000a81548173ffffffffffffffffffffffffffffffffffffffff021916908373ffffffffffffffffffffffffffffffffffffffff16021790555060408201518160010160146101000a81548160ff0219169083600481111561036d57fe5b02179055506060820151816002015560808201518160030160006101000a81548173ffffffffffffffffffffffffffffffffffffffff021916908373ffffffffffffffffffffffffffffffffffffffff16021790555060a08201518160040160008201518160000160006101000a81548161ffff021916908361ffff16021790555060208201518160000160026101000a81548160ff02191690831515021790555060408201518160000160036101000a81548161ffff021916908361ffff16021790555060608201518160000160056101000a81548161ffff021916908361ffff16021790555060808201518160010155505060c082015181600601559050506002601481819054906101000a900462ffffff168092919060010191906101000a81548162ffffff021916908362ffffff16021790555050600260149054906101000a900462ffffff1662ffffff163373ffffffffffffffffffffffffffffffffffffffff167fd425e293d795bdfdff2635bb8c2e444e8e58950e315988c26faeba578362457260405160405180910390a360019250505095945050505050565b61051761090a565b6000600481111561052457fe5b600360008462ffffff1662ffffff16815260200190815260200160002060010160149054906101000a900460ff16600481111561055d57fe5b141561076a57600360008362ffffff1662ffffff1681526020019081526020016000206040518060e00160405290816000820160009054906101000a900473ffffffffffffffffffffffffffffffffffffffff1673ffffffffffffffffffffffffffffffffffffffff1673ffffffffffffffffffffffffffffffffffffffff1681526020016001820160009054906101000a900473ffffffffffffffffffffffffffffffffffffffff1673ffffffffffffffffffffffffffffffffffffffff1673ffffffffffffffffffffffffffffffffffffffff1681526020016001820160149054906101000a900460ff16600481111561065557fe5b600481111561066057fe5b8152602001600282015481526020016003820160009054906101000a900473ffffffffffffffffffffffffffffffffffffffff1673ffffffffffffffffffffffffffffffffffffffff1673ffffffffffffffffffffffffffffffffffffffff168152602001600482016040518060a00160405290816000820160009054906101000a900461ffff1661ffff1661ffff1681526020016000820160029054906101000a900460ff161515151581526020016000820160039054906101000a900461ffff1661ffff1661ffff1681526020016000820160059054906101000a900461ffff1661ffff1661ffff168152602001600182015481525050815260200160068201548152505090505b919050565b6000600260149054906101000a900462ffffff16905090565b600160009054906101000a900473ffffffffffffffffffffffffffffffffffffffff1673ffffffffffffffffffffffffffffffffffffffff163373ffffffffffffffffffffffffffffffffffffffff1614806108315750600260009054906101000a900473ffffffffffffffffffffffffffffffffffffffff1673ffffffffffffffffffffffffffffffffffffffff163373ffffffffffffffffffffffffffffffffffffffff16145b8061088857506000809054906101000a900473ffffffffffffffffffffffffffffffffffffffff1673ffffffffffffffffffffffffffffffffffffffff163373ffffffffffffffffffffffffffffffffffffffff16145b6108c7576040517f08c379a00000000000000000000000000000000000000000000000000000000081526004016108be90610d28565b60405180910390fd5b806000806101000a81548173ffffffffffffffffffffffffffffffffffffffff021916908373ffffffffffffffffffffffffffffffffffffffff16021790555050565b6040518060e00160405280600073ffffffffffffffffffffffffffffffffffffffff168152602001600073ffffffffffffffffffffffffffffffffffffffff1681526020016000600481111561095c57fe5b815260200160008019168152602001600073ffffffffffffffffffffffffffffffffffffffff16815260200161099061099d565b8152602001600081525090565b6040518060a00160405280600061ffff168152602001600015158152602001600061ffff168152602001600061ffff168152602001600081525090565b6000813590506109e981610e51565b92915050565b6000813590506109fe81610e68565b92915050565b600081359050610a1381610e7f565b92915050565b600081359050610a2881610e96565b92915050565b600060208284031215610a4057600080fd5b6000610a4e848285016109da565b91505092915050565b600080600080600060a08688031215610a6f57600080fd5b6000610a7d888289016109da565b9550506020610a8e888289016109ef565b9450506040610a9f888289016109ef565b9350506060610ab0888289016109ef565b9250506080610ac188828901610a19565b9150509295509295909350565b600060208284031215610ae057600080fd5b6000610aee84828501610a04565b91505092915050565b610b0081610db0565b82525050565b610b0f81610dc2565b82525050565b610b1e81610dc2565b82525050565b610b2d81610dce565b82525050565b610b3c81610e32565b82525050565b6000610b4f600c83610d9f565b91507f4e6f7420616e204f776e657200000000000000000000000000000000000000006000830152602082019050919050565b6000610b8f602883610d9f565b91507f536f6d657468696e2077656e742077726f6e672c206f7220796f75277265206d60008301527f697374616b656e2e0000000000000000000000000000000000000000000000006020830152604082019050919050565b61016082016000820151610bff6000850182610af7565b506020820151610c126020850182610af7565b506040820151610c256040850182610b33565b506060820151610c386060850182610b24565b506080820151610c4b6080850182610af7565b5060a0820151610c5e60a0850182610c78565b5060c0820151610c72610140850182610cfe565b50505050565b60a082016000820151610c8e6000850182610ce0565b506020820151610ca16020850182610b06565b506040820151610cb46040850182610ce0565b506060820151610cc76060850182610ce0565b506080820151610cda6080850182610cfe565b50505050565b610ce981610deb565b82525050565b610cf881610e19565b82525050565b610d0781610e28565b82525050565b6000602082019050610d226000830184610b15565b92915050565b60006020820190508181036000830152610d4181610b42565b9050919050565b60006020820190508181036000830152610d6181610b82565b9050919050565b600061016082019050610d7e6000830184610be8565b92915050565b6000602082019050610d996000830184610cef565b92915050565b600082825260208201905092915050565b6000610dbb82610df9565b9050919050565b60008115159050919050565b6000819050919050565b6000819050610de682610e44565b919050565b600061ffff82169050919050565b600073ffffffffffffffffffffffffffffffffffffffff82169050919050565b600062ffffff82169050919050565b6000819050919050565b6000610e3d82610dd8565b9050919050565b60058110610e4e57fe5b50565b610e5a81610db0565b8114610e6557600080fd5b50565b610e7181610deb565b8114610e7c57600080fd5b50565b610e8881610e19565b8114610e9357600080fd5b50565b610e9f81610e28565b8114610eaa57600080fd5b5056fea365627a7a72315820d4f8a7e35490f789fdeb59ee13aa1e8c225214c3d8410b563e1e2cdd60a6a2ce6c6578706572696d656e74616cf564736f6c63430005100040",
  "source": "// SPDX-License-Identifier: MIT\n//pragma solidity >=0.4.22 <0.9.0;\npragma solidity >=0.5.16;\npragma experimental ABIEncoderV2;\n\ncontract GameContract {\n\n  address owner3;\n  address owner;\n  address owner2;\n  \n//////// Constructor \n//compiler requires public\n  constructor() public {\n    owner= msg.sender;\n    owner2= address(0x49A3e9f02E8b0a6076f8568361926D54d17730Cb);\n  }\n/////// Constructor END\n  \n  enum gameState { Created, InProgress, Ended, Staged, Open }\n  \n  struct gameSettings {\n    uint16 startsAt;\n    bool openInvite;\n    uint16 totalTime;\n    uint16 timeoutTime;\n    uint wageSize; \n  }\n\n  struct gameData {\n    address playerOne;\n    address playerTwo;\n    gameState gState;\n    bytes32 currentGameBoard;\n    address lastMover;\n    gameSettings settings;\n    uint gameBalance; \n  }\n  \n  uint24 gameId;\n  mapping (uint24 => gameData) games; \n  mapping (address => uint24) myLastGame;\n  address[32] gameOwners;\n  address[32] gamePlayers;\n\n  event newGameCreatedEvent(address indexed _playerOne, uint24 indexed _gameId);\n\n////// Modifiers Start \n  modifier isOwner() {\n    require (msg.sender == owner|| msg.sender == owner2 || msg.sender == owner3, \"Not an Owner\");\n    _; \n  }\n   function setNewOwner(address _newOwner) isOwner external {\n     owner3= _newOwner;\n  }\n\n////// Modifiers END\n\n\n  function initializeGame(address _playerTwo,\n                          uint16 _startsAt,\n                          uint16 _totalTime,\n                          uint16 _timeoutTime,\n                          uint _wageSize ) public payable returns(bool) {\n    \n\n    require(_wageSize >= msg.value, \"Somethin went wrong, or you're mistaken.\");\n\n    gameData memory initializedGame;\n    bool openGame;\n\n    if (_playerTwo == address(0)) { \n      openGame= true; \n      }\n\n    initializedGame.settings = gameSettings ({ startsAt: _startsAt,\n                                              openInvite: openGame,\n                                              totalTime: _totalTime,\n                                              timeoutTime: _timeoutTime,\n                                              wageSize:  _wageSize });\n\n    initializedGame.playerOne= msg.sender;\n    initializedGame.playerTwo= _playerTwo;\n\n    if (openGame) {\n      initializedGame.gState = gameState.Created;\n    } else {\n      initializedGame.gState = gameState.Staged;\n    }\n    \n    games[gameId]= initializedGame; \n    gameId++;\n\n    emit newGameCreatedEvent(msg.sender,gameId);\n    return true;\n  }\n\n  function getLastGameId() public view returns(uint24) {\n    return gameId; \n  }\n\n  function getOpenGames(uint24 gId) public view returns(gameData memory gameRetrieved) {\n    if (games[gId].gState == gameState.Created) {\n      gameRetrieved = games[gId];\n    }\n  }\n \n\n\n  \n\n\n\n\n}\n",
  "sourcePath": "/home/pbdesk2/Desktop/github/consensys_final_project/contracts/GameContract.sol",
  "compiler": {
    "name": "solc",
    "version": "0.5.16+commit.9c3226ce.Emscripten.clang"
  },
  "schemaVersion": "3.4.3",
  "updatedAt": "2021-09-17T21:23:12.198Z",
  "networkType": "ethereum",
  "devdoc": {
    "methods": {}
  },
  "userdoc": {
    "methods": {
      "constructor": "///// Constructor ",
      "initializeGame(address,uint16,uint16,uint16,uint256)": {
        "notice": "/// Modifiers END"
      }
    }
  }
}