{
  "contractName": "GameContract",
  "abi": [
    {
      "inputs": [],
      "stateMutability": "nonpayable",
      "type": "constructor"
    },
    {
      "anonymous": false,
      "inputs": [
        {
          "indexed": true,
          "internalType": "address",
          "name": "_playerOne",
          "type": "address"
        },
        {
          "indexed": true,
          "internalType": "uint24",
          "name": "_gameId",
          "type": "uint24"
        }
      ],
      "name": "newGameCreatedEvent",
      "type": "event"
    },
    {
      "inputs": [
        {
          "internalType": "uint24",
          "name": "",
          "type": "uint24"
        }
      ],
      "name": "games",
      "outputs": [
        {
          "internalType": "address",
          "name": "playerOne",
          "type": "address"
        },
        {
          "internalType": "address",
          "name": "playerTwo",
          "type": "address"
        },
        {
          "internalType": "enum GameContract.gameState",
          "name": "gState",
          "type": "uint8"
        },
        {
          "internalType": "bytes32",
          "name": "currentGameBoard",
          "type": "bytes32"
        },
        {
          "internalType": "address",
          "name": "lastMover",
          "type": "address"
        },
        {
          "components": [
            {
              "internalType": "uint16",
              "name": "startsAt",
              "type": "uint16"
            },
            {
              "internalType": "bool",
              "name": "openInvite",
              "type": "bool"
            },
            {
              "internalType": "uint16",
              "name": "totalTime",
              "type": "uint16"
            },
            {
              "internalType": "uint16",
              "name": "timeoutTime",
              "type": "uint16"
            },
            {
              "internalType": "uint256",
              "name": "wageSize",
              "type": "uint256"
            }
          ],
          "internalType": "struct GameContract.gameSettings",
          "name": "settings",
          "type": "tuple"
        },
        {
          "internalType": "uint256",
          "name": "gameBalance",
          "type": "uint256"
        }
      ],
      "stateMutability": "view",
      "type": "function",
      "constant": true
    },
    {
      "inputs": [
        {
          "internalType": "address",
          "name": "_newOwner",
          "type": "address"
        }
      ],
      "name": "setNewOwner",
      "outputs": [],
      "stateMutability": "nonpayable",
      "type": "function"
    },
    {
      "inputs": [
        {
          "internalType": "address",
          "name": "_playerTwo",
          "type": "address"
        },
        {
          "internalType": "uint16",
          "name": "_startsAt",
          "type": "uint16"
        },
        {
          "internalType": "uint16",
          "name": "_totalTime",
          "type": "uint16"
        },
        {
          "internalType": "uint16",
          "name": "_timeoutTime",
          "type": "uint16"
        },
        {
          "internalType": "uint256",
          "name": "_wageSize",
          "type": "uint256"
        }
      ],
      "name": "initializeGame",
      "outputs": [
        {
          "internalType": "uint24",
          "name": "justCreatedGameId",
          "type": "uint24"
        }
      ],
      "stateMutability": "payable",
      "type": "function",
      "payable": true
    },
    {
      "inputs": [],
      "name": "getLastGameId",
      "outputs": [
        {
          "internalType": "uint24",
          "name": "",
          "type": "uint24"
        }
      ],
      "stateMutability": "view",
      "type": "function",
      "constant": true
    },
    {
      "inputs": [
        {
          "internalType": "uint24",
          "name": "gId",
          "type": "uint24"
        }
      ],
      "name": "getGame",
      "outputs": [
        {
          "components": [
            {
              "internalType": "address",
              "name": "playerOne",
              "type": "address"
            },
            {
              "internalType": "address",
              "name": "playerTwo",
              "type": "address"
            },
            {
              "internalType": "enum GameContract.gameState",
              "name": "gState",
              "type": "uint8"
            },
            {
              "internalType": "bytes32",
              "name": "currentGameBoard",
              "type": "bytes32"
            },
            {
              "internalType": "address",
              "name": "lastMover",
              "type": "address"
            },
            {
              "components": [
                {
                  "internalType": "uint16",
                  "name": "startsAt",
                  "type": "uint16"
                },
                {
                  "internalType": "bool",
                  "name": "openInvite",
                  "type": "bool"
                },
                {
                  "internalType": "uint16",
                  "name": "totalTime",
                  "type": "uint16"
                },
                {
                  "internalType": "uint16",
                  "name": "timeoutTime",
                  "type": "uint16"
                },
                {
                  "internalType": "uint256",
                  "name": "wageSize",
                  "type": "uint256"
                }
              ],
              "internalType": "struct GameContract.gameSettings",
              "name": "settings",
              "type": "tuple"
            },
            {
              "internalType": "uint256",
              "name": "gameBalance",
              "type": "uint256"
            }
          ],
          "internalType": "struct GameContract.gameData",
          "name": "",
          "type": "tuple"
        }
      ],
      "stateMutability": "view",
      "type": "function",
      "constant": true
    },
    {
      "inputs": [],
      "name": "checkAndReturnCurrentGame",
      "outputs": [
        {
          "components": [
            {
              "internalType": "address",
              "name": "playerOne",
              "type": "address"
            },
            {
              "internalType": "address",
              "name": "playerTwo",
              "type": "address"
            },
            {
              "internalType": "enum GameContract.gameState",
              "name": "gState",
              "type": "uint8"
            },
            {
              "internalType": "bytes32",
              "name": "currentGameBoard",
              "type": "bytes32"
            },
            {
              "internalType": "address",
              "name": "lastMover",
              "type": "address"
            },
            {
              "components": [
                {
                  "internalType": "uint16",
                  "name": "startsAt",
                  "type": "uint16"
                },
                {
                  "internalType": "bool",
                  "name": "openInvite",
                  "type": "bool"
                },
                {
                  "internalType": "uint16",
                  "name": "totalTime",
                  "type": "uint16"
                },
                {
                  "internalType": "uint16",
                  "name": "timeoutTime",
                  "type": "uint16"
                },
                {
                  "internalType": "uint256",
                  "name": "wageSize",
                  "type": "uint256"
                }
              ],
              "internalType": "struct GameContract.gameSettings",
              "name": "settings",
              "type": "tuple"
            },
            {
              "internalType": "uint256",
              "name": "gameBalance",
              "type": "uint256"
            }
          ],
          "internalType": "struct GameContract.gameData",
          "name": "game",
          "type": "tuple"
        }
      ],
      "stateMutability": "view",
      "type": "function",
      "constant": true
    }
  ],
  "bytecode": "0x608060405234801561001057600080fd5b5033600160006101000a81548173ffffffffffffffffffffffffffffffffffffffff021916908373ffffffffffffffffffffffffffffffffffffffff1602179055507349a3e9f02e8b0a6076f8568361926d54d17730cb600260006101000a81548173ffffffffffffffffffffffffffffffffffffffff021916908373ffffffffffffffffffffffffffffffffffffffff1602179055506001600260146101000a81548162ffffff021916908362ffffff1602179055506116ff806100d66000396000f3fe6080604052600436106100555760003560e01c80637ab2942b1461005a578063817bfe76146100855780638773f0c8146100b5578063933a0277146100f2578063a35b6ec714610135578063f5a1f5b414610160575b600080fd5b34801561006657600080fd5b5061006f610189565b60405161007c919061157b565b60405180910390f35b61009f600480360381019061009a919061117f565b6103fc565b6040516100ac9190611597565b60405180910390f35b3480156100c157600080fd5b506100dc60048036038101906100d791906111f6565b610891565b6040516100e9919061157b565b60405180910390f35b3480156100fe57600080fd5b50610119600480360381019061011491906111f6565b610aa4565b60405161012c97969594939291906114ca565b60405180910390f35b34801561014157600080fd5b5061014a610be2565b6040516101579190611597565b60405180910390f35b34801561016c57600080fd5b5061018760048036038101906101829190611156565b610bfe565b005b610191611032565b61019a33610d7f565b156101a4576103f9565b60036000600460003373ffffffffffffffffffffffffffffffffffffffff1673ffffffffffffffffffffffffffffffffffffffff16815260200190815260200160002060009054906101000a900462ffffff1662ffffff1662ffffff1681526020019081526020016000206040518060e00160405290816000820160009054906101000a900473ffffffffffffffffffffffffffffffffffffffff1673ffffffffffffffffffffffffffffffffffffffff1673ffffffffffffffffffffffffffffffffffffffff1681526020016001820160009054906101000a900473ffffffffffffffffffffffffffffffffffffffff1673ffffffffffffffffffffffffffffffffffffffff1673ffffffffffffffffffffffffffffffffffffffff1681526020016001820160149054906101000a900460ff1660038111156102e457fe5b60038111156102ef57fe5b8152602001600282015481526020016003820160009054906101000a900473ffffffffffffffffffffffffffffffffffffffff1673ffffffffffffffffffffffffffffffffffffffff1673ffffffffffffffffffffffffffffffffffffffff168152602001600482016040518060a00160405290816000820160009054906101000a900461ffff1661ffff1661ffff1681526020016000820160029054906101000a900460ff161515151581526020016000820160039054906101000a900461ffff1661ffff1661ffff1681526020016000820160059054906101000a900461ffff1661ffff1661ffff168152602001600182015481525050815260200160068201548152505090505b90565b6000806040518060e001604052803373ffffffffffffffffffffffffffffffffffffffff1681526020018873ffffffffffffffffffffffffffffffffffffffff1681526020016001600381111561044f57fe5b815260200160008019168152602001600073ffffffffffffffffffffffffffffffffffffffff1681526020016040518060a001604052808961ffff16815260200184151581526020018861ffff1681526020018761ffff1681526020018681525081526020013481525060036000600260149054906101000a900462ffffff1662ffffff1662ffffff16815260200190815260200160002060008201518160000160006101000a81548173ffffffffffffffffffffffffffffffffffffffff021916908373ffffffffffffffffffffffffffffffffffffffff16021790555060208201518160010160006101000a81548173ffffffffffffffffffffffffffffffffffffffff021916908373ffffffffffffffffffffffffffffffffffffffff16021790555060408201518160010160146101000a81548160ff0219169083600381111561059957fe5b02179055506060820151816002015560808201518160030160006101000a81548173ffffffffffffffffffffffffffffffffffffffff021916908373ffffffffffffffffffffffffffffffffffffffff16021790555060a08201518160040160008201518160000160006101000a81548161ffff021916908361ffff16021790555060208201518160000160026101000a81548160ff02191690831515021790555060408201518160000160036101000a81548161ffff021916908361ffff16021790555060608201518160000160056101000a81548161ffff021916908361ffff16021790555060808201518160010155505060c082015181600601559050506106a333610d7f565b80156106b457506106b387610d7f565b5b6106f3576040517f08c379a00000000000000000000000000000000000000000000000000000000081526004016106ea9061155b565b60405180910390fd5b600260149054906101000a900462ffffff16600460003373ffffffffffffffffffffffffffffffffffffffff1673ffffffffffffffffffffffffffffffffffffffff16815260200190815260200160002060006101000a81548162ffffff021916908362ffffff160217905550600260149054906101000a900462ffffff16600460008973ffffffffffffffffffffffffffffffffffffffff1673ffffffffffffffffffffffffffffffffffffffff16815260200190815260200160002060006101000a81548162ffffff021916908362ffffff160217905550600260149054906101000a900462ffffff169150600260149054906101000a900462ffffff1662ffffff163373ffffffffffffffffffffffffffffffffffffffff167fd425e293d795bdfdff2635bb8c2e444e8e58950e315988c26faeba578362457260405160405180910390a36002601481819054906101000a900462ffffff168092919060010191906101000a81548162ffffff021916908362ffffff16021790555050600260149054906101000a900462ffffff1691505095945050505050565b610899611032565b600360008362ffffff1662ffffff1681526020019081526020016000206040518060e00160405290816000820160009054906101000a900473ffffffffffffffffffffffffffffffffffffffff1673ffffffffffffffffffffffffffffffffffffffff1673ffffffffffffffffffffffffffffffffffffffff1681526020016001820160009054906101000a900473ffffffffffffffffffffffffffffffffffffffff1673ffffffffffffffffffffffffffffffffffffffff1673ffffffffffffffffffffffffffffffffffffffff1681526020016001820160149054906101000a900460ff16600381111561098b57fe5b600381111561099657fe5b8152602001600282015481526020016003820160009054906101000a900473ffffffffffffffffffffffffffffffffffffffff1673ffffffffffffffffffffffffffffffffffffffff1673ffffffffffffffffffffffffffffffffffffffff168152602001600482016040518060a00160405290816000820160009054906101000a900461ffff1661ffff1661ffff1681526020016000820160029054906101000a900460ff161515151581526020016000820160039054906101000a900461ffff1661ffff1661ffff1681526020016000820160059054906101000a900461ffff1661ffff1661ffff16815260200160018201548152505081526020016006820154815250509050919050565b60036020528060005260406000206000915090508060000160009054906101000a900473ffffffffffffffffffffffffffffffffffffffff16908060010160009054906101000a900473ffffffffffffffffffffffffffffffffffffffff16908060010160149054906101000a900460ff16908060020154908060030160009054906101000a900473ffffffffffffffffffffffffffffffffffffffff1690806004016040518060a00160405290816000820160009054906101000a900461ffff1661ffff1661ffff1681526020016000820160029054906101000a900460ff161515151581526020016000820160039054906101000a900461ffff1661ffff1661ffff1681526020016000820160059054906101000a900461ffff1661ffff1661ffff168152602001600182015481525050908060060154905087565b60006001600260149054906101000a900462ffffff1603905090565b600160009054906101000a900473ffffffffffffffffffffffffffffffffffffffff1673ffffffffffffffffffffffffffffffffffffffff163373ffffffffffffffffffffffffffffffffffffffff161480610ca75750600260009054906101000a900473ffffffffffffffffffffffffffffffffffffffff1673ffffffffffffffffffffffffffffffffffffffff163373ffffffffffffffffffffffffffffffffffffffff16145b80610cfd575060008054906101000a900473ffffffffffffffffffffffffffffffffffffffff1673ffffffffffffffffffffffffffffffffffffffff163373ffffffffffffffffffffffffffffffffffffffff16145b610d3c576040517f08c379a0000000000000000000000000000000000000000000000000000000008152600401610d339061153b565b60405180910390fd5b806000806101000a81548173ffffffffffffffffffffffffffffffffffffffff021916908373ffffffffffffffffffffffffffffffffffffffff16021790555050565b60008060036000600460008673ffffffffffffffffffffffffffffffffffffffff1673ffffffffffffffffffffffffffffffffffffffff16815260200190815260200160002060009054906101000a900462ffffff1662ffffff1662ffffff1681526020019081526020016000206040518060e00160405290816000820160009054906101000a900473ffffffffffffffffffffffffffffffffffffffff1673ffffffffffffffffffffffffffffffffffffffff1673ffffffffffffffffffffffffffffffffffffffff1681526020016001820160009054906101000a900473ffffffffffffffffffffffffffffffffffffffff1673ffffffffffffffffffffffffffffffffffffffff1673ffffffffffffffffffffffffffffffffffffffff1681526020016001820160149054906101000a900460ff166003811115610ec257fe5b6003811115610ecd57fe5b8152602001600282015481526020016003820160009054906101000a900473ffffffffffffffffffffffffffffffffffffffff1673ffffffffffffffffffffffffffffffffffffffff1673ffffffffffffffffffffffffffffffffffffffff168152602001600482016040518060a00160405290816000820160009054906101000a900461ffff1661ffff1661ffff1681526020016000820160029054906101000a900460ff161515151581526020016000820160039054906101000a900461ffff1661ffff1661ffff1681526020016000820160059054906101000a900461ffff1661ffff1661ffff16815260200160018201548152505081526020016006820154815250509050600380811115610fe257fe5b81604001516003811115610ff257fe5b148061101857506000600381111561100657fe5b8160400151600381111561101657fe5b145b1561102757600191505061102d565b60009150505b919050565b6040518060e00160405280600073ffffffffffffffffffffffffffffffffffffffff168152602001600073ffffffffffffffffffffffffffffffffffffffff1681526020016000600381111561108457fe5b815260200160008019168152602001600073ffffffffffffffffffffffffffffffffffffffff1681526020016110b86110c5565b8152602001600081525090565b6040518060a00160405280600061ffff168152602001600015158152602001600061ffff168152602001600061ffff168152602001600081525090565b6000813590506111118161166d565b92915050565b60008135905061112681611684565b92915050565b60008135905061113b8161169b565b92915050565b600081359050611150816116b2565b92915050565b60006020828403121561116857600080fd5b600061117684828501611102565b91505092915050565b600080600080600060a0868803121561119757600080fd5b60006111a588828901611102565b95505060206111b688828901611117565b94505060406111c788828901611117565b93505060606111d888828901611117565b92505060806111e988828901611141565b9150509295509295909350565b60006020828403121561120857600080fd5b60006112168482850161112c565b91505092915050565b611228816115c3565b82525050565b611237816115c3565b82525050565b611246816115d5565b82525050565b611255816115e1565b82525050565b611264816115e1565b82525050565b61127381611645565b82525050565b61128281611645565b82525050565b6000611295600c836115b2565b91507f4e6f7420616e204f776e657200000000000000000000000000000000000000006000830152602082019050919050565b60006112d5602a836115b2565b91507f4f6e65206f662074686520706c61796572732068617320612067616d6520696e60008301527f2070726f67726573732e000000000000000000000000000000000000000000006020830152604082019050919050565b61016082016000820151611345600085018261121f565b506020820151611358602085018261121f565b50604082015161136b604085018261126a565b50606082015161137e606085018261124c565b506080820151611391608085018261121f565b5060a08201516113a460a08501826113be565b5060c08201516113b86101408501826114ac565b50505050565b60a0820160008201516113d4600085018261148e565b5060208201516113e7602085018261123d565b5060408201516113fa604085018261148e565b50606082015161140d606085018261148e565b50608082015161142060808501826114ac565b50505050565b60a08201600082015161143c600085018261148e565b50602082015161144f602085018261123d565b506040820151611462604085018261148e565b506060820151611475606085018261148e565b50608082015161148860808501826114ac565b50505050565b611497816115fe565b82525050565b6114a68161162c565b82525050565b6114b58161163b565b82525050565b6114c48161163b565b82525050565b6000610160820190506114e0600083018a61122e565b6114ed602083018961122e565b6114fa6040830188611279565b611507606083018761125b565b611514608083018661122e565b61152160a0830185611426565b61152f6101408301846114bb565b98975050505050505050565b6000602082019050818103600083015261155481611288565b9050919050565b60006020820190508181036000830152611574816112c8565b9050919050565b600061016082019050611591600083018461132e565b92915050565b60006020820190506115ac600083018461149d565b92915050565b600082825260208201905092915050565b60006115ce8261160c565b9050919050565b60008115159050919050565b6000819050919050565b60008190506115f982611659565b919050565b600061ffff82169050919050565b600073ffffffffffffffffffffffffffffffffffffffff82169050919050565b600062ffffff82169050919050565b6000819050919050565b6000611650826115eb565b9050919050565bfe5b6004811061166a57611669611657565b5b50565b611676816115c3565b811461168157600080fd5b50565b61168d816115fe565b811461169857600080fd5b50565b6116a48161162c565b81146116af57600080fd5b50565b6116bb8161163b565b81146116c657600080fd5b5056fea2646970667358221220eea815a57395afbdea12bb07557b5dc9e27666b19ab71108bc90845efdb2a5ca64736f6c63430007060033",
  "immutableReferences": {},
  "source": "// SPDX-License-Identifier: MIT\n//pragma solidity >=0.4.22 <0.9.0;\npragma solidity >=0.7.0;\npragma experimental ABIEncoderV2;\n\ncontract GameContract {\n\n  address owner3;\n  address owner;\n  address owner2;\n  uint24 gameId;\n  \n//////// Constructor \n//compiler requires public\n  constructor() {\n    owner= msg.sender;\n    owner2= address(0x49A3e9f02E8b0a6076f8568361926D54d17730Cb);\n    gameId=1;\n  }\n\n   function setNewOwner(address _newOwner) isOwner external {\n     owner3= _newOwner;\n  }\n/////// Constructor END\n  \n  //enum gameState {NoAssignedState, Created, InProgress, Ended, Staged, Open }\n  enum gameState {NoAssignedState, Staged, InProgress, Ended }\n  \n  struct gameSettings {\n    uint16 startsAt;\n    bool openInvite;\n    uint16 totalTime;\n    uint16 timeoutTime;\n    uint wageSize; \n  }\n\n  struct gameData {\n    address playerOne;\n    address playerTwo;\n    gameState gState;\n    bytes32 currentGameBoard;\n    address lastMover;\n    gameSettings settings;\n    uint gameBalance; \n  }\n  \n  \n  mapping (uint24 => gameData) public games; \n  mapping (address => uint24) myLastGame;\n  address[32] gameOwners;\n  address[32] gamePlayers;\n\n  event newGameCreatedEvent(address indexed _playerOne, uint24 indexed _gameId);\n\n////// Modifiers Start \n  modifier isOwner() {\n    require (msg.sender == owner|| msg.sender == owner2 || msg.sender == owner3, \"Not an Owner\");\n    _; \n  }\n\n  function noOtherGameOnCreate(address player1) internal view returns(bool) {\n    gameData memory lastPlayer1Game = games[myLastGame[player1]]; \n    //gameData memory lastPlayer2Game = games[myLastGame[player2]];\n\n    if( (lastPlayer1Game.gState == gameState.Ended) || (lastPlayer1Game.gState == gameState.NoAssignedState) ){\n      return true;\n    } else {\n      return false;\n    }\n    //require( (lastPlayer2Game.gState == gameState.Ended) || (lastPlayer2Game.gState == gameState.NoAssignedState), \"Player 2 has game in progress.\" ); \n  }\n  \n\n////// Modifiers END\n\n\n  function initializeGame(address _playerTwo,\n                          uint16 _startsAt,\n                          uint16 _totalTime,\n                          uint16 _timeoutTime,\n                          uint _wageSize ) public payable returns(uint24 justCreatedGameId) {\n    \n\n    //require(_wageSize >= msg.value, \"Somethin went wrong, or you're mistaken.\");\n\n    //gameData storage initializedGame;\n    bool openGame;\n  \n\n    games[gameId]= gameData({\n                            playerOne: msg.sender,\n                            playerTwo: _playerTwo,\n                            gState: gameState.Staged,\n                            currentGameBoard:\"\",\n                            lastMover: address(0),\n                            settings: gameSettings ({ startsAt: _startsAt,\n                                              openInvite: openGame,\n                                              totalTime: _totalTime,\n                                              timeoutTime: _timeoutTime,\n                                              wageSize:  _wageSize }),\n                            gameBalance: msg.value \n                            });\n\n    require((noOtherGameOnCreate(msg.sender) && noOtherGameOnCreate(_playerTwo)), \"One of the players has a game in progress.\");\n\n    // if (! (_playerTwo == address(0)) ) { \n    //   games[gameId].gState = gameState.Staged;\n       \n    //   } \n\n    myLastGame[msg.sender]= gameId;\n    myLastGame[_playerTwo]= gameId;\n    \n\n    // games[gameId].settings = gameSettings ({ startsAt: _startsAt,\n    //                                           openInvite: openGame,\n    //                                           totalTime: _totalTime,\n    //                                           timeoutTime: _timeoutTime,\n    //                                           wageSize:  _wageSize });\n\n    // games[gameId].playerOne= msg.sender;\n    // games[gameId].playerTwo= _playerTwo;\n\n    // if (openGame) {\n    //   games[gameId].gState = gameState.Created;\n    // } else {\n    //   games[gameId].gState = gameState.Staged;\n    // }\n    justCreatedGameId = gameId;\n    \n    emit newGameCreatedEvent(msg.sender,gameId);\n    gameId++;\n\n    return gameId;\n  }\n\n  function getLastGameId() public view returns(uint24) {\n    return gameId-1; \n  }\n\n  function getGame(uint24 gId) public view returns(gameData memory )  {\n      return games[gId];\n  }\n \n  function checkAndReturnCurrentGame() public view returns (gameData memory game) {\n    if ( noOtherGameOnCreate(msg.sender)) {\n      return game;\n    } else {\n      game= games[myLastGame[msg.sender]];\n      return game;\n    }\n    \n  }\n\n  \n\n\n\n\n}\n",
  "sourcePath": "/home/pbdesk2/Desktop/github/consensys_final_project/contracts/GameContract.sol",
  "compiler": {
    "name": "solc",
    "version": "0.7.6+commit.7338295f.Emscripten.clang"
  },
  "schemaVersion": "3.4.3",
  "updatedAt": "2021-09-19T12:33:08.993Z",
  "networkType": "ethereum",
  "devdoc": {
    "kind": "dev",
    "methods": {},
    "version": 1
  },
  "userdoc": {
    "kind": "user",
    "methods": {},
    "version": 1
  }
}