{
  "contractName": "GameContract",
  "abi": [
    {
      "inputs": [],
      "stateMutability": "nonpayable",
      "type": "constructor"
    },
    {
      "anonymous": false,
      "inputs": [
        {
          "indexed": true,
          "internalType": "address",
          "name": "_playerOne",
          "type": "address"
        },
        {
          "indexed": true,
          "internalType": "uint24",
          "name": "_gameId",
          "type": "uint24"
        }
      ],
      "name": "newGameCreatedEvent",
      "type": "event"
    },
    {
      "inputs": [
        {
          "internalType": "uint24",
          "name": "",
          "type": "uint24"
        }
      ],
      "name": "games",
      "outputs": [
        {
          "internalType": "address",
          "name": "playerOne",
          "type": "address"
        },
        {
          "internalType": "address",
          "name": "playerTwo",
          "type": "address"
        },
        {
          "internalType": "enum GameContract.gameState",
          "name": "gState",
          "type": "uint8"
        },
        {
          "internalType": "bytes32",
          "name": "currentGameBoard",
          "type": "bytes32"
        },
        {
          "internalType": "address",
          "name": "lastMover",
          "type": "address"
        },
        {
          "components": [
            {
              "internalType": "uint16",
              "name": "startsAt",
              "type": "uint16"
            },
            {
              "internalType": "bool",
              "name": "openInvite",
              "type": "bool"
            },
            {
              "internalType": "uint16",
              "name": "totalTime",
              "type": "uint16"
            },
            {
              "internalType": "uint16",
              "name": "timeoutTime",
              "type": "uint16"
            },
            {
              "internalType": "uint256",
              "name": "wageSize",
              "type": "uint256"
            }
          ],
          "internalType": "struct GameContract.gameSettings",
          "name": "settings",
          "type": "tuple"
        },
        {
          "internalType": "uint256",
          "name": "gameBalance",
          "type": "uint256"
        }
      ],
      "stateMutability": "view",
      "type": "function",
      "constant": true
    },
    {
      "inputs": [
        {
          "internalType": "address",
          "name": "_newOwner",
          "type": "address"
        }
      ],
      "name": "setNewOwner",
      "outputs": [],
      "stateMutability": "nonpayable",
      "type": "function"
    },
    {
      "inputs": [
        {
          "internalType": "address",
          "name": "_playerTwo",
          "type": "address"
        },
        {
          "internalType": "uint16",
          "name": "_startsAt",
          "type": "uint16"
        },
        {
          "internalType": "uint16",
          "name": "_totalTime",
          "type": "uint16"
        },
        {
          "internalType": "uint16",
          "name": "_timeoutTime",
          "type": "uint16"
        },
        {
          "internalType": "uint256",
          "name": "_wageSize",
          "type": "uint256"
        }
      ],
      "name": "initializeGame",
      "outputs": [
        {
          "internalType": "uint24",
          "name": "",
          "type": "uint24"
        }
      ],
      "stateMutability": "payable",
      "type": "function",
      "payable": true
    },
    {
      "inputs": [],
      "name": "getLastGameId",
      "outputs": [
        {
          "internalType": "uint24",
          "name": "",
          "type": "uint24"
        }
      ],
      "stateMutability": "view",
      "type": "function",
      "constant": true
    },
    {
      "inputs": [
        {
          "internalType": "uint24",
          "name": "gId",
          "type": "uint24"
        }
      ],
      "name": "getGame",
      "outputs": [
        {
          "components": [
            {
              "internalType": "address",
              "name": "playerOne",
              "type": "address"
            },
            {
              "internalType": "address",
              "name": "playerTwo",
              "type": "address"
            },
            {
              "internalType": "enum GameContract.gameState",
              "name": "gState",
              "type": "uint8"
            },
            {
              "internalType": "bytes32",
              "name": "currentGameBoard",
              "type": "bytes32"
            },
            {
              "internalType": "address",
              "name": "lastMover",
              "type": "address"
            },
            {
              "components": [
                {
                  "internalType": "uint16",
                  "name": "startsAt",
                  "type": "uint16"
                },
                {
                  "internalType": "bool",
                  "name": "openInvite",
                  "type": "bool"
                },
                {
                  "internalType": "uint16",
                  "name": "totalTime",
                  "type": "uint16"
                },
                {
                  "internalType": "uint16",
                  "name": "timeoutTime",
                  "type": "uint16"
                },
                {
                  "internalType": "uint256",
                  "name": "wageSize",
                  "type": "uint256"
                }
              ],
              "internalType": "struct GameContract.gameSettings",
              "name": "settings",
              "type": "tuple"
            },
            {
              "internalType": "uint256",
              "name": "gameBalance",
              "type": "uint256"
            }
          ],
          "internalType": "struct GameContract.gameData",
          "name": "",
          "type": "tuple"
        }
      ],
      "stateMutability": "view",
      "type": "function",
      "constant": true
    }
  ],
  "bytecode": "0x608060405234801561001057600080fd5b5033600160006101000a81548173ffffffffffffffffffffffffffffffffffffffff021916908373ffffffffffffffffffffffffffffffffffffffff1602179055507349a3e9f02e8b0a6076f8568361926d54d17730cb600260006101000a81548173ffffffffffffffffffffffffffffffffffffffff021916908373ffffffffffffffffffffffffffffffffffffffff1602179055506001600260146101000a81548162ffffff021916908362ffffff160217905550611048806100d66000396000f3fe60806040526004361061004a5760003560e01c8063817bfe761461004f5780638773f0c81461007f578063933a0277146100bc578063a35b6ec7146100ff578063f5a1f5b41461012a575b600080fd5b61006960048036038101906100649190610b4e565b610153565b6040516100769190610ee0565b60405180910390f35b34801561008b57600080fd5b506100a660048036038101906100a19190610bc5565b610516565b6040516100b39190610ec4565b60405180910390f35b3480156100c857600080fd5b506100e360048036038101906100de9190610bc5565b610729565b6040516100f69796959493929190610e33565b60405180910390f35b34801561010b57600080fd5b50610114610867565b6040516101219190610ee0565b60405180910390f35b34801561013657600080fd5b50610151600480360381019061014c9190610b25565b610880565b005b6000806040518060e001604052803373ffffffffffffffffffffffffffffffffffffffff1681526020018873ffffffffffffffffffffffffffffffffffffffff168152602001600060048111156101a657fe5b815260200160008019168152602001600073ffffffffffffffffffffffffffffffffffffffff1681526020016040518060a001604052808961ffff16815260200184151581526020018861ffff1681526020018761ffff1681526020018681525081526020013481525060036000600260149054906101000a900462ffffff1662ffffff1662ffffff16815260200190815260200160002060008201518160000160006101000a81548173ffffffffffffffffffffffffffffffffffffffff021916908373ffffffffffffffffffffffffffffffffffffffff16021790555060208201518160010160006101000a81548173ffffffffffffffffffffffffffffffffffffffff021916908373ffffffffffffffffffffffffffffffffffffffff16021790555060408201518160010160146101000a81548160ff021916908360048111156102f057fe5b02179055506060820151816002015560808201518160030160006101000a81548173ffffffffffffffffffffffffffffffffffffffff021916908373ffffffffffffffffffffffffffffffffffffffff16021790555060a08201518160040160008201518160000160006101000a81548161ffff021916908361ffff16021790555060208201518160000160026101000a81548160ff02191690831515021790555060408201518160000160036101000a81548161ffff021916908361ffff16021790555060608201518160000160056101000a81548161ffff021916908361ffff16021790555060808201518160010155505060c08201518160060155905050600073ffffffffffffffffffffffffffffffffffffffff168773ffffffffffffffffffffffffffffffffffffffff16141561047a57600060036000600260149054906101000a900462ffffff1662ffffff1662ffffff16815260200190815260200160002060010160146101000a81548160ff0219169083600481111561047457fe5b02179055505b600260149054906101000a900462ffffff1662ffffff163373ffffffffffffffffffffffffffffffffffffffff167fd425e293d795bdfdff2635bb8c2e444e8e58950e315988c26faeba578362457260405160405180910390a36002601481819054906101000a900462ffffff168092919060010191906101000a81548162ffffff021916908362ffffff160217905550505095945050505050565b61051e610a01565b600360008362ffffff1662ffffff1681526020019081526020016000206040518060e00160405290816000820160009054906101000a900473ffffffffffffffffffffffffffffffffffffffff1673ffffffffffffffffffffffffffffffffffffffff1673ffffffffffffffffffffffffffffffffffffffff1681526020016001820160009054906101000a900473ffffffffffffffffffffffffffffffffffffffff1673ffffffffffffffffffffffffffffffffffffffff1673ffffffffffffffffffffffffffffffffffffffff1681526020016001820160149054906101000a900460ff16600481111561061057fe5b600481111561061b57fe5b8152602001600282015481526020016003820160009054906101000a900473ffffffffffffffffffffffffffffffffffffffff1673ffffffffffffffffffffffffffffffffffffffff1673ffffffffffffffffffffffffffffffffffffffff168152602001600482016040518060a00160405290816000820160009054906101000a900461ffff1661ffff1661ffff1681526020016000820160029054906101000a900460ff161515151581526020016000820160039054906101000a900461ffff1661ffff1661ffff1681526020016000820160059054906101000a900461ffff1661ffff1661ffff16815260200160018201548152505081526020016006820154815250509050919050565b60036020528060005260406000206000915090508060000160009054906101000a900473ffffffffffffffffffffffffffffffffffffffff16908060010160009054906101000a900473ffffffffffffffffffffffffffffffffffffffff16908060010160149054906101000a900460ff16908060020154908060030160009054906101000a900473ffffffffffffffffffffffffffffffffffffffff1690806004016040518060a00160405290816000820160009054906101000a900461ffff1661ffff1661ffff1681526020016000820160029054906101000a900460ff161515151581526020016000820160039054906101000a900461ffff1661ffff1661ffff1681526020016000820160059054906101000a900461ffff1661ffff1661ffff168152602001600182015481525050908060060154905087565b6000600260149054906101000a900462ffffff16905090565b600160009054906101000a900473ffffffffffffffffffffffffffffffffffffffff1673ffffffffffffffffffffffffffffffffffffffff163373ffffffffffffffffffffffffffffffffffffffff1614806109295750600260009054906101000a900473ffffffffffffffffffffffffffffffffffffffff1673ffffffffffffffffffffffffffffffffffffffff163373ffffffffffffffffffffffffffffffffffffffff16145b8061097f575060008054906101000a900473ffffffffffffffffffffffffffffffffffffffff1673ffffffffffffffffffffffffffffffffffffffff163373ffffffffffffffffffffffffffffffffffffffff16145b6109be576040517f08c379a00000000000000000000000000000000000000000000000000000000081526004016109b590610ea4565b60405180910390fd5b806000806101000a81548173ffffffffffffffffffffffffffffffffffffffff021916908373ffffffffffffffffffffffffffffffffffffffff16021790555050565b6040518060e00160405280600073ffffffffffffffffffffffffffffffffffffffff168152602001600073ffffffffffffffffffffffffffffffffffffffff16815260200160006004811115610a5357fe5b815260200160008019168152602001600073ffffffffffffffffffffffffffffffffffffffff168152602001610a87610a94565b8152602001600081525090565b6040518060a00160405280600061ffff168152602001600015158152602001600061ffff168152602001600061ffff168152602001600081525090565b600081359050610ae081610fb6565b92915050565b600081359050610af581610fcd565b92915050565b600081359050610b0a81610fe4565b92915050565b600081359050610b1f81610ffb565b92915050565b600060208284031215610b3757600080fd5b6000610b4584828501610ad1565b91505092915050565b600080600080600060a08688031215610b6657600080fd5b6000610b7488828901610ad1565b9550506020610b8588828901610ae6565b9450506040610b9688828901610ae6565b9350506060610ba788828901610ae6565b9250506080610bb888828901610b10565b9150509295509295909350565b600060208284031215610bd757600080fd5b6000610be584828501610afb565b91505092915050565b610bf781610f0c565b82525050565b610c0681610f0c565b82525050565b610c1581610f1e565b82525050565b610c2481610f2a565b82525050565b610c3381610f2a565b82525050565b610c4281610f8e565b82525050565b610c5181610f8e565b82525050565b6000610c64600c83610efb565b91507f4e6f7420616e204f776e657200000000000000000000000000000000000000006000830152602082019050919050565b61016082016000820151610cae6000850182610bee565b506020820151610cc16020850182610bee565b506040820151610cd46040850182610c39565b506060820151610ce76060850182610c1b565b506080820151610cfa6080850182610bee565b5060a0820151610d0d60a0850182610d27565b5060c0820151610d21610140850182610e15565b50505050565b60a082016000820151610d3d6000850182610df7565b506020820151610d506020850182610c0c565b506040820151610d636040850182610df7565b506060820151610d766060850182610df7565b506080820151610d896080850182610e15565b50505050565b60a082016000820151610da56000850182610df7565b506020820151610db86020850182610c0c565b506040820151610dcb6040850182610df7565b506060820151610dde6060850182610df7565b506080820151610df16080850182610e15565b50505050565b610e0081610f47565b82525050565b610e0f81610f75565b82525050565b610e1e81610f84565b82525050565b610e2d81610f84565b82525050565b600061016082019050610e49600083018a610bfd565b610e566020830189610bfd565b610e636040830188610c48565b610e706060830187610c2a565b610e7d6080830186610bfd565b610e8a60a0830185610d8f565b610e98610140830184610e24565b98975050505050505050565b60006020820190508181036000830152610ebd81610c57565b9050919050565b600061016082019050610eda6000830184610c97565b92915050565b6000602082019050610ef56000830184610e06565b92915050565b600082825260208201905092915050565b6000610f1782610f55565b9050919050565b60008115159050919050565b6000819050919050565b6000819050610f4282610fa2565b919050565b600061ffff82169050919050565b600073ffffffffffffffffffffffffffffffffffffffff82169050919050565b600062ffffff82169050919050565b6000819050919050565b6000610f9982610f34565b9050919050565bfe5b60058110610fb357610fb2610fa0565b5b50565b610fbf81610f0c565b8114610fca57600080fd5b50565b610fd681610f47565b8114610fe157600080fd5b50565b610fed81610f75565b8114610ff857600080fd5b50565b61100481610f84565b811461100f57600080fd5b5056fea2646970667358221220ddaec57b72e08fc68d73246f2b6aa27c9b698d87f875f68e5800a9fc4780132664736f6c63430007060033",
  "immutableReferences": {},
  "source": "// SPDX-License-Identifier: MIT\n//pragma solidity >=0.4.22 <0.9.0;\npragma solidity >=0.7.0;\npragma experimental ABIEncoderV2;\n\ncontract GameContract {\n\n  address owner3;\n  address owner;\n  address owner2;\n  uint24 gameId;\n  \n//////// Constructor \n//compiler requires public\n  constructor() {\n    owner= msg.sender;\n    owner2= address(0x49A3e9f02E8b0a6076f8568361926D54d17730Cb);\n    gameId=1;\n  }\n/////// Constructor END\n  \n  enum gameState { Created, InProgress, Ended, Staged, Open }\n  \n  struct gameSettings {\n    uint16 startsAt;\n    bool openInvite;\n    uint16 totalTime;\n    uint16 timeoutTime;\n    uint wageSize; \n  }\n\n  struct gameData {\n    address playerOne;\n    address playerTwo;\n    gameState gState;\n    bytes32 currentGameBoard;\n    address lastMover;\n    gameSettings settings;\n    uint gameBalance; \n  }\n  \n  \n  mapping (uint24 => gameData) public games; \n  mapping (address => uint24) myLastGame;\n  address[32] gameOwners;\n  address[32] gamePlayers;\n\n  event newGameCreatedEvent(address indexed _playerOne, uint24 indexed _gameId);\n\n////// Modifiers Start \n  modifier isOwner() {\n    require (msg.sender == owner|| msg.sender == owner2 || msg.sender == owner3, \"Not an Owner\");\n    _; \n  }\n   function setNewOwner(address _newOwner) isOwner external {\n     owner3= _newOwner;\n  }\n\n////// Modifiers END\n\n\n  function initializeGame(address _playerTwo,\n                          uint16 _startsAt,\n                          uint16 _totalTime,\n                          uint16 _timeoutTime,\n                          uint _wageSize ) public payable returns(uint24) {\n    \n\n    //require(_wageSize >= msg.value, \"Somethin went wrong, or you're mistaken.\");\n\n    //gameData storage initializedGame;\n    bool openGame;\n    games[gameId]= gameData({\n                            playerOne: msg.sender,\n                            playerTwo: _playerTwo,\n                            gState: gameState.Created,\n                            currentGameBoard:\"\",\n                            lastMover: address(0),\n                            settings: gameSettings ({ startsAt: _startsAt,\n                                              openInvite: openGame,\n                                              totalTime: _totalTime,\n                                              timeoutTime: _timeoutTime,\n                                              wageSize:  _wageSize }),\n                            gameBalance: msg.value \n                            });\n\n    if (_playerTwo == address(0)) { \n      games[gameId].gState = gameState.Created;\n      }\n\n    // games[gameId].settings = gameSettings ({ startsAt: _startsAt,\n    //                                           openInvite: openGame,\n    //                                           totalTime: _totalTime,\n    //                                           timeoutTime: _timeoutTime,\n    //                                           wageSize:  _wageSize });\n\n    // games[gameId].playerOne= msg.sender;\n    // games[gameId].playerTwo= _playerTwo;\n\n    // if (openGame) {\n    //   games[gameId].gState = gameState.Created;\n    // } else {\n    //   games[gameId].gState = gameState.Staged;\n    // }\n    emit newGameCreatedEvent(msg.sender,gameId);\n    gameId++;\n  }\n\n  function getLastGameId() public view returns(uint24) {\n    return gameId; \n  }\n\n  function getGame(uint24 gId) public view returns(gameData memory )  {\n      return games[gId];\n  }\n \n\n\n  \n\n\n\n\n}\n",
  "sourcePath": "/home/pbdesk2/Desktop/github/consensys_final_project/contracts/GameContract.sol",
  "compiler": {
    "name": "solc",
    "version": "0.7.6+commit.7338295f.Emscripten.clang"
  },
  "schemaVersion": "3.4.3",
  "updatedAt": "2021-09-18T17:05:10.713Z",
  "networkType": "ethereum",
  "devdoc": {
    "kind": "dev",
    "methods": {},
    "version": 1
  },
  "userdoc": {
    "kind": "user",
    "methods": {},
    "version": 1
  }
}