{
  "contractName": "GameContract",
  "abi": [
    {
      "inputs": [],
      "stateMutability": "nonpayable",
      "type": "constructor"
    },
    {
      "anonymous": false,
      "inputs": [
        {
          "indexed": true,
          "internalType": "address",
          "name": "_playerOne",
          "type": "address"
        },
        {
          "indexed": true,
          "internalType": "address",
          "name": "_playerTwo",
          "type": "address"
        }
      ],
      "name": "newGameCreatedEvent",
      "type": "event"
    },
    {
      "anonymous": false,
      "inputs": [
        {
          "indexed": true,
          "internalType": "address",
          "name": "_submittedby",
          "type": "address"
        },
        {
          "indexed": true,
          "internalType": "string",
          "name": "_prevState",
          "type": "string"
        },
        {
          "indexed": false,
          "internalType": "string",
          "name": "_nextState",
          "type": "string"
        }
      ],
      "name": "newMoveInGame",
      "type": "event"
    },
    {
      "anonymous": false,
      "inputs": [
        {
          "indexed": true,
          "internalType": "address",
          "name": "_player1",
          "type": "address"
        },
        {
          "indexed": true,
          "internalType": "address",
          "name": "_player2",
          "type": "address"
        },
        {
          "indexed": false,
          "internalType": "bool",
          "name": "_accepted",
          "type": "bool"
        }
      ],
      "name": "player2Accepted",
      "type": "event"
    },
    {
      "inputs": [
        {
          "internalType": "uint24",
          "name": "",
          "type": "uint24"
        }
      ],
      "name": "games",
      "outputs": [
        {
          "internalType": "address",
          "name": "playerOne",
          "type": "address"
        },
        {
          "internalType": "address",
          "name": "playerTwo",
          "type": "address"
        },
        {
          "internalType": "enum GameContract.gameState",
          "name": "gState",
          "type": "uint8"
        },
        {
          "internalType": "bytes",
          "name": "currentGameBoard",
          "type": "bytes"
        },
        {
          "internalType": "address",
          "name": "lastMover",
          "type": "address"
        },
        {
          "components": [
            {
              "internalType": "uint16",
              "name": "startsAt",
              "type": "uint16"
            },
            {
              "internalType": "bool",
              "name": "openInvite",
              "type": "bool"
            },
            {
              "internalType": "uint16",
              "name": "totalTime",
              "type": "uint16"
            },
            {
              "internalType": "uint16",
              "name": "timeoutTime",
              "type": "uint16"
            },
            {
              "internalType": "uint256",
              "name": "wageSize",
              "type": "uint256"
            }
          ],
          "internalType": "struct GameContract.gameSettings",
          "name": "settings",
          "type": "tuple"
        },
        {
          "internalType": "uint256",
          "name": "gameBalance",
          "type": "uint256"
        },
        {
          "internalType": "bool",
          "name": "player2accepted",
          "type": "bool"
        }
      ],
      "stateMutability": "view",
      "type": "function",
      "constant": true
    },
    {
      "inputs": [
        {
          "internalType": "address",
          "name": "_newOwner",
          "type": "address"
        }
      ],
      "name": "setNewOwner",
      "outputs": [],
      "stateMutability": "nonpayable",
      "type": "function"
    },
    {
      "inputs": [
        {
          "internalType": "address",
          "name": "_playerTwo",
          "type": "address"
        },
        {
          "internalType": "uint16",
          "name": "_startsAt",
          "type": "uint16"
        },
        {
          "internalType": "uint16",
          "name": "_totalTime",
          "type": "uint16"
        },
        {
          "internalType": "uint16",
          "name": "_timeoutTime",
          "type": "uint16"
        },
        {
          "internalType": "uint256",
          "name": "_wageSize",
          "type": "uint256"
        }
      ],
      "name": "initializeGame",
      "outputs": [
        {
          "internalType": "uint24",
          "name": "justCreatedGameId",
          "type": "uint24"
        }
      ],
      "stateMutability": "payable",
      "type": "function",
      "payable": true
    },
    {
      "inputs": [],
      "name": "getLastGameId",
      "outputs": [
        {
          "internalType": "uint24",
          "name": "",
          "type": "uint24"
        }
      ],
      "stateMutability": "view",
      "type": "function",
      "constant": true
    },
    {
      "inputs": [
        {
          "internalType": "uint24",
          "name": "gId",
          "type": "uint24"
        }
      ],
      "name": "getGame",
      "outputs": [
        {
          "components": [
            {
              "internalType": "address",
              "name": "playerOne",
              "type": "address"
            },
            {
              "internalType": "address",
              "name": "playerTwo",
              "type": "address"
            },
            {
              "internalType": "enum GameContract.gameState",
              "name": "gState",
              "type": "uint8"
            },
            {
              "internalType": "bytes",
              "name": "currentGameBoard",
              "type": "bytes"
            },
            {
              "internalType": "address",
              "name": "lastMover",
              "type": "address"
            },
            {
              "components": [
                {
                  "internalType": "uint16",
                  "name": "startsAt",
                  "type": "uint16"
                },
                {
                  "internalType": "bool",
                  "name": "openInvite",
                  "type": "bool"
                },
                {
                  "internalType": "uint16",
                  "name": "totalTime",
                  "type": "uint16"
                },
                {
                  "internalType": "uint16",
                  "name": "timeoutTime",
                  "type": "uint16"
                },
                {
                  "internalType": "uint256",
                  "name": "wageSize",
                  "type": "uint256"
                }
              ],
              "internalType": "struct GameContract.gameSettings",
              "name": "settings",
              "type": "tuple"
            },
            {
              "internalType": "uint256",
              "name": "gameBalance",
              "type": "uint256"
            },
            {
              "internalType": "bool",
              "name": "player2accepted",
              "type": "bool"
            }
          ],
          "internalType": "struct GameContract.gameData",
          "name": "",
          "type": "tuple"
        }
      ],
      "stateMutability": "view",
      "type": "function",
      "constant": true
    },
    {
      "inputs": [],
      "name": "checkAndReturnCurrentGame",
      "outputs": [
        {
          "components": [
            {
              "internalType": "address",
              "name": "playerOne",
              "type": "address"
            },
            {
              "internalType": "address",
              "name": "playerTwo",
              "type": "address"
            },
            {
              "internalType": "enum GameContract.gameState",
              "name": "gState",
              "type": "uint8"
            },
            {
              "internalType": "bytes",
              "name": "currentGameBoard",
              "type": "bytes"
            },
            {
              "internalType": "address",
              "name": "lastMover",
              "type": "address"
            },
            {
              "components": [
                {
                  "internalType": "uint16",
                  "name": "startsAt",
                  "type": "uint16"
                },
                {
                  "internalType": "bool",
                  "name": "openInvite",
                  "type": "bool"
                },
                {
                  "internalType": "uint16",
                  "name": "totalTime",
                  "type": "uint16"
                },
                {
                  "internalType": "uint16",
                  "name": "timeoutTime",
                  "type": "uint16"
                },
                {
                  "internalType": "uint256",
                  "name": "wageSize",
                  "type": "uint256"
                }
              ],
              "internalType": "struct GameContract.gameSettings",
              "name": "settings",
              "type": "tuple"
            },
            {
              "internalType": "uint256",
              "name": "gameBalance",
              "type": "uint256"
            },
            {
              "internalType": "bool",
              "name": "player2accepted",
              "type": "bool"
            }
          ],
          "internalType": "struct GameContract.gameData",
          "name": "game",
          "type": "tuple"
        }
      ],
      "stateMutability": "view",
      "type": "function",
      "constant": true
    },
    {
      "inputs": [],
      "name": "timeOutforAccept",
      "outputs": [],
      "stateMutability": "nonpayable",
      "type": "function"
    },
    {
      "inputs": [
        {
          "internalType": "bool",
          "name": "_accepted",
          "type": "bool"
        }
      ],
      "name": "playerTwoAccepted",
      "outputs": [],
      "stateMutability": "payable",
      "type": "function",
      "payable": true
    },
    {
      "inputs": [
        {
          "internalType": "string",
          "name": "_submittedMove",
          "type": "string"
        }
      ],
      "name": "submitMove",
      "outputs": [],
      "stateMutability": "nonpayable",
      "type": "function"
    }
  ],
  "bytecode": "0x608060405234801561001057600080fd5b5033600160006101000a81548173ffffffffffffffffffffffffffffffffffffffff021916908373ffffffffffffffffffffffffffffffffffffffff1602179055507349a3e9f02e8b0a6076f8568361926d54d17730cb600260006101000a81548173ffffffffffffffffffffffffffffffffffffffff021916908373ffffffffffffffffffffffffffffffffffffffff1602179055506001600260146101000a81548162ffffff021916908362ffffff1602179055506129bc806100d66000396000f3fe6080604052600436106100865760003560e01c80638773f0c8116100595780638773f0c8146101265780638c79a38c14610163578063933a02771461017f578063a35b6ec7146101c3578063f5a1f5b4146101ee57610086565b80631ea8c3be1461008b5780635c0c3bb4146100b45780637ab2942b146100cb578063817bfe76146100f6575b600080fd5b34801561009757600080fd5b506100b260048036038101906100ad91906121af565b610217565b005b3480156100c057600080fd5b506100c961044f565b005b3480156100d757600080fd5b506100e0610451565b6040516100ed919061272e565b60405180910390f35b610110600480360381019061010b919061210f565b610764565b60405161011d9190612750565b60405180910390f35b34801561013257600080fd5b5061014d600480360381019061014891906121f0565b610c41565b60405161015a919061272e565b60405180910390f35b61017d60048036038101906101789190612186565b610f08565b005b34801561018b57600080fd5b506101a660048036038101906101a191906121f0565b611414565b6040516101ba98979695949392919061260a565b60405180910390f35b3480156101cf57600080fd5b506101d86115fd565b6040516101e59190612750565b60405180910390f35b3480156101fa57600080fd5b50610215600480360381019061021091906120e6565b611619565b005b6000819050600060036000600460003373ffffffffffffffffffffffffffffffffffffffff1673ffffffffffffffffffffffffffffffffffffffff16815260200190815260200160002060009054906101000a900462ffffff1662ffffff1662ffffff16815260200190815260200160002090506000816002018054600181600116156101000203166002900480601f0160208091040260200160405190810160405280929190818152602001828054600181600116156101000203166002900480156103255780601f106102fa57610100808354040283529160200191610325565b820191906000526020600020905b81548152906001019060200180831161030857829003601f168201915b50505050509050610383600460003373ffffffffffffffffffffffffffffffffffffffff1673ffffffffffffffffffffffffffffffffffffffff16815260200190815260200160002060009054906101000a900462ffffff1661179a565b156103e557338260030160006101000a81548173ffffffffffffffffffffffffffffffffffffffff021916908373ffffffffffffffffffffffffffffffffffffffff160217905550828260020190805190602001906103e3929190611e93565b505b806040516103f391906125f3565b60405180910390203373ffffffffffffffffffffffffffffffffffffffff167f5278adf2a86a3da7046dc0089239c620adc78d818e5971a272b842eadf7aa7a78660405161044191906126ac565b60405180910390a350505050565b565b610459611f21565b60036000600460003373ffffffffffffffffffffffffffffffffffffffff1673ffffffffffffffffffffffffffffffffffffffff16815260200190815260200160002060009054906101000a900462ffffff1662ffffff1662ffffff168152602001908152602001600020604051806101000160405290816000820160009054906101000a900473ffffffffffffffffffffffffffffffffffffffff1673ffffffffffffffffffffffffffffffffffffffff1673ffffffffffffffffffffffffffffffffffffffff1681526020016001820160009054906101000a900473ffffffffffffffffffffffffffffffffffffffff1673ffffffffffffffffffffffffffffffffffffffff1673ffffffffffffffffffffffffffffffffffffffff1681526020016001820160149054906101000a900460ff16600481111561059a57fe5b60048111156105a557fe5b8152602001600282018054600181600116156101000203166002900480601f0160208091040260200160405190810160405280929190818152602001828054600181600116156101000203166002900480156106425780601f1061061757610100808354040283529160200191610642565b820191906000526020600020905b81548152906001019060200180831161062557829003601f168201915b505050505081526020016003820160009054906101000a900473ffffffffffffffffffffffffffffffffffffffff1673ffffffffffffffffffffffffffffffffffffffff1673ffffffffffffffffffffffffffffffffffffffff168152602001600482016040518060a00160405290816000820160009054906101000a900461ffff1661ffff1661ffff1681526020016000820160029054906101000a900460ff161515151581526020016000820160039054906101000a900461ffff1661ffff1661ffff1681526020016000820160059054906101000a900461ffff1661ffff1661ffff1681526020016001820154815250508152602001600682015481526020016007820160009054906101000a900460ff161515151581525050905090565b6000806040518061010001604052803373ffffffffffffffffffffffffffffffffffffffff1681526020018873ffffffffffffffffffffffffffffffffffffffff168152602001600160048111156107b857fe5b8152602001604051806020016040528060008152508152602001600073ffffffffffffffffffffffffffffffffffffffff1681526020016040518060a001604052808961ffff16815260200184151581526020018861ffff1681526020018761ffff1681526020018681525081526020013481526020016000151581525060036000600260149054906101000a900462ffffff1662ffffff1662ffffff16815260200190815260200160002060008201518160000160006101000a81548173ffffffffffffffffffffffffffffffffffffffff021916908373ffffffffffffffffffffffffffffffffffffffff16021790555060208201518160010160006101000a81548173ffffffffffffffffffffffffffffffffffffffff021916908373ffffffffffffffffffffffffffffffffffffffff16021790555060408201518160010160146101000a81548160ff0219169083600481111561091657fe5b02179055506060820151816002019080519060200190610937929190611e93565b5060808201518160030160006101000a81548173ffffffffffffffffffffffffffffffffffffffff021916908373ffffffffffffffffffffffffffffffffffffffff16021790555060a08201518160040160008201518160000160006101000a81548161ffff021916908361ffff16021790555060208201518160000160026101000a81548160ff02191690831515021790555060408201518160000160036101000a81548161ffff021916908361ffff16021790555060608201518160000160056101000a81548161ffff021916908361ffff16021790555060808201518160010155505060c0820151816006015560e08201518160070160006101000a81548160ff021916908315150217905550905050610a5333611b2b565b8015610a645750610a6387611b2b565b5b610aa3576040517f08c379a0000000000000000000000000000000000000000000000000000000008152600401610a9a9061270e565b60405180910390fd5b600260149054906101000a900462ffffff16600460003373ffffffffffffffffffffffffffffffffffffffff1673ffffffffffffffffffffffffffffffffffffffff16815260200190815260200160002060006101000a81548162ffffff021916908362ffffff160217905550600260149054906101000a900462ffffff16600460008973ffffffffffffffffffffffffffffffffffffffff1673ffffffffffffffffffffffffffffffffffffffff16815260200190815260200160002060006101000a81548162ffffff021916908362ffffff160217905550600260149054906101000a900462ffffff1691508673ffffffffffffffffffffffffffffffffffffffff163373ffffffffffffffffffffffffffffffffffffffff167f924d7492e89e2320415cf3dc9b3c1844a2ff30bca5eb7c40c2aa288c916b394960405160405180910390a36002601481819054906101000a900462ffffff168092919060010191906101000a81548162ffffff021916908362ffffff16021790555050600260149054906101000a900462ffffff1691505095945050505050565b610c49611f21565b600360008362ffffff1662ffffff168152602001908152602001600020604051806101000160405290816000820160009054906101000a900473ffffffffffffffffffffffffffffffffffffffff1673ffffffffffffffffffffffffffffffffffffffff1673ffffffffffffffffffffffffffffffffffffffff1681526020016001820160009054906101000a900473ffffffffffffffffffffffffffffffffffffffff1673ffffffffffffffffffffffffffffffffffffffff1673ffffffffffffffffffffffffffffffffffffffff1681526020016001820160149054906101000a900460ff166004811115610d3c57fe5b6004811115610d4757fe5b8152602001600282018054600181600116156101000203166002900480601f016020809104026020016040519081016040528092919081815260200182805460018160011615610100020316600290048015610de45780601f10610db957610100808354040283529160200191610de4565b820191906000526020600020905b815481529060010190602001808311610dc757829003601f168201915b505050505081526020016003820160009054906101000a900473ffffffffffffffffffffffffffffffffffffffff1673ffffffffffffffffffffffffffffffffffffffff1673ffffffffffffffffffffffffffffffffffffffff168152602001600482016040518060a00160405290816000820160009054906101000a900461ffff1661ffff1661ffff1681526020016000820160029054906101000a900460ff161515151581526020016000820160039054906101000a900461ffff1661ffff1661ffff1681526020016000820160059054906101000a900461ffff1661ffff1661ffff1681526020016001820154815250508152602001600682015481526020016007820160009054906101000a900460ff1615151515815250509050919050565b8061122e57600060036000600460003373ffffffffffffffffffffffffffffffffffffffff1673ffffffffffffffffffffffffffffffffffffffff16815260200190815260200160002060009054906101000a900462ffffff1662ffffff1662ffffff16815260200190815260200160002090503373ffffffffffffffffffffffffffffffffffffffff168160010160009054906101000a900473ffffffffffffffffffffffffffffffffffffffff1673ffffffffffffffffffffffffffffffffffffffff1614610fd857600080fd5b60008160070160006101000a81548160ff02191690831515021790555060048160010160146101000a81548160ff0219169083600481111561101657fe5b02179055506000600460008360000160009054906101000a900473ffffffffffffffffffffffffffffffffffffffff1673ffffffffffffffffffffffffffffffffffffffff1673ffffffffffffffffffffffffffffffffffffffff16815260200190815260200160002060006101000a81548162ffffff021916908362ffffff1602179055506000600460008360010160009054906101000a900473ffffffffffffffffffffffffffffffffffffffff1673ffffffffffffffffffffffffffffffffffffffff1673ffffffffffffffffffffffffffffffffffffffff16815260200190815260200160002060006101000a81548162ffffff021916908362ffffff1602179055506000600460003373ffffffffffffffffffffffffffffffffffffffff1673ffffffffffffffffffffffffffffffffffffffff16815260200190815260200160002060006101000a81548162ffffff021916908362ffffff1602179055508060010160009054906101000a900473ffffffffffffffffffffffffffffffffffffffff1673ffffffffffffffffffffffffffffffffffffffff168160000160009054906101000a900473ffffffffffffffffffffffffffffffffffffffff1673ffffffffffffffffffffffffffffffffffffffff167f8f46d051ff9b2597fea8c60146bef33969de64edef522f8e1e927f117cb408b660006040516112209190612691565b60405180910390a350611411565b600060036000600460003373ffffffffffffffffffffffffffffffffffffffff1673ffffffffffffffffffffffffffffffffffffffff16815260200190815260200160002060009054906101000a900462ffffff1662ffffff1662ffffff1681526020019081526020016000209050806004016001015434146112b057600080fd5b3373ffffffffffffffffffffffffffffffffffffffff168160010160009054906101000a900473ffffffffffffffffffffffffffffffffffffffff1673ffffffffffffffffffffffffffffffffffffffff161461130c57600080fd5b60018160070160006101000a81548160ff02191690831515021790555060028160010160146101000a81548160ff0219169083600481111561134a57fe5b02179055503481600601600082825401925050819055508060010160009054906101000a900473ffffffffffffffffffffffffffffffffffffffff1673ffffffffffffffffffffffffffffffffffffffff168160000160009054906101000a900473ffffffffffffffffffffffffffffffffffffffff1673ffffffffffffffffffffffffffffffffffffffff167f8f46d051ff9b2597fea8c60146bef33969de64edef522f8e1e927f117cb408b660016040516114079190612691565b60405180910390a3505b50565b60036020528060005260406000206000915090508060000160009054906101000a900473ffffffffffffffffffffffffffffffffffffffff16908060010160009054906101000a900473ffffffffffffffffffffffffffffffffffffffff16908060010160149054906101000a900460ff1690806002018054600181600116156101000203166002900480601f01602080910402602001604051908101604052809291908181526020018280546001816001161561010002031660029004801561151f5780601f106114f45761010080835404028352916020019161151f565b820191906000526020600020905b81548152906001019060200180831161150257829003601f168201915b5050505050908060030160009054906101000a900473ffffffffffffffffffffffffffffffffffffffff1690806004016040518060a00160405290816000820160009054906101000a900461ffff1661ffff1661ffff1681526020016000820160029054906101000a900460ff161515151581526020016000820160039054906101000a900461ffff1661ffff1661ffff1681526020016000820160059054906101000a900461ffff1661ffff1661ffff168152602001600182015481525050908060060154908060070160009054906101000a900460ff16905088565b60006001600260149054906101000a900462ffffff1603905090565b600160009054906101000a900473ffffffffffffffffffffffffffffffffffffffff1673ffffffffffffffffffffffffffffffffffffffff163373ffffffffffffffffffffffffffffffffffffffff1614806116c25750600260009054906101000a900473ffffffffffffffffffffffffffffffffffffffff1673ffffffffffffffffffffffffffffffffffffffff163373ffffffffffffffffffffffffffffffffffffffff16145b80611718575060008054906101000a900473ffffffffffffffffffffffffffffffffffffffff1673ffffffffffffffffffffffffffffffffffffffff163373ffffffffffffffffffffffffffffffffffffffff16145b611757576040517f08c379a000000000000000000000000000000000000000000000000000000000815260040161174e906126ee565b60405180910390fd5b806000806101000a81548173ffffffffffffffffffffffffffffffffffffffff021916908373ffffffffffffffffffffffffffffffffffffffff16021790555050565b600080600360008462ffffff1662ffffff168152602001908152602001600020604051806101000160405290816000820160009054906101000a900473ffffffffffffffffffffffffffffffffffffffff1673ffffffffffffffffffffffffffffffffffffffff1673ffffffffffffffffffffffffffffffffffffffff1681526020016001820160009054906101000a900473ffffffffffffffffffffffffffffffffffffffff1673ffffffffffffffffffffffffffffffffffffffff1673ffffffffffffffffffffffffffffffffffffffff1681526020016001820160149054906101000a900460ff16600481111561189057fe5b600481111561189b57fe5b8152602001600282018054600181600116156101000203166002900480601f0160208091040260200160405190810160405280929190818152602001828054600181600116156101000203166002900480156119385780601f1061190d57610100808354040283529160200191611938565b820191906000526020600020905b81548152906001019060200180831161191b57829003601f168201915b505050505081526020016003820160009054906101000a900473ffffffffffffffffffffffffffffffffffffffff1673ffffffffffffffffffffffffffffffffffffffff1673ffffffffffffffffffffffffffffffffffffffff168152602001600482016040518060a00160405290816000820160009054906101000a900461ffff1661ffff1661ffff1681526020016000820160029054906101000a900460ff161515151581526020016000820160039054906101000a900461ffff1661ffff1661ffff1681526020016000820160059054906101000a900461ffff1661ffff1661ffff1681526020016001820154815250508152602001600682015481526020016007820160009054906101000a900460ff1615151515815250509050600060026004811115611a6657fe5b82604001516004811115611a7657fe5b1480611a9c575060016004811115611a8a57fe5b82604001516004811115611a9a57fe5b145b90506000826080015173ffffffffffffffffffffffffffffffffffffffff163373ffffffffffffffffffffffffffffffffffffffff1614159050818015611ae05750805b611b1f576040517f08c379a0000000000000000000000000000000000000000000000000000000008152600401611b16906126ce565b60405180910390fd5b60019350505050919050565b60008060036000600460008673ffffffffffffffffffffffffffffffffffffffff1673ffffffffffffffffffffffffffffffffffffffff16815260200190815260200160002060009054906101000a900462ffffff1662ffffff1662ffffff168152602001908152602001600020604051806101000160405290816000820160009054906101000a900473ffffffffffffffffffffffffffffffffffffffff1673ffffffffffffffffffffffffffffffffffffffff1673ffffffffffffffffffffffffffffffffffffffff1681526020016001820160009054906101000a900473ffffffffffffffffffffffffffffffffffffffff1673ffffffffffffffffffffffffffffffffffffffff1673ffffffffffffffffffffffffffffffffffffffff1681526020016001820160149054906101000a900460ff166004811115611c6f57fe5b6004811115611c7a57fe5b8152602001600282018054600181600116156101000203166002900480601f016020809104026020016040519081016040528092919081815260200182805460018160011615610100020316600290048015611d175780601f10611cec57610100808354040283529160200191611d17565b820191906000526020600020905b815481529060010190602001808311611cfa57829003601f168201915b505050505081526020016003820160009054906101000a900473ffffffffffffffffffffffffffffffffffffffff1673ffffffffffffffffffffffffffffffffffffffff1673ffffffffffffffffffffffffffffffffffffffff168152602001600482016040518060a00160405290816000820160009054906101000a900461ffff1661ffff1661ffff1681526020016000820160029054906101000a900460ff161515151581526020016000820160039054906101000a900461ffff1661ffff1661ffff1681526020016000820160059054906101000a900461ffff1661ffff1661ffff1681526020016001820154815250508152602001600682015481526020016007820160009054906101000a900460ff161515151581525050905060036004811115611e4357fe5b81604001516004811115611e5357fe5b1480611e79575060006004811115611e6757fe5b81604001516004811115611e7757fe5b145b15611e88576001915050611e8e565b60009150505b919050565b828054600181600116156101000203166002900490600052602060002090601f016020900481019282611ec95760008555611f10565b82601f10611ee257805160ff1916838001178555611f10565b82800160010185558215611f10579182015b82811115611f0f578251825591602001919060010190611ef4565b5b509050611f1d9190611fbb565b5090565b604051806101000160405280600073ffffffffffffffffffffffffffffffffffffffff168152602001600073ffffffffffffffffffffffffffffffffffffffff16815260200160006004811115611f7457fe5b815260200160608152602001600073ffffffffffffffffffffffffffffffffffffffff168152602001611fa5611fd8565b8152602001600081526020016000151581525090565b5b80821115611fd4576000816000905550600101611fbc565b5090565b6040518060a00160405280600061ffff168152602001600015158152602001600061ffff168152602001600061ffff168152602001600081525090565b60006120286120238461279c565b61276b565b90508281526020810184848401111561204057600080fd5b61204b8482856128aa565b509392505050565b60008135905061206281612913565b92915050565b6000813590506120778161292a565b92915050565b600082601f83011261208e57600080fd5b813561209e848260208601612015565b91505092915050565b6000813590506120b681612941565b92915050565b6000813590506120cb81612958565b92915050565b6000813590506120e08161296f565b92915050565b6000602082840312156120f857600080fd5b600061210684828501612053565b91505092915050565b600080600080600060a0868803121561212757600080fd5b600061213588828901612053565b9550506020612146888289016120a7565b9450506040612157888289016120a7565b9350506060612168888289016120a7565b9250506080612179888289016120d1565b9150509295509295909350565b60006020828403121561219857600080fd5b60006121a684828501612068565b91505092915050565b6000602082840312156121c157600080fd5b600082013567ffffffffffffffff8111156121db57600080fd5b6121e78482850161207d565b91505092915050565b60006020828403121561220257600080fd5b6000612210848285016120bc565b91505092915050565b61222281612820565b82525050565b61223181612820565b82525050565b61224081612832565b82525050565b61224f81612832565b82525050565b6000612260826127cc565b61226a81856127e2565b935061227a8185602086016128b9565b612283816128ee565b840191505092915050565b6000612299826127cc565b6122a381856127f3565b93506122b38185602086016128b9565b6122bc816128ee565b840191505092915050565b6122d081612898565b82525050565b6122df81612898565b82525050565b60006122f0826127d7565b6122fa8185612804565b935061230a8185602086016128b9565b612313816128ee565b840191505092915050565b6000612329826127d7565b6123338185612815565b93506123438185602086016128b9565b80840191505092915050565b600061235c601883612804565b91507f47616d652053746174653a20556e617661696c61626c652e00000000000000006000830152602082019050919050565b600061239c600c83612804565b91507f4e6f7420616e204f776e657200000000000000000000000000000000000000006000830152602082019050919050565b60006123dc602a83612804565b91507f4f6e65206f662074686520706c61796572732068617320612067616d6520696e60008301527f2070726f67726573732e000000000000000000000000000000000000000000006020830152604082019050919050565b60006101808301600083015161244e6000860182612219565b5060208301516124616020860182612219565b50604083015161247460408601826122c7565b506060830151848203606086015261248c8282612255565b91505060808301516124a16080860182612219565b5060a08301516124b460a08601826124e7565b5060c08301516124c86101408601826125d5565b5060e08301516124dc610160860182612237565b508091505092915050565b60a0820160008201516124fd60008501826125b7565b5060208201516125106020850182612237565b50604082015161252360408501826125b7565b50606082015161253660608501826125b7565b50608082015161254960808501826125d5565b50505050565b60a08201600082015161256560008501826125b7565b5060208201516125786020850182612237565b50604082015161258b60408501826125b7565b50606082015161259e60608501826125b7565b5060808201516125b160808501826125d5565b50505050565b6125c081612851565b82525050565b6125cf8161287f565b82525050565b6125de8161288e565b82525050565b6125ed8161288e565b82525050565b60006125ff828461231e565b915081905092915050565b600061018082019050612620600083018b612228565b61262d602083018a612228565b61263a60408301896122d6565b818103606083015261264c818861228e565b905061265b6080830187612228565b61266860a083018661254f565b6126766101408301856125e4565b612684610160830184612246565b9998505050505050505050565b60006020820190506126a66000830184612246565b92915050565b600060208201905081810360008301526126c681846122e5565b905092915050565b600060208201905081810360008301526126e78161234f565b9050919050565b600060208201905081810360008301526127078161238f565b9050919050565b60006020820190508181036000830152612727816123cf565b9050919050565b600060208201905081810360008301526127488184612435565b905092915050565b600060208201905061276560008301846125c6565b92915050565b6000604051905081810181811067ffffffffffffffff82111715612792576127916128ec565b5b8060405250919050565b600067ffffffffffffffff8211156127b7576127b66128ec565b5b601f19601f8301169050602081019050919050565b600081519050919050565b600081519050919050565b600082825260208201905092915050565b600082825260208201905092915050565b600082825260208201905092915050565b600081905092915050565b600061282b8261285f565b9050919050565b60008115159050919050565b600081905061284c826128ff565b919050565b600061ffff82169050919050565b600073ffffffffffffffffffffffffffffffffffffffff82169050919050565b600062ffffff82169050919050565b6000819050919050565b60006128a38261283e565b9050919050565b82818337600083830152505050565b60005b838110156128d75780820151818401526020810190506128bc565b838111156128e6576000848401525b50505050565bfe5b6000601f19601f8301169050919050565b600581106129105761290f6128ec565b5b50565b61291c81612820565b811461292757600080fd5b50565b61293381612832565b811461293e57600080fd5b50565b61294a81612851565b811461295557600080fd5b50565b6129618161287f565b811461296c57600080fd5b50565b6129788161288e565b811461298357600080fd5b5056fea264697066735822122012c82553f7676d0afd491bc46d1513b41f79740df7c6b8106472231d3e31c18664736f6c63430007060033",
  "immutableReferences": {},
  "source": "// SPDX-License-Identifier: MIT\n//pragma solidity >=0.4.22 <0.9.0;\npragma solidity >=0.7.0;\npragma experimental ABIEncoderV2;\n\ncontract GameContract {\n\n  address owner3;\n  address owner;\n  address owner2;\n  uint24 gameId;\n  \n//////// Constructor \n//compiler requires public\n  constructor() {\n    owner= msg.sender;\n    owner2= address(0x49A3e9f02E8b0a6076f8568361926D54d17730Cb);\n    gameId=1;\n  }\n\n   function setNewOwner(address _newOwner) isOwner external {\n     owner3= _newOwner;\n  }\n/////// Constructor END\n  \n  enum gameState {NoAssignedState, Staged, InProgress, Ended, Rejected }\n  \n  struct gameSettings {\n    uint16 startsAt;\n    bool openInvite;\n    uint16 totalTime;\n    uint16 timeoutTime;\n    uint wageSize; \n  }\n\n  struct gameData {\n    address playerOne;\n    address playerTwo;\n    gameState gState;\n    bytes currentGameBoard;\n    address lastMover;\n    gameSettings settings;\n    uint gameBalance;\n    bool player2accepted; \n  }\n  \n  mapping (uint24 => gameData) public games; \n  mapping (address => uint24) myLastGame;\n  address[32] gameOwners;\n  address[32] gamePlayers;\n\n  event newGameCreatedEvent(address indexed _playerOne, address indexed _playerTwo);\n\n////// Modifiers Start \n  modifier isOwner() {\n    require (msg.sender == owner|| msg.sender == owner2 || msg.sender == owner3, \"Not an Owner\");\n    _; \n  }\n\n  function onMoveStateCheck(uint24 _gameid ) internal view returns(bool) {\n    //do not need it, do I?\n    gameData memory game=games[_gameid];\n    bool g= (  game.gState == gameState.InProgress || game.gState == gameState.Staged  );\n    bool notLastMover = msg.sender != game.lastMover; \n    require( g && notLastMover , \"Game State: Unavailable.\" );\n    return true;\n  }\n\n  function noOtherGameOnCreate(address player1) internal view returns(bool) {\n    gameData memory lastPlayer1Game = games[myLastGame[player1]]; \n\n    if( (lastPlayer1Game.gState == gameState.Ended) || (lastPlayer1Game.gState == gameState.NoAssignedState) ){\n      return true;\n    } else {\n      return false;\n    }\n  }\n////// Modifiers END\n  function initializeGame(address _playerTwo,\n                          uint16 _startsAt,\n                          uint16 _totalTime,\n                          uint16 _timeoutTime,\n                          uint _wageSize ) public payable returns(uint24 justCreatedGameId) {\n    bool openGame;\n  \n    games[gameId]= gameData({\n                            playerOne: msg.sender,\n                            playerTwo: _playerTwo,\n                            gState: gameState.Staged,\n                            currentGameBoard:\"\",\n                            lastMover: address(0),\n                            settings: gameSettings ({ startsAt: _startsAt,\n                                              openInvite: openGame,\n                                              totalTime: _totalTime,\n                                              timeoutTime: _timeoutTime,\n                                              wageSize:  _wageSize }),\n                            gameBalance: msg.value,\n                            player2accepted: false \n                            });\n\n    require((noOtherGameOnCreate(msg.sender) && noOtherGameOnCreate(_playerTwo)), \"One of the players has a game in progress.\");\n    myLastGame[msg.sender]= gameId;\n    myLastGame[_playerTwo]= gameId;\n    \n    justCreatedGameId = gameId;\n    \n    emit newGameCreatedEvent(msg.sender,_playerTwo);\n    gameId++;\n\n    return gameId;\n  }\n\n  function getLastGameId() public view returns(uint24) {\n    return gameId-1; \n  }\n\n  function getGame(uint24 gId) public view returns(gameData memory )  {\n      return games[gId];\n  }\n \n  function checkAndReturnCurrentGame() public view returns (gameData memory game) {\n    game= games[myLastGame[msg.sender]];\n  //   if ( noOtherGameOnCreate(msg.sender)) {\n  //     return games[0];  //////??? why \n  //   } else {\n  //     game= games[myLastGame[msg.sender]];\n  //     return game;\n  //   }\n   }\n  \n  event player2Accepted(address indexed _player1, address indexed _player2, bool _accepted);\n  \n  function timeOutforAccept() public {}\n\n  function playerTwoAccepted(bool _accepted) public payable  {\n    if (! _accepted) {\n      gameData storage game =  games[myLastGame[msg.sender]];\n      require(game.playerTwo == msg.sender);\n      game.player2accepted = false;\n      game.gState = gameState.Rejected;\n      //or cancel? w\\ no refund?\n      myLastGame[game.playerOne]= 0;\n      myLastGame[game.playerTwo]= 0;\n      //uint tenpercent = \n      myLastGame[msg.sender] = 0; \n      //(bool success,) = msg.sender.call.value(//%palyer1deposit/gascost)()\n      //norefund for now.\n      emit player2Accepted(game.playerOne, game.playerTwo, false);\n    } else {\n      gameData storage game = games[myLastGame[msg.sender]];\n      require(msg.value == game.settings.wageSize);\n      require(game.playerTwo == msg.sender);\n      game.player2accepted = true;\n      game.gState = gameState.InProgress;\n      game.gameBalance += msg.value;\n\n      emit player2Accepted(game.playerOne, game.playerTwo, true);\n    }\n  }\n  \n  \n  \n  event newMoveInGame(address indexed _submittedby, string indexed _prevState, string _nextState);\n\n  function submitMove(string memory _submittedMove) public {\n    bytes memory submitted = bytes(_submittedMove);\n    gameData storage game= games[myLastGame[msg.sender]]; \n    string memory prevState= string(game.currentGameBoard);\n    if(onMoveStateCheck(myLastGame[msg.sender])) {\n      game.lastMover= msg.sender;\n      game.currentGameBoard = submitted; \n    }\n    \n    emit newMoveInGame( msg.sender, prevState, _submittedMove);\n  } \n}\n",
  "sourcePath": "/home/pbdesk2/Desktop/github/consensys_final_project/contracts/GameContract.sol",
  "compiler": {
    "name": "solc",
    "version": "0.7.6+commit.7338295f.Emscripten.clang"
  },
  "schemaVersion": "3.4.3",
  "updatedAt": "2021-09-22T20:12:06.770Z",
  "networkType": "ethereum",
  "devdoc": {
    "kind": "dev",
    "methods": {},
    "version": 1
  },
  "userdoc": {
    "kind": "user",
    "methods": {},
    "version": 1
  }
}