{
  "contractName": "GameContract",
  "abi": [
    {
      "inputs": [],
      "payable": false,
      "stateMutability": "nonpayable",
      "type": "constructor"
    },
    {
      "anonymous": false,
      "inputs": [
        {
          "indexed": true,
          "internalType": "address",
          "name": "_playerOne",
          "type": "address"
        },
        {
          "indexed": true,
          "internalType": "address",
          "name": "_gameId",
          "type": "address"
        }
      ],
      "name": "newGameCreatedEvent",
      "type": "event"
    },
    {
      "constant": false,
      "inputs": [
        {
          "internalType": "address",
          "name": "_playerTwo",
          "type": "address"
        },
        {
          "internalType": "uint256",
          "name": "_startsAt",
          "type": "uint256"
        },
        {
          "internalType": "bool",
          "name": "_openInvite",
          "type": "bool"
        },
        {
          "internalType": "uint256",
          "name": "_totalTime",
          "type": "uint256"
        },
        {
          "internalType": "uint256",
          "name": "_timeoutTime",
          "type": "uint256"
        },
        {
          "internalType": "uint256",
          "name": "_wageSize",
          "type": "uint256"
        }
      ],
      "name": "initializeGame",
      "outputs": [
        {
          "internalType": "bool",
          "name": "",
          "type": "bool"
        }
      ],
      "payable": true,
      "stateMutability": "payable",
      "type": "function"
    },
    {
      "constant": false,
      "inputs": [
        {
          "internalType": "address",
          "name": "_newOwner",
          "type": "address"
        }
      ],
      "name": "setNewOwner",
      "outputs": [],
      "payable": false,
      "stateMutability": "nonpayable",
      "type": "function"
    }
  ],
  "bytecode": "0x608060405234801561001057600080fd5b5033600160006101000a81548173ffffffffffffffffffffffffffffffffffffffff021916908373ffffffffffffffffffffffffffffffffffffffff1602179055507349a3e9f02e8b0a6076f8568361926d54d17730cb600260006101000a81548173ffffffffffffffffffffffffffffffffffffffff021916908373ffffffffffffffffffffffffffffffffffffffff16021790555061037f806100b66000396000f3fe6080604052600436106100295760003560e01c8063ed2f124c1461002e578063f5a1f5b4146100be575b600080fd5b6100a4600480360360c081101561004457600080fd5b81019080803573ffffffffffffffffffffffffffffffffffffffff1690602001909291908035906020019092919080351515906020019092919080359060200190929190803590602001909291908035906020019092919050505061010f565b604051808215151515815260200191505060405180910390f35b3480156100ca57600080fd5b5061010d600480360360208110156100e157600080fd5b81019080803573ffffffffffffffffffffffffffffffffffffffff169060200190929190505050610195565b005b600034821015610187576040517f08c379a000000000000000000000000000000000000000000000000000000000815260040180806020018281038252601c8152602001807f536f6d657468696e2077656e742077726f6e672c206f7220796f752e0000000081525060200191505060405180910390fd5b600190509695505050505050565b600160009054906101000a900473ffffffffffffffffffffffffffffffffffffffff1673ffffffffffffffffffffffffffffffffffffffff163373ffffffffffffffffffffffffffffffffffffffff16148061023e5750600260009054906101000a900473ffffffffffffffffffffffffffffffffffffffff1673ffffffffffffffffffffffffffffffffffffffff163373ffffffffffffffffffffffffffffffffffffffff16145b8061029557506000809054906101000a900473ffffffffffffffffffffffffffffffffffffffff1673ffffffffffffffffffffffffffffffffffffffff163373ffffffffffffffffffffffffffffffffffffffff16145b610307576040517f08c379a000000000000000000000000000000000000000000000000000000000815260040180806020018281038252600c8152602001807f4e6f7420616e204f776e6572000000000000000000000000000000000000000081525060200191505060405180910390fd5b806000806101000a81548173ffffffffffffffffffffffffffffffffffffffff021916908373ffffffffffffffffffffffffffffffffffffffff1602179055505056fea265627a7a7231582059328559d1ef9ae6fa049f4fbff4acd514b64e3bcd5fd7541e6dff51024cd88a64736f6c63430005100032",
  "source": "// SPDX-License-Identifier: MIT\npragma solidity >=0.4.22 <0.9.0;\n\ncontract GameContract {\n\n  address owner3;\n  address owner;\n  address owner2;\n\n  constructor() public {\n    owner= msg.sender;\n    owner2= address(0x49A3e9f02E8b0a6076f8568361926D54d17730Cb);\n  }\n\n  enum gameState { Created, InProgress, Ended, Staged, Open }\n  \n  struct gameSettings {\n    uint startsAt;\n    bool openInvite;\n    uint totalTime;\n    uint timeoutTime;\n    uint wageSize; \n  }\n\n  struct gameData {\n    address playerOne;\n    address playerTwo;\n    gameState gState;\n    bytes32 currentGameBoard;\n    address lastMover;\n    gameSettings settings;\n  }\n  uint24 gameId;\n  mapping (uint24 => gameData) games; \n  mapping (address => uint24) myLastGame;\n  address[32] gameOwners;\n  address[32] gamePlayers;\n\n  event newGameCreatedEvent(address indexed _playerOne, address indexed _gameId);\n  function initializeGame(address _playerTwo,\n                          uint _startsAt,\n                          bool _openInvite,\n                          uint _totalTime,\n                          uint _timeoutTime,\n                          uint _wageSize ) public payable returns(bool) {\n    \n\n    require(_wageSize >= msg.value, \"Somethin went wrong, or you.\");\n    return true;\n\n  }\n\n\n \n\n\n  modifier isOwner() {\n    require (msg.sender == owner|| msg.sender == owner2 || msg.sender == owner3, \"Not an Owner\");\n    _; \n  }\n\n   function setNewOwner(address _newOwner) isOwner external {\n     owner3= _newOwner;\n  }\n\n\n\n\n}\n",
  "sourcePath": "/home/pbdesk2/Desktop/github/consensys_final_project/contracts/GameContract.sol",
  "compiler": {
    "name": "solc",
    "version": "0.5.16+commit.9c3226ce.Emscripten.clang"
  },
  "schemaVersion": "3.4.3",
  "updatedAt": "2021-09-16T22:13:05.343Z",
  "devdoc": {
    "methods": {}
  },
  "userdoc": {
    "methods": {}
  }
}