{
  "contractName": "GameContract",
  "abi": [
    {
      "inputs": [],
      "stateMutability": "nonpayable",
      "type": "constructor"
    },
    {
      "anonymous": false,
      "inputs": [
        {
          "indexed": true,
          "internalType": "address",
          "name": "submittedby",
          "type": "address"
        },
        {
          "indexed": false,
          "internalType": "uint256",
          "name": "refundedAmount",
          "type": "uint256"
        }
      ],
      "name": "gameCanceled",
      "type": "event"
    },
    {
      "anonymous": false,
      "inputs": [
        {
          "indexed": true,
          "internalType": "address",
          "name": "_playerOne",
          "type": "address"
        },
        {
          "indexed": true,
          "internalType": "address",
          "name": "_playerTwo",
          "type": "address"
        }
      ],
      "name": "newGameCreatedEvent",
      "type": "event"
    },
    {
      "anonymous": false,
      "inputs": [
        {
          "indexed": true,
          "internalType": "address",
          "name": "submittedby",
          "type": "address"
        },
        {
          "indexed": true,
          "internalType": "address",
          "name": "otherPlayer",
          "type": "address"
        },
        {
          "indexed": true,
          "internalType": "string",
          "name": "prevState",
          "type": "string"
        },
        {
          "components": [
            {
              "internalType": "address",
              "name": "playerOne",
              "type": "address"
            },
            {
              "internalType": "address",
              "name": "playerTwo",
              "type": "address"
            },
            {
              "internalType": "enum GameContract.gameState",
              "name": "gState",
              "type": "uint8"
            },
            {
              "internalType": "string",
              "name": "currentGameBoard",
              "type": "string"
            },
            {
              "internalType": "address",
              "name": "lastMover",
              "type": "address"
            },
            {
              "components": [
                {
                  "internalType": "uint256",
                  "name": "totalTime",
                  "type": "uint256"
                },
                {
                  "internalType": "uint256",
                  "name": "timeoutTime",
                  "type": "uint256"
                },
                {
                  "internalType": "uint256",
                  "name": "wageSize",
                  "type": "uint256"
                },
                {
                  "internalType": "uint256",
                  "name": "gameBalance",
                  "type": "uint256"
                }
              ],
              "internalType": "struct GameContract.gameSettings",
              "name": "settings",
              "type": "tuple"
            },
            {
              "internalType": "bool",
              "name": "player2accepted",
              "type": "bool"
            },
            {
              "internalType": "uint256",
              "name": "totalGameTime",
              "type": "uint256"
            },
            {
              "internalType": "uint256",
              "name": "p1Time",
              "type": "uint256"
            },
            {
              "internalType": "uint256",
              "name": "p2Time",
              "type": "uint256"
            },
            {
              "internalType": "uint256[3]",
              "name": "materialState",
              "type": "uint256[3]"
            },
            {
              "internalType": "uint256",
              "name": "lastMoveTime",
              "type": "uint256"
            },
            {
              "internalType": "address",
              "name": "firstToZero",
              "type": "address"
            }
          ],
          "indexed": false,
          "internalType": "struct GameContract.gameData",
          "name": "current",
          "type": "tuple"
        }
      ],
      "name": "newMoveInGame",
      "type": "event"
    },
    {
      "anonymous": false,
      "inputs": [
        {
          "indexed": true,
          "internalType": "address",
          "name": "_player1",
          "type": "address"
        },
        {
          "indexed": true,
          "internalType": "address",
          "name": "_player2",
          "type": "address"
        },
        {
          "indexed": false,
          "internalType": "bool",
          "name": "_accepted",
          "type": "bool"
        }
      ],
      "name": "player2Accepted",
      "type": "event"
    },
    {
      "anonymous": false,
      "inputs": [
        {
          "indexed": true,
          "internalType": "address",
          "name": "submittedby",
          "type": "address"
        },
        {
          "indexed": true,
          "internalType": "address",
          "name": "OtherPlayer",
          "type": "address"
        },
        {
          "indexed": false,
          "internalType": "address",
          "name": "PlayerNotLastMovedThatResigned",
          "type": "address"
        }
      ],
      "name": "playerResigned",
      "type": "event"
    },
    {
      "inputs": [
        {
          "internalType": "uint256",
          "name": "",
          "type": "uint256"
        }
      ],
      "name": "games",
      "outputs": [
        {
          "internalType": "address",
          "name": "playerOne",
          "type": "address"
        },
        {
          "internalType": "address",
          "name": "playerTwo",
          "type": "address"
        },
        {
          "internalType": "enum GameContract.gameState",
          "name": "gState",
          "type": "uint8"
        },
        {
          "internalType": "string",
          "name": "currentGameBoard",
          "type": "string"
        },
        {
          "internalType": "address",
          "name": "lastMover",
          "type": "address"
        },
        {
          "components": [
            {
              "internalType": "uint256",
              "name": "totalTime",
              "type": "uint256"
            },
            {
              "internalType": "uint256",
              "name": "timeoutTime",
              "type": "uint256"
            },
            {
              "internalType": "uint256",
              "name": "wageSize",
              "type": "uint256"
            },
            {
              "internalType": "uint256",
              "name": "gameBalance",
              "type": "uint256"
            }
          ],
          "internalType": "struct GameContract.gameSettings",
          "name": "settings",
          "type": "tuple"
        },
        {
          "internalType": "bool",
          "name": "player2accepted",
          "type": "bool"
        },
        {
          "internalType": "uint256",
          "name": "totalGameTime",
          "type": "uint256"
        },
        {
          "internalType": "uint256",
          "name": "p1Time",
          "type": "uint256"
        },
        {
          "internalType": "uint256",
          "name": "p2Time",
          "type": "uint256"
        },
        {
          "internalType": "uint256",
          "name": "lastMoveTime",
          "type": "uint256"
        },
        {
          "internalType": "address",
          "name": "firstToZero",
          "type": "address"
        }
      ],
      "stateMutability": "view",
      "type": "function",
      "constant": true
    },
    {
      "inputs": [
        {
          "internalType": "address",
          "name": "_playerTwo",
          "type": "address"
        },
        {
          "internalType": "uint16",
          "name": "_totalTime",
          "type": "uint16"
        },
        {
          "internalType": "uint256",
          "name": "_timeoutTime",
          "type": "uint256"
        },
        {
          "internalType": "uint256",
          "name": "_wageSize",
          "type": "uint256"
        },
        {
          "internalType": "string",
          "name": "_currentGameBoard",
          "type": "string"
        }
      ],
      "name": "initializeGame",
      "outputs": [
        {
          "internalType": "uint256",
          "name": "justCreatedGameId",
          "type": "uint256"
        }
      ],
      "stateMutability": "payable",
      "type": "function",
      "payable": true
    },
    {
      "inputs": [],
      "name": "getLastGameId",
      "outputs": [
        {
          "internalType": "uint256",
          "name": "",
          "type": "uint256"
        }
      ],
      "stateMutability": "view",
      "type": "function",
      "constant": true
    },
    {
      "inputs": [
        {
          "internalType": "uint256",
          "name": "gId",
          "type": "uint256"
        }
      ],
      "name": "getGame",
      "outputs": [
        {
          "components": [
            {
              "internalType": "address",
              "name": "playerOne",
              "type": "address"
            },
            {
              "internalType": "address",
              "name": "playerTwo",
              "type": "address"
            },
            {
              "internalType": "enum GameContract.gameState",
              "name": "gState",
              "type": "uint8"
            },
            {
              "internalType": "string",
              "name": "currentGameBoard",
              "type": "string"
            },
            {
              "internalType": "address",
              "name": "lastMover",
              "type": "address"
            },
            {
              "components": [
                {
                  "internalType": "uint256",
                  "name": "totalTime",
                  "type": "uint256"
                },
                {
                  "internalType": "uint256",
                  "name": "timeoutTime",
                  "type": "uint256"
                },
                {
                  "internalType": "uint256",
                  "name": "wageSize",
                  "type": "uint256"
                },
                {
                  "internalType": "uint256",
                  "name": "gameBalance",
                  "type": "uint256"
                }
              ],
              "internalType": "struct GameContract.gameSettings",
              "name": "settings",
              "type": "tuple"
            },
            {
              "internalType": "bool",
              "name": "player2accepted",
              "type": "bool"
            },
            {
              "internalType": "uint256",
              "name": "totalGameTime",
              "type": "uint256"
            },
            {
              "internalType": "uint256",
              "name": "p1Time",
              "type": "uint256"
            },
            {
              "internalType": "uint256",
              "name": "p2Time",
              "type": "uint256"
            },
            {
              "internalType": "uint256[3]",
              "name": "materialState",
              "type": "uint256[3]"
            },
            {
              "internalType": "uint256",
              "name": "lastMoveTime",
              "type": "uint256"
            },
            {
              "internalType": "address",
              "name": "firstToZero",
              "type": "address"
            }
          ],
          "internalType": "struct GameContract.gameData",
          "name": "",
          "type": "tuple"
        }
      ],
      "stateMutability": "view",
      "type": "function",
      "constant": true
    },
    {
      "inputs": [],
      "name": "checkAndReturnCurrentGame",
      "outputs": [
        {
          "components": [
            {
              "internalType": "address",
              "name": "playerOne",
              "type": "address"
            },
            {
              "internalType": "address",
              "name": "playerTwo",
              "type": "address"
            },
            {
              "internalType": "enum GameContract.gameState",
              "name": "gState",
              "type": "uint8"
            },
            {
              "internalType": "string",
              "name": "currentGameBoard",
              "type": "string"
            },
            {
              "internalType": "address",
              "name": "lastMover",
              "type": "address"
            },
            {
              "components": [
                {
                  "internalType": "uint256",
                  "name": "totalTime",
                  "type": "uint256"
                },
                {
                  "internalType": "uint256",
                  "name": "timeoutTime",
                  "type": "uint256"
                },
                {
                  "internalType": "uint256",
                  "name": "wageSize",
                  "type": "uint256"
                },
                {
                  "internalType": "uint256",
                  "name": "gameBalance",
                  "type": "uint256"
                }
              ],
              "internalType": "struct GameContract.gameSettings",
              "name": "settings",
              "type": "tuple"
            },
            {
              "internalType": "bool",
              "name": "player2accepted",
              "type": "bool"
            },
            {
              "internalType": "uint256",
              "name": "totalGameTime",
              "type": "uint256"
            },
            {
              "internalType": "uint256",
              "name": "p1Time",
              "type": "uint256"
            },
            {
              "internalType": "uint256",
              "name": "p2Time",
              "type": "uint256"
            },
            {
              "internalType": "uint256[3]",
              "name": "materialState",
              "type": "uint256[3]"
            },
            {
              "internalType": "uint256",
              "name": "lastMoveTime",
              "type": "uint256"
            },
            {
              "internalType": "address",
              "name": "firstToZero",
              "type": "address"
            }
          ],
          "internalType": "struct GameContract.gameData",
          "name": "game",
          "type": "tuple"
        }
      ],
      "stateMutability": "view",
      "type": "function",
      "constant": true
    },
    {
      "inputs": [],
      "name": "cancelGame",
      "outputs": [],
      "stateMutability": "payable",
      "type": "function",
      "payable": true
    },
    {
      "inputs": [
        {
          "internalType": "bool",
          "name": "_accepted",
          "type": "bool"
        }
      ],
      "name": "playerTwoAccepted",
      "outputs": [],
      "stateMutability": "payable",
      "type": "function",
      "payable": true
    },
    {
      "inputs": [
        {
          "internalType": "string",
          "name": "_submittedMove",
          "type": "string"
        },
        {
          "internalType": "uint256[3]",
          "name": "_material",
          "type": "uint256[3]"
        }
      ],
      "name": "submitMove",
      "outputs": [],
      "stateMutability": "nonpayable",
      "type": "function"
    },
    {
      "inputs": [],
      "name": "resignGame",
      "outputs": [],
      "stateMutability": "nonpayable",
      "type": "function"
    },
    {
      "inputs": [],
      "name": "otherPlayerTimedOut",
      "outputs": [],
      "stateMutability": "nonpayable",
      "type": "function"
    }
  ],
  "bytecode": "0x608060405234801561001057600080fd5b50336000806101000a81548173ffffffffffffffffffffffffffffffffffffffff021916908373ffffffffffffffffffffffffffffffffffffffff1602179055507349a3e9f02e8b0a6076f8568361926d54d17730cb600160006101000a81548173ffffffffffffffffffffffffffffffffffffffff021916908373ffffffffffffffffffffffffffffffffffffffff1602179055506001600281905550613f25806100bd6000396000f3fe6080604052600436106100915760003560e01c80638c79a38c116100595780638c79a38c14610167578063a2f77bcc14610183578063a35b6ec7146101c0578063d84c1ac9146101eb578063ebe5e5d8146101f557610091565b80630800cb7e14610096578063117a5b90146100ad57806313b8b50d146100f55780634ce3e3721461010c5780637ab2942b1461013c575b600080fd5b3480156100a257600080fd5b506100ab61021e565b005b3480156100b957600080fd5b506100d460048036038101906100cf91906131bb565b6103eb565b6040516100ec9c9b9a999897969594939291906139b5565b60405180910390f35b34801561010157600080fd5b5061010a6105af565b005b610126600480360381019061012191906130af565b6107ed565b6040516101339190613b57565b60405180910390f35b34801561014857600080fd5b50610151610c70565b60405161015e9190613b13565b60405180910390f35b610181600480360381019061017c919061313e565b610fc6565b005b34801561018f57600080fd5b506101aa60048036038101906101a591906131bb565b61145b565b6040516101b79190613b13565b60405180910390f35b3480156101cc57600080fd5b506101d5611774565b6040516101e29190613b57565b60405180910390f35b6101f3611781565b005b34801561020157600080fd5b5061021c60048036038101906102179190613167565b611ca4565b005b610266600460003373ffffffffffffffffffffffffffffffffffffffff1673ffffffffffffffffffffffffffffffffffffffff168152602001908152602001600020546121d7565b156103e9576000600460006102b9600460003373ffffffffffffffffffffffffffffffffffffffff1673ffffffffffffffffffffffffffffffffffffffff168152602001908152602001600020546125ba565b73ffffffffffffffffffffffffffffffffffffffff1673ffffffffffffffffffffffffffffffffffffffff168152602001908152602001600020819055506000600460003373ffffffffffffffffffffffffffffffffffffffff1673ffffffffffffffffffffffffffffffffffffffff16815260200190815260200160002081905550610384600460003373ffffffffffffffffffffffffffffffffffffffff1673ffffffffffffffffffffffffffffffffffffffff168152602001908152602001600020546125ba565b73ffffffffffffffffffffffffffffffffffffffff163373ffffffffffffffffffffffffffffffffffffffff167f2ebf0de5f8a94f0cb6835b17c86eb1fff68d7f0bb4857bfb28953adad5b7d44a336040516103e0919061399a565b60405180910390a35b565b60036020528060005260406000206000915090508060000160009054906101000a900473ffffffffffffffffffffffffffffffffffffffff16908060010160009054906101000a900473ffffffffffffffffffffffffffffffffffffffff16908060010160149054906101000a900460ff1690806002018054600181600116156101000203166002900480601f0160208091040260200160405190810160405280929190818152602001828054600181600116156101000203166002900480156104f65780601f106104cb576101008083540402835291602001916104f6565b820191906000526020600020905b8154815290600101906020018083116104d957829003601f168201915b5050505050908060030160009054906101000a900473ffffffffffffffffffffffffffffffffffffffff169080600401604051806080016040529081600082015481526020016001820154815260200160028201548152602001600382015481525050908060080160009054906101000a900460ff169080600901549080600a01549080600b01549080600f0154908060100160009054906101000a900473ffffffffffffffffffffffffffffffffffffffff1690508c565b60036000600460003373ffffffffffffffffffffffffffffffffffffffff1673ffffffffffffffffffffffffffffffffffffffff16815260200190815260200160002054815260200190815260200160002060100160009054906101000a900473ffffffffffffffffffffffffffffffffffffffff1673ffffffffffffffffffffffffffffffffffffffff16610683600460003373ffffffffffffffffffffffffffffffffffffffff1673ffffffffffffffffffffffffffffffffffffffff168152602001908152602001600020546125ba565b73ffffffffffffffffffffffffffffffffffffffff1614806107ac5750603c420160036000600460003373ffffffffffffffffffffffffffffffffffffffff1673ffffffffffffffffffffffffffffffffffffffff168152602001908152602001600020548152602001908152602001600020600401600101541080156107ab5750600073ffffffffffffffffffffffffffffffffffffffff1660036000600460003373ffffffffffffffffffffffffffffffffffffffff1673ffffffffffffffffffffffffffffffffffffffff16815260200190815260200160002054815260200190815260200160002060030160009054906101000a900473ffffffffffffffffffffffffffffffffffffffff1673ffffffffffffffffffffffffffffffffffffffff16145b5b6107eb576040517f08c379a00000000000000000000000000000000000000000000000000000000081526004016107e290613ad3565b60405180910390fd5b565b6000604051806101a001604052803373ffffffffffffffffffffffffffffffffffffffff1681526020018773ffffffffffffffffffffffffffffffffffffffff1681526020016001600481111561084057fe5b8152602001838152602001600073ffffffffffffffffffffffffffffffffffffffff16815260200160405180608001604052808861ffff1681526020014288018152602001868152602001348152508152602001600015158152602001610258815260200161012c815260200161012c8152602001604051806060016040528060018152602001600281526020016003815250815260200160008152602001600073ffffffffffffffffffffffffffffffffffffffff1681525060036000600254815260200190815260200160002060008201518160000160006101000a81548173ffffffffffffffffffffffffffffffffffffffff021916908373ffffffffffffffffffffffffffffffffffffffff16021790555060208201518160010160006101000a81548173ffffffffffffffffffffffffffffffffffffffff021916908373ffffffffffffffffffffffffffffffffffffffff16021790555060408201518160010160146101000a81548160ff021916908360048111156109c157fe5b021790555060608201518160020190805190602001906109e2929190612d5b565b5060808201518160030160006101000a81548173ffffffffffffffffffffffffffffffffffffffff021916908373ffffffffffffffffffffffffffffffffffffffff16021790555060a08201518160040160008201518160000155602082015181600101556040820151816002015560608201518160030155505060c08201518160080160006101000a81548160ff02191690831515021790555060e0820151816009015561010082015181600a015561012082015181600b015561014082015181600c01906003610ab5929190612de9565b5061016082015181600f01556101808201518160100160006101000a81548173ffffffffffffffffffffffffffffffffffffffff021916908373ffffffffffffffffffffffffffffffffffffffff160217905550905050610b1533612966565b8015610b265750610b2586612966565b5b610b65576040517f08c379a0000000000000000000000000000000000000000000000000000000008152600401610b5c90613ab3565b60405180910390fd5b600254600460003373ffffffffffffffffffffffffffffffffffffffff1673ffffffffffffffffffffffffffffffffffffffff16815260200190815260200160002081905550600254600460008873ffffffffffffffffffffffffffffffffffffffff1673ffffffffffffffffffffffffffffffffffffffff1681526020019081526020016000208190555060025490508573ffffffffffffffffffffffffffffffffffffffff163373ffffffffffffffffffffffffffffffffffffffff167f924d7492e89e2320415cf3dc9b3c1844a2ff30bca5eb7c40c2aa288c916b394960405160405180910390a3600260008154809291906001019190505550600254905095945050505050565b610c78612e29565b60036000600460003373ffffffffffffffffffffffffffffffffffffffff1673ffffffffffffffffffffffffffffffffffffffff168152602001908152602001600020548152602001908152602001600020604051806101a00160405290816000820160009054906101000a900473ffffffffffffffffffffffffffffffffffffffff1673ffffffffffffffffffffffffffffffffffffffff1673ffffffffffffffffffffffffffffffffffffffff1681526020016001820160009054906101000a900473ffffffffffffffffffffffffffffffffffffffff1673ffffffffffffffffffffffffffffffffffffffff1673ffffffffffffffffffffffffffffffffffffffff1681526020016001820160149054906101000a900460ff166004811115610da057fe5b6004811115610dab57fe5b8152602001600282018054600181600116156101000203166002900480601f016020809104026020016040519081016040528092919081815260200182805460018160011615610100020316600290048015610e485780601f10610e1d57610100808354040283529160200191610e48565b820191906000526020600020905b815481529060010190602001808311610e2b57829003601f168201915b505050505081526020016003820160009054906101000a900473ffffffffffffffffffffffffffffffffffffffff1673ffffffffffffffffffffffffffffffffffffffff1673ffffffffffffffffffffffffffffffffffffffff1681526020016004820160405180608001604052908160008201548152602001600182015481526020016002820154815260200160038201548152505081526020016008820160009054906101000a900460ff1615151515815260200160098201548152602001600a8201548152602001600b8201548152602001600c8201600380602002604051908101604052809291908260038015610f58576020028201915b815481526020019060010190808311610f44575b50505050508152602001600f82015481526020016010820160009054906101000a900473ffffffffffffffffffffffffffffffffffffffff1673ffffffffffffffffffffffffffffffffffffffff1673ffffffffffffffffffffffffffffffffffffffff1681525050905090565b8061128b57600060036000600460003373ffffffffffffffffffffffffffffffffffffffff1673ffffffffffffffffffffffffffffffffffffffff16815260200190815260200160002054815260200190815260200160002090503373ffffffffffffffffffffffffffffffffffffffff168160010160009054906101000a900473ffffffffffffffffffffffffffffffffffffffff1673ffffffffffffffffffffffffffffffffffffffff161461107d57600080fd5b60008160080160006101000a81548160ff02191690831515021790555060048160010160146101000a81548160ff021916908360048111156110bb57fe5b02179055506000600460008360000160009054906101000a900473ffffffffffffffffffffffffffffffffffffffff1673ffffffffffffffffffffffffffffffffffffffff1673ffffffffffffffffffffffffffffffffffffffff168152602001908152602001600020819055506000600460008360010160009054906101000a900473ffffffffffffffffffffffffffffffffffffffff1673ffffffffffffffffffffffffffffffffffffffff1673ffffffffffffffffffffffffffffffffffffffff168152602001908152602001600020819055506000600460003373ffffffffffffffffffffffffffffffffffffffff1673ffffffffffffffffffffffffffffffffffffffff168152602001908152602001600020819055508060010160009054906101000a900473ffffffffffffffffffffffffffffffffffffffff1673ffffffffffffffffffffffffffffffffffffffff168160000160009054906101000a900473ffffffffffffffffffffffffffffffffffffffff1673ffffffffffffffffffffffffffffffffffffffff167f8f46d051ff9b2597fea8c60146bef33969de64edef522f8e1e927f117cb408b6600060405161127d9190613a78565b60405180910390a350611458565b600060036000600460003373ffffffffffffffffffffffffffffffffffffffff1673ffffffffffffffffffffffffffffffffffffffff1681526020019081526020016000205481526020019081526020016000209050806004016002015434146112f457600080fd5b3373ffffffffffffffffffffffffffffffffffffffff168160010160009054906101000a900473ffffffffffffffffffffffffffffffffffffffff1673ffffffffffffffffffffffffffffffffffffffff161461135057600080fd5b60018160080160006101000a81548160ff02191690831515021790555060028160010160146101000a81548160ff0219169083600481111561138e57fe5b02179055503481600401600301600082825401925050819055508060010160009054906101000a900473ffffffffffffffffffffffffffffffffffffffff1673ffffffffffffffffffffffffffffffffffffffff168160000160009054906101000a900473ffffffffffffffffffffffffffffffffffffffff1673ffffffffffffffffffffffffffffffffffffffff167f8f46d051ff9b2597fea8c60146bef33969de64edef522f8e1e927f117cb408b6600160405161144e9190613a78565b60405180910390a3505b50565b611463612e29565b60036000838152602001908152602001600020604051806101a00160405290816000820160009054906101000a900473ffffffffffffffffffffffffffffffffffffffff1673ffffffffffffffffffffffffffffffffffffffff1673ffffffffffffffffffffffffffffffffffffffff1681526020016001820160009054906101000a900473ffffffffffffffffffffffffffffffffffffffff1673ffffffffffffffffffffffffffffffffffffffff1673ffffffffffffffffffffffffffffffffffffffff1681526020016001820160149054906101000a900460ff16600481111561154c57fe5b600481111561155757fe5b8152602001600282018054600181600116156101000203166002900480601f0160208091040260200160405190810160405280929190818152602001828054600181600116156101000203166002900480156115f45780601f106115c9576101008083540402835291602001916115f4565b820191906000526020600020905b8154815290600101906020018083116115d757829003601f168201915b505050505081526020016003820160009054906101000a900473ffffffffffffffffffffffffffffffffffffffff1673ffffffffffffffffffffffffffffffffffffffff1673ffffffffffffffffffffffffffffffffffffffff1681526020016004820160405180608001604052908160008201548152602001600182015481526020016002820154815260200160038201548152505081526020016008820160009054906101000a900460ff1615151515815260200160098201548152602001600a8201548152602001600b8201548152602001600c8201600380602002604051908101604052809291908260038015611704576020028201915b8154815260200190600101908083116116f0575b50505050508152602001600f82015481526020016010820160009054906101000a900473ffffffffffffffffffffffffffffffffffffffff1673ffffffffffffffffffffffffffffffffffffffff1673ffffffffffffffffffffffffffffffffffffffff16815250509050919050565b6000600160025403905090565b600060036000600460003373ffffffffffffffffffffffffffffffffffffffff1673ffffffffffffffffffffffffffffffffffffffff168152602001908152602001600020548152602001908152602001600020604051806101a00160405290816000820160009054906101000a900473ffffffffffffffffffffffffffffffffffffffff1673ffffffffffffffffffffffffffffffffffffffff1673ffffffffffffffffffffffffffffffffffffffff1681526020016001820160009054906101000a900473ffffffffffffffffffffffffffffffffffffffff1673ffffffffffffffffffffffffffffffffffffffff1673ffffffffffffffffffffffffffffffffffffffff1681526020016001820160149054906101000a900460ff1660048111156118ab57fe5b60048111156118b657fe5b8152602001600282018054600181600116156101000203166002900480601f0160208091040260200160405190810160405280929190818152602001828054600181600116156101000203166002900480156119535780601f1061192857610100808354040283529160200191611953565b820191906000526020600020905b81548152906001019060200180831161193657829003601f168201915b505050505081526020016003820160009054906101000a900473ffffffffffffffffffffffffffffffffffffffff1673ffffffffffffffffffffffffffffffffffffffff1673ffffffffffffffffffffffffffffffffffffffff1681526020016004820160405180608001604052908160008201548152602001600182015481526020016002820154815260200160038201548152505081526020016008820160009054906101000a900460ff1615151515815260200160098201548152602001600a8201548152602001600b8201548152602001600c8201600380602002604051908101604052809291908260038015611a63576020028201915b815481526020019060010190808311611a4f575b50505050508152602001600f82015481526020016010820160009054906101000a900473ffffffffffffffffffffffffffffffffffffffff1673ffffffffffffffffffffffffffffffffffffffff1673ffffffffffffffffffffffffffffffffffffffff168152505090508060c00151158015611ae75750428160a0015160200151105b8015611b225750806000015173ffffffffffffffffffffffffffffffffffffffff163373ffffffffffffffffffffffffffffffffffffffff16145b15611ca157600060046000836000015173ffffffffffffffffffffffffffffffffffffffff1673ffffffffffffffffffffffffffffffffffffffff16815260200190815260200160002081905550600060046000836020015173ffffffffffffffffffffffffffffffffffffffff1673ffffffffffffffffffffffffffffffffffffffff16815260200190815260200160002081905550600060638260a001516040015181611bcd57fe5b048260a001516040015103905060003373ffffffffffffffffffffffffffffffffffffffff1682604051611c0090613985565b60006040518083038185875af1925050503d8060008114611c3d576040519150601f19603f3d011682016040523d82523d6000602084013e611c42565b606091505b5050905080611c5057600080fd5b3373ffffffffffffffffffffffffffffffffffffffff167f38658d3cef5cc44cbe180db715b3888e2a3b59e21b5ed1193b79a8c33dd292c683604051611c969190613b57565b60405180910390a250505b50565b600082905060036000600460003373ffffffffffffffffffffffffffffffffffffffff1673ffffffffffffffffffffffffffffffffffffffff16815260200190815260200160002054815260200190815260200160002060080160009054906101000a900460ff16611d4b576040517f08c379a0000000000000000000000000000000000000000000000000000000008152600401611d4290613af3565b60405180910390fd5b611d93600460003373ffffffffffffffffffffffffffffffffffffffff1673ffffffffffffffffffffffffffffffffffffffff168152602001908152602001600020546121d7565b611d9c57600080fd5b600060036000600460003373ffffffffffffffffffffffffffffffffffffffff1673ffffffffffffffffffffffffffffffffffffffff16815260200190815260200160002054815260200190815260200160002090506000816002018054600181600116156101000203166002900480601f016020809104026020016040519081016040528092919081815260200182805460018160011615610100020316600290048015611e8c5780601f10611e6157610100808354040283529160200191611e8c565b820191906000526020600020905b815481529060010190602001808311611e6f57829003601f168201915b50505050509050338260030160006101000a81548173ffffffffffffffffffffffffffffffffffffffff021916908373ffffffffffffffffffffffffffffffffffffffff16021790555082826002019080519060200190611eee929190612d5b565b508382600c01906003611f02929190612de9565b50600082600f01541115612105578160010160009054906101000a900473ffffffffffffffffffffffffffffffffffffffff1673ffffffffffffffffffffffffffffffffffffffff16611f93600460003373ffffffffffffffffffffffffffffffffffffffff1673ffffffffffffffffffffffffffffffffffffffff168152602001908152602001600020546125ba565b73ffffffffffffffffffffffffffffffffffffffff1614156120525781600a015482600f01544203111561203757600082600a01819055508160000160009054906101000a900473ffffffffffffffffffffffffffffffffffffffff168260100160006101000a81548173ffffffffffffffffffffffffffffffffffffffff021916908373ffffffffffffffffffffffffffffffffffffffff16021790555061204d565b81600f0154420382600a01540382600a01819055505b6120f1565b81600b015482600f0154420311156120da57600082600b01819055508160010160009054906101000a900473ffffffffffffffffffffffffffffffffffffffff168260100160006101000a81548173ffffffffffffffffffffffffffffffffffffffff021916908373ffffffffffffffffffffffffffffffffffffffff1602179055506120f0565b81600f0154420382600b01540382600b01819055505b5b81600b015482600a01540182600901819055505b4282600f01819055508060405161211c919061396e565b604051809103902061216c600460003373ffffffffffffffffffffffffffffffffffffffff1673ffffffffffffffffffffffffffffffffffffffff168152602001908152602001600020546125ba565b73ffffffffffffffffffffffffffffffffffffffff163373ffffffffffffffffffffffffffffffffffffffff167fe1bdf91e274f3895802681b05863c2d692e7e72383701e739c935838678479f8856040516121c89190613b35565b60405180910390a45050505050565b60008060036000848152602001908152602001600020604051806101a00160405290816000820160009054906101000a900473ffffffffffffffffffffffffffffffffffffffff1673ffffffffffffffffffffffffffffffffffffffff1673ffffffffffffffffffffffffffffffffffffffff1681526020016001820160009054906101000a900473ffffffffffffffffffffffffffffffffffffffff1673ffffffffffffffffffffffffffffffffffffffff1673ffffffffffffffffffffffffffffffffffffffff1681526020016001820160149054906101000a900460ff1660048111156122c357fe5b60048111156122ce57fe5b8152602001600282018054600181600116156101000203166002900480601f01602080910402602001604051908101604052809291908181526020018280546001816001161561010002031660029004801561236b5780601f106123405761010080835404028352916020019161236b565b820191906000526020600020905b81548152906001019060200180831161234e57829003601f168201915b505050505081526020016003820160009054906101000a900473ffffffffffffffffffffffffffffffffffffffff1673ffffffffffffffffffffffffffffffffffffffff1673ffffffffffffffffffffffffffffffffffffffff1681526020016004820160405180608001604052908160008201548152602001600182015481526020016002820154815260200160038201548152505081526020016008820160009054906101000a900460ff1615151515815260200160098201548152602001600a8201548152602001600b8201548152602001600c820160038060200260405190810160405280929190826003801561247b576020028201915b815481526020019060010190808311612467575b50505050508152602001600f82015481526020016010820160009054906101000a900473ffffffffffffffffffffffffffffffffffffffff1673ffffffffffffffffffffffffffffffffffffffff1673ffffffffffffffffffffffffffffffffffffffff168152505090506000600260048111156124f557fe5b8260400151600481111561250557fe5b148061252b57506001600481111561251957fe5b8260400151600481111561252957fe5b145b90506000826080015173ffffffffffffffffffffffffffffffffffffffff163373ffffffffffffffffffffffffffffffffffffffff161415905081801561256f5750805b6125ae576040517f08c379a00000000000000000000000000000000000000000000000000000000081526004016125a590613a93565b60405180910390fd5b60019350505050919050565b60008060036000848152602001908152602001600020604051806101a00160405290816000820160009054906101000a900473ffffffffffffffffffffffffffffffffffffffff1673ffffffffffffffffffffffffffffffffffffffff1673ffffffffffffffffffffffffffffffffffffffff1681526020016001820160009054906101000a900473ffffffffffffffffffffffffffffffffffffffff1673ffffffffffffffffffffffffffffffffffffffff1673ffffffffffffffffffffffffffffffffffffffff1681526020016001820160149054906101000a900460ff1660048111156126a657fe5b60048111156126b157fe5b8152602001600282018054600181600116156101000203166002900480601f01602080910402602001604051908101604052809291908181526020018280546001816001161561010002031660029004801561274e5780601f106127235761010080835404028352916020019161274e565b820191906000526020600020905b81548152906001019060200180831161273157829003601f168201915b505050505081526020016003820160009054906101000a900473ffffffffffffffffffffffffffffffffffffffff1673ffffffffffffffffffffffffffffffffffffffff1673ffffffffffffffffffffffffffffffffffffffff1681526020016004820160405180608001604052908160008201548152602001600182015481526020016002820154815260200160038201548152505081526020016008820160009054906101000a900460ff1615151515815260200160098201548152602001600a8201548152602001600b8201548152602001600c820160038060200260405190810160405280929190826003801561285e576020028201915b81548152602001906001019080831161284a575b50505050508152602001600f82015481526020016010820160009054906101000a900473ffffffffffffffffffffffffffffffffffffffff1673ffffffffffffffffffffffffffffffffffffffff1673ffffffffffffffffffffffffffffffffffffffff1681525050905082600460003373ffffffffffffffffffffffffffffffffffffffff1673ffffffffffffffffffffffffffffffffffffffff168152602001908152602001600020541461291457600080fd5b3373ffffffffffffffffffffffffffffffffffffffff16816000015173ffffffffffffffffffffffffffffffffffffffff1614156129585780602001519150612960565b806000015191505b50919050565b60008060036000600460008673ffffffffffffffffffffffffffffffffffffffff1673ffffffffffffffffffffffffffffffffffffffff168152602001908152602001600020548152602001908152602001600020604051806101a00160405290816000820160009054906101000a900473ffffffffffffffffffffffffffffffffffffffff1673ffffffffffffffffffffffffffffffffffffffff1673ffffffffffffffffffffffffffffffffffffffff1681526020016001820160009054906101000a900473ffffffffffffffffffffffffffffffffffffffff1673ffffffffffffffffffffffffffffffffffffffff1673ffffffffffffffffffffffffffffffffffffffff1681526020016001820160149054906101000a900460ff166004811115612a9157fe5b6004811115612a9c57fe5b8152602001600282018054600181600116156101000203166002900480601f016020809104026020016040519081016040528092919081815260200182805460018160011615610100020316600290048015612b395780601f10612b0e57610100808354040283529160200191612b39565b820191906000526020600020905b815481529060010190602001808311612b1c57829003601f168201915b505050505081526020016003820160009054906101000a900473ffffffffffffffffffffffffffffffffffffffff1673ffffffffffffffffffffffffffffffffffffffff1673ffffffffffffffffffffffffffffffffffffffff1681526020016004820160405180608001604052908160008201548152602001600182015481526020016002820154815260200160038201548152505081526020016008820160009054906101000a900460ff1615151515815260200160098201548152602001600a8201548152602001600b8201548152602001600c8201600380602002604051908101604052809291908260038015612c49576020028201915b815481526020019060010190808311612c35575b50505050508152602001600f82015481526020016010820160009054906101000a900473ffffffffffffffffffffffffffffffffffffffff1673ffffffffffffffffffffffffffffffffffffffff1673ffffffffffffffffffffffffffffffffffffffff1681525050905060036004811115612cc157fe5b81604001516004811115612cd157fe5b1480612cf7575060006004811115612ce557fe5b81604001516004811115612cf557fe5b145b80612d4157506000600460008573ffffffffffffffffffffffffffffffffffffffff1673ffffffffffffffffffffffffffffffffffffffff16815260200190815260200160002054145b15612d50576001915050612d56565b60009150505b919050565b828054600181600116156101000203166002900490600052602060002090601f016020900481019282612d915760008555612dd8565b82601f10612daa57805160ff1916838001178555612dd8565b82800160010185558215612dd8579182015b82811115612dd7578251825591602001919060010190612dbc565b5b509050612de59190612f02565b5090565b8260038101928215612e18579160200282015b82811115612e17578251825591602001919060010190612dfc565b5b509050612e259190612f02565b5090565b604051806101a00160405280600073ffffffffffffffffffffffffffffffffffffffff168152602001600073ffffffffffffffffffffffffffffffffffffffff16815260200160006004811115612e7c57fe5b815260200160608152602001600073ffffffffffffffffffffffffffffffffffffffff168152602001612ead612f1f565b8152602001600015158152602001600081526020016000815260200160008152602001612ed8612f47565b815260200160008152602001600073ffffffffffffffffffffffffffffffffffffffff1681525090565b5b80821115612f1b576000816000905550600101612f03565b5090565b6040518060800160405280600081526020016000815260200160008152602001600081525090565b6040518060600160405280600390602082028036833780820191505090505090565b6000612f7c612f7784613ba3565b613b72565b90508082856020860282011115612f9257600080fd5b60005b85811015612fc25781612fa8888261309a565b845260208401935060208301925050600181019050612f95565b5050509392505050565b6000612fdf612fda84613bc9565b613b72565b905082815260208101848484011115612ff757600080fd5b613002848285613d95565b509392505050565b60008135905061301981613e93565b92915050565b600082601f83011261303057600080fd5b600361303d848285612f69565b91505092915050565b60008135905061305581613eaa565b92915050565b600082601f83011261306c57600080fd5b813561307c848260208601612fcc565b91505092915050565b60008135905061309481613ec1565b92915050565b6000813590506130a981613ed8565b92915050565b600080600080600060a086880312156130c757600080fd5b60006130d58882890161300a565b95505060206130e688828901613085565b94505060406130f78882890161309a565b93505060606131088882890161309a565b925050608086013567ffffffffffffffff81111561312557600080fd5b6131318882890161305b565b9150509295509295909350565b60006020828403121561315057600080fd5b600061315e84828501613046565b91505092915050565b6000806080838503121561317a57600080fd5b600083013567ffffffffffffffff81111561319457600080fd5b6131a08582860161305b565b92505060206131b18582860161301f565b9150509250929050565b6000602082840312156131cd57600080fd5b60006131db8482850161309a565b91505092915050565b60006131f08383613950565b60208301905092915050565b61320581613d4d565b82525050565b61321481613ce4565b82525050565b61322381613ce4565b82525050565b61323281613c22565b61323c8184613c5d565b925061324782613bf9565b8060005b8381101561327857815161325f87826131e4565b965061326a83613c43565b92505060018101905061324b565b505050505050565b61328981613c2d565b6132938184613c5d565b925061329e82613c03565b8060005b838110156132d6576132b382613e41565b6132bd87826131e4565b96506132c883613c50565b9250506001810190506132a2565b505050505050565b6132e781613cf6565b82525050565b6132f681613cf6565b82525050565b61330581613d5f565b82525050565b61331481613d5f565b82525050565b600061332582613c38565b61332f8185613c73565b935061333f818560208601613da4565b61334881613e54565b840191505092915050565b600061335e82613c38565b6133688185613c84565b9350613378818560208601613da4565b61338181613e54565b840191505092915050565b600061339782613c38565b6133a18185613c95565b93506133b1818560208601613da4565b80840191505092915050565b6000815460018116600081146133da576001811461340057613444565b607f60028304166133eb8187613c73565b955060ff198316865260208601935050613444565b6002820461340e8187613c73565b955061341985613c0d565b60005b8281101561343b5781548189015260018201915060208101905061341c565b80880195505050505b505092915050565b6000613459601883613c84565b91507f47616d652053746174653a20556e617661696c61626c652e00000000000000006000830152602082019050919050565b6000613499602a83613c84565b91507f4f6e65206f662074686520706c61796572732068617320612067616d6520696e60008301527f2070726f67726573732e000000000000000000000000000000000000000000006020830152604082019050919050565b60006134ff601d83613c84565b91507f41647665727361727920646964206e6f742074696d656f7574207965740000006000830152602082019050919050565b600061353f601b83613c84565b91507f506c617965723220646964206e6f7420616363657074207965742e00000000006000830152602082019050919050565b600061357f600083613c68565b9150600082019050919050565b6000610240830160008301516135a5600086018261320b565b5060208301516135b8602086018261320b565b5060408301516135cb60408601826132fc565b50606083015184820360608601526135e3828261331a565b91505060808301516135f8608086018261320b565b5060a083015161360b60a0860182613823565b5060c083015161361f6101208601826132de565b5060e0830151613633610140860182613950565b50610100830151613648610160860182613950565b5061012083015161365d610180860182613950565b506101408301516136726101a0860182613229565b50610160830151613687610200860182613950565b5061018083015161369c61022086018261320b565b508091505092915050565b6000610240830160008084015490506136bf81613dd7565b6136cc600087018261320b565b50600184015490506136dd81613dd7565b6136ea602087018261320b565b506136f481613e25565b61370160408701826132fc565b5060028401858303606087015261371883826133bd565b9250506003840154905061372b81613dd7565b613738608087018261320b565b506004840161374a60a08701826138cd565b506008840154905061375b81613df1565b6137696101208701826132de565b506009840154905061377a81613e0b565b613788610140870182613950565b50600a840154905061379981613e0b565b6137a7610160870182613950565b50600b84015490506137b881613e0b565b6137c6610180870182613950565b50600c84016137d96101a0870182613280565b50600f84015490506137ea81613e0b565b6137f8610200870182613950565b506010840154905061380981613dd7565b61381761022087018261320b565b50819250505092915050565b6080820160008201516138396000850182613950565b50602082015161384c6020850182613950565b50604082015161385f6040850182613950565b5060608201516138726060850182613950565b50505050565b60808201600082015161388e6000850182613950565b5060208201516138a16020850182613950565b5060408201516138b46040850182613950565b5060608201516138c76060850182613950565b50505050565b6080820160008083015490506138e281613e0b565b6138ef6000860182613950565b506001830154905061390081613e0b565b61390d6020860182613950565b506002830154905061391e81613e0b565b61392b6040860182613950565b506003830154905061393c81613e0b565b6139496060860182613950565b5050505050565b61395981613d43565b82525050565b61396881613d43565b82525050565b600061397a828461338c565b915081905092915050565b600061399082613572565b9150819050919050565b60006020820190506139af60008301846131fc565b92915050565b60006101e0820190506139cb600083018f61321a565b6139d8602083018e61321a565b6139e5604083018d61330b565b81810360608301526139f7818c613353565b9050613a06608083018b61321a565b613a1360a083018a613878565b613a216101208301896132ed565b613a2f61014083018861395f565b613a3d61016083018761395f565b613a4b61018083018661395f565b613a596101a083018561395f565b613a676101c083018461321a565b9d9c50505050505050505050505050565b6000602082019050613a8d60008301846132ed565b92915050565b60006020820190508181036000830152613aac8161344c565b9050919050565b60006020820190508181036000830152613acc8161348c565b9050919050565b60006020820190508181036000830152613aec816134f2565b9050919050565b60006020820190508181036000830152613b0c81613532565b9050919050565b60006020820190508181036000830152613b2d818461358c565b905092915050565b60006020820190508181036000830152613b4f81846136a7565b905092915050565b6000602082019050613b6c600083018461395f565b92915050565b6000604051905081810181811067ffffffffffffffff82111715613b9957613b98613e3f565b5b8060405250919050565b600067ffffffffffffffff821115613bbe57613bbd613e3f565b5b602082029050919050565b600067ffffffffffffffff821115613be457613be3613e3f565b5b601f19601f8301169050602081019050919050565b6000819050919050565b6000819050919050565b60008190508160005260206000209050919050565b600060039050919050565b600060039050919050565b600081519050919050565b6000602082019050919050565b6000600182019050919050565b600081905092915050565b600081905092915050565b600082825260208201905092915050565b600082825260208201905092915050565b600081905092915050565b600073ffffffffffffffffffffffffffffffffffffffff82169050919050565b600060ff82169050919050565b600060ff82169050919050565b6000819050919050565b6000613cef82613d23565b9050919050565b60008115159050919050565b6000819050613d1082613e7f565b919050565b600061ffff82169050919050565b600073ffffffffffffffffffffffffffffffffffffffff82169050919050565b6000819050919050565b6000613d5882613d71565b9050919050565b6000613d6a82613d02565b9050919050565b6000613d7c82613d83565b9050919050565b6000613d8e82613d23565b9050919050565b82818337600083830152505050565b60005b83811015613dc2578082015181840152602081019050613da7565b83811115613dd1576000848401525b50505050565b6000613dea613de583613e65565b613ca0565b9050919050565b6000613e04613dff83613e65565b613cc0565b9050919050565b6000613e1e613e1983613e65565b613cda565b9050919050565b6000613e38613e3383613e72565b613ccd565b9050919050565bfe5b6000613e4d8254613e0b565b9050919050565b6000601f19601f8301169050919050565b60008160001c9050919050565b60008160a01c9050919050565b60058110613e9057613e8f613e3f565b5b50565b613e9c81613ce4565b8114613ea757600080fd5b50565b613eb381613cf6565b8114613ebe57600080fd5b50565b613eca81613d15565b8114613ed557600080fd5b50565b613ee181613d43565b8114613eec57600080fd5b5056fea2646970667358221220a07945134219509bb37866802fb096a5727f49e6923a3c1ed1e0a90a1276885964736f6c63430007060033",
  "immutableReferences": {},
  "source": "// SPDX-License-Identifier: MIT\n//pragma solidity >=0.4.22 <0.9.0;\npragma solidity >=0.7.0;\npragma experimental ABIEncoderV2;\n\ncontract GameContract {\n\n  //address owner3;\n  address owner;\n  address owner2;\n  uint gameId;\n  \n//////// Constructor \n//compiler requires public\n  constructor() {\n    owner= msg.sender;\n    owner2= address(0x49A3e9f02E8b0a6076f8568361926D54d17730Cb);\n    gameId=1;\n  }\n\n  //  function setNewOwner(address _newOwner) isOwner external {\n  //    owner3= _newOwner;\n  // }\n/////// Constructor END\n  \n  enum gameState {NoAssignedState, Staged, InProgress, Ended, Rejected }\n  \n  struct gameSettings {\n    uint totalTime;\n    uint timeoutTime;\n    uint wageSize; \n    uint gameBalance;\n  }\n\n\n\n  struct gameData {\n    address playerOne;\n    address playerTwo;\n    gameState gState;\n    string currentGameBoard;\n    address lastMover;\n    gameSettings settings;\n    \n    bool player2accepted;\n    uint totalGameTime;\n    uint p1Time;\n    uint p2Time;\n    uint[3] materialState;\n    uint lastMoveTime;\n    address firstToZero;\n  }\n  \n  mapping (uint => gameData) public games; \n  mapping (address => uint) myLastGame;\n\n///////////BulkHudiStart\n\n  event newGameCreatedEvent(address indexed _playerOne, address indexed _playerTwo);\n\n////// Modifiers Start \n  modifier isOwner() {\n    require (msg.sender == owner|| msg.sender == owner2 , \"Not an Owner\");\n    _; \n  }\n\n  function otherPlayer(uint _gameId) view internal returns (address othr) {\n    gameData memory thisGame = games[_gameId];\n    require(myLastGame[msg.sender]== _gameId);\n    if (thisGame.playerOne == msg.sender){\n      othr = thisGame.playerTwo;\n    } else {\n      othr= thisGame.playerOne;\n    }\n  }  \n\n  function onMoveStateCheck(uint _gameid ) internal view returns(bool) {\n    //do not need it, do I?\n    gameData memory game=games[_gameid];\n    bool g= (  game.gState == gameState.InProgress || game.gState == gameState.Staged  );\n    bool notLastMover = !(msg.sender == game.lastMover); \n    require( g && notLastMover , \"Game State: Unavailable.\" );\n    return true;\n  }\n\n  // function player2NotInAGame(uint _gameid) internal view returns (bool) {\n  //   gameData memory game = games[_gameId];\n  //   require(myLastGame[game.playerTwo] == 0, \"Player Two already in a game\");\n  //   return true;\n  // } \n\n  function noGameOnCreate(address player) internal view returns(bool) {\n    gameData memory lastPlayerGame = games[myLastGame[player]]; \n\n    if( (lastPlayerGame.gState == gameState.Ended) || (lastPlayerGame.gState == gameState.NoAssignedState) || myLastGame[player] == 0 ){\n      return true;\n    } else {\n      return false;\n    }\n  }\n////// Modifiers END\n  function initializeGame(address _playerTwo,\n                          uint16 _totalTime,\n                          uint _timeoutTime,\n                          uint _wageSize,\n                          string memory _currentGameBoard\n                      ) public payable returns(uint justCreatedGameId) {\n    \n  \n    games[gameId]= gameData({\n                            playerOne: msg.sender,\n                            playerTwo: _playerTwo,\n                            gState: gameState.Staged,\n                            currentGameBoard:_currentGameBoard,\n                            lastMover: address(0),\n                            settings: gameSettings ({\n                                              totalTime: _totalTime,\n                                              timeoutTime: _timeoutTime + block.timestamp,\n                                              wageSize:  _wageSize,\n                                              gameBalance: msg.value }),\n                             \n                            player2accepted: false,\n                            totalGameTime: 600,\n                            p1Time: 300,\n                            p2Time: 300,\n                            materialState: [uint(1),uint(2),uint(3)],\n                            lastMoveTime:0,\n                            firstToZero: address(0)   \n                            });\n//playerTwo is always white\n\n    require((noGameOnCreate(msg.sender) && noGameOnCreate(_playerTwo)), \"One of the players has a game in progress.\");\n    myLastGame[msg.sender]= gameId;\n    myLastGame[_playerTwo]= gameId;\n    \n    justCreatedGameId = gameId;\n  \n    emit newGameCreatedEvent(msg.sender,_playerTwo);\n    gameId++;\n\n    return gameId;\n  }\n\n  function getLastGameId() public view returns(uint) {\n    return gameId-1; \n  }\n\n  function getGame(uint gId) public view returns(gameData memory )  {\n      return games[gId];\n  }\n \n  function checkAndReturnCurrentGame() public view returns (gameData memory game) {\n    game= games[myLastGame[msg.sender]];\n   }\n\n    event gameCanceled(address indexed submittedby, uint refundedAmount);\n\n\n   function cancelGame() public payable {\n     gameData memory game = games[myLastGame[msg.sender]];\n     if((! game.player2accepted) && (game.settings.timeoutTime < block.timestamp) && (msg.sender == game.playerOne)) {\n      myLastGame[game.playerOne]= 0;\n      myLastGame[game.playerTwo]= 0; \n      uint refundAmount = game.settings.wageSize - (game.settings.wageSize / 99); \n      // a proper gas risk approch would be cool\n      // case: player2 accept on player1 cancel? unlikely - possible?\n      // a game balance mapping would be cool\n      (bool success, ) = msg.sender.call{value:refundAmount}(\"\");\n      if(!success){\n        revert();\n      }\n        \n\n      emit gameCanceled(msg.sender, refundAmount);  \n    }\n   }\n  \n  event player2Accepted(address indexed _player1, address indexed _player2, bool _accepted);\n  \n  \n\n  function playerTwoAccepted(bool _accepted) public payable  {\n    if (! _accepted) {\n      gameData storage game =  games[myLastGame[msg.sender]];\n      require(game.playerTwo == msg.sender);\n      game.player2accepted = false;\n      game.gState = gameState.Rejected;\n      //or cancel? w\\ no refund?\n      myLastGame[game.playerOne]= 0;\n      myLastGame[game.playerTwo]= 0;\n      //uint tenpercent = \n      myLastGame[msg.sender] = 0; \n      //(bool success,) = msg.sender.call.value(//%palyer1deposit/gascost)()\n      //norefund for now.\n      emit player2Accepted(game.playerOne, game.playerTwo, false);\n    } else {\n      gameData storage game = games[myLastGame[msg.sender]];\n      require(msg.value == game.settings.wageSize);\n      require(game.playerTwo == msg.sender);\n      game.player2accepted = true;\n      game.gState = gameState.InProgress;\n      game.settings.gameBalance += msg.value;\n\n      emit player2Accepted(game.playerOne, game.playerTwo, true);\n    }\n  }\n  \n  function claculateStreamFlowRate(uint _availableBudget, \n                                uint _totalTimeRemaining,\n                                uint[3] memory _materialShare)\n                                internal view returns( uint rawFlowRate) {\n  uint p01Switch;\n\n  if (otherPlayer(myLastGame[msg.sender]) == games[myLastGame[msg.sender]].playerTwo) {\n    p01Switch = 0;\n  } else {\n    p01Switch = 1;\n  }\n\n  rawFlowRate= (_availableBudget / _totalTimeRemaining) * (_materialShare[p01Switch]/_materialShare[2]);\n                                }\n  \n  event newMoveInGame(address indexed submittedby, address indexed otherPlayer, string indexed prevState, gameData current);\n\n  function submitMove(string memory _submittedMove, uint[3] memory _material) public {\n\n    string memory submitted = _submittedMove;\n    require(games[myLastGame[msg.sender]].player2accepted, \"Player2 did not accept yet.\");\n    require(onMoveStateCheck(myLastGame[msg.sender]));\n    \n    gameData storage game= games[myLastGame[msg.sender]]; \n    \n    string memory prevState= string(game.currentGameBoard);\n    // address otherPlayer(myLastGame[msg.sender]) = otherPlayer(myLastGame[msg.sender])Player(myLastGame[msg.sender]); \n    \n    {\n\n    }\n    game.lastMover= msg.sender;\n    game.currentGameBoard = submitted; \n      \n    game.materialState = _material;\n    //uint playerSwitch= 0;\n\n    if( game.lastMoveTime > 0) {\n      \n\n      if(otherPlayer(myLastGame[msg.sender]) == game.playerTwo) {\n      //  this is player1\n        if ((block.timestamp - game.lastMoveTime) > game.p1Time) { \n          game.p1Time = 0;\n          game.firstToZero = game.playerOne;\n        } else {\n          game.p1Time = game.p1Time - (block.timestamp - game.lastMoveTime);\n        }\n      \n    } else {\n      // this is player2\n      if ((block.timestamp - game.lastMoveTime) > game.p2Time) { \n          game.p2Time = 0;\n          game.firstToZero = game.playerTwo;\n        } else {\n          game.p2Time = game.p2Time - (block.timestamp - game.lastMoveTime);\n          //playerSwitch= 1;\n        }\n    }\n    //  game.totalGameTime = game.totalGameTime - (block.timestamp - game.lastMoveTime);\n        game.totalGameTime = game.p1Time + game.p2Time;\n    } \n    \n     \n    // update remaining total gametime\n   \n    //update last move time\n    game.lastMoveTime = block.timestamp; \n    emit newMoveInGame( msg.sender, otherPlayer(myLastGame[msg.sender]), string(prevState), game );\n  \n    \n\n  ///calculate stream flowrate\n    \n    // claculateStreamFlowRate(game.settings.gameBalance, game.totalGameTime, game.materialState);\n  \n  /// starts / modifies stream \n\n\n  /// stop stream on low gamebalance\n  \n  }\n\n\nevent playerResigned(address indexed submittedby, address indexed OtherPlayer, address PlayerNotLastMovedThatResigned);\n\n  function resignGame() public {\n    //gameData storage game = games[myLastGame[msg.sender]];\n    \n    if ( onMoveStateCheck(myLastGame[msg.sender]) ) {\n\n      myLastGame[otherPlayer(myLastGame[msg.sender])] = 0;\n      myLastGame[msg.sender]= 0;\n      \n      //reverse order\n      emit playerResigned(msg.sender, otherPlayer(myLastGame[msg.sender]), msg.sender);    \n      \n    }\n  \n  }\n\n  function otherPlayerTimedOut() public {\n    //case1: playerrefuses to move, time elapses, adversary needs to be able to claim victory if no streaming. if supefluid streaming - avoid defaulting penalty\n    //case2: white accepts game but never moves (accept timeout titme  + extra 60 seconds)\n      //gameData memory game = games[myLastGame[msg.sender]];\n      \n      //bool whiteNoMoveCondition = ( (games[myLastGame[msg.sender]].settings.timeoutTime < (block.timestamp + 60)) && (games[myLastGame[msg.sender]].lastMover == address(0)) );\n      //require(game.firstToZero != address(0), \"No player timed out yet\");\n      require( (otherPlayer(myLastGame[msg.sender]) == games[myLastGame[msg.sender]].firstToZero) ||  ( (games[myLastGame[msg.sender]].settings.timeoutTime < (block.timestamp + 60)) && (games[myLastGame[msg.sender]].lastMover == address(0)) ), \"Adversary did not timeout yet\");\n    \n      // Modify state, execute timeout logic #@@branch\n\n  }\n\n  // function timeOutforAccept() public {\n  //   uint gId= myLastGame[msg.sender];\n  //   gameData memory game = games[myLastGame[msg.sender]];\n  //   if ( ( game.settings.timeoutTime < block.timestamp ) && (! game.player2accepted ) ) {\n  //     myLastGame[otherPlayer(myLastGame[msg.sender])Player(gId)] = 0;\n  //     myLastGame[msg.sender] = 0;\n\n  //     //refund\n  //   }\n\n  //   // handled in cancelGame \n  // } \n\n\n\n  // include edge case when white accepts game, but never moves.\n\n///////////BulkHudiEnd\n\n// function calculateMaterialFenSplit(string memory rawFen) internal pure returns (int8[3] memory materialAdvantage){\n//   //// can't really do this myself in solidity atm\n// }\n\n\n}\n",
  "sourcePath": "/home/pbdesk2/Desktop/github/ChessWager/contracts/GameContract.sol",
  "compiler": {
    "name": "solc",
    "version": "0.7.6+commit.7338295f.Emscripten.clang"
  },
  "schemaVersion": "3.4.3",
  "updatedAt": "2021-10-04T14:55:06.355Z",
  "networkType": "ethereum",
  "devdoc": {
    "kind": "dev",
    "methods": {},
    "version": 1
  },
  "userdoc": {
    "kind": "user",
    "methods": {},
    "version": 1
  }
}